:020000040000FA
:10000000022EF6A2AF9202A9A7E4F5A7C2AF75FF30
:100010008075EF028F828E8375B7A575B7F1438F18
:100020000175FF8075EF02EDF0538FFEAF018FA7D2
:0A003000A20292AF2275A5652222FC
:10003B00022D16900327E5A7F01235BB900327E09E
:03004B00F5A722F4
:10005300023329AF885388AF758C38758A13758D31
:0F006300F0758B34EF5440FEEF54104E4288225C
:1000730002357AE59154045391FB43910442912252
:03008300022AFB53
:10008B0002355B2054203D20256C642E25642843CB
:10009B0029200A000D0A20416464726573732030B5
:1000AB0027732076616C7565206572726F723A20CA
:1000BB00203078253034780D0A000D0A2041646415
:1000CB00726573732030783938313120277320767D
:1000DB00616C7565206572726F723A2030782530CD
:1000EB0034780D0A0030A6CC3F3FA1A43FA6CC3FED
:1000FB0061A1EA6F307825303478003078393831A7
:10010B0031A6CC3F3FA1A43FA6CC3F61A1EA6F3003
:10011B00782530347800307839663066A6CC3F3F8E
:10012B00A1A43FA6CC3F61A1EA6F3078253034788B
:10013B00004D4355205354415254204F4B2E2E2EDD
:10014B002E2E2E00C2ED0100C7F8000001000100A9
:10015B0000001A580100000000000FD000000FD063
:10016B0000000FD000000FD000000FD000000FD008
:10017B0000000FD000000FD000000FD000000FD0F8
:10018B0000000FD000000FD000000FD000000FD0E8
:10019B000000000000000000000000000000000054
:1001AB00010005040000000000000000000000003A
:1001BB000000000000000000000000000000000034
:1001CB000100059C010006440100066C0400004080
:1001DB0001F4010000200004000201F402000002FF
:1001EB000001FFFC00010006000A000600050005E7
:1001FB00003B001E0001000A000000000000000090
:10020B0001000003004B00320190050600000000C6
:10021B0000000000000000981000A989100DCBAB66
:10022B001000DCBC10065DCD0000065D0000007602
:10023B00000000000000021000032F01000000006E
:10024B00000103E8020001800020060600140000F4
:10025B0000000000000000001820010000000173E6
:10026B00A8211D589C21FFE0B8640082D401100422
:10027B00A8409805AC84FFFFD401B014E2C3100072
:10028B009C400001A4840003E0421802D401A0109A
:10029B00E2842000B8420008D4017008E2942000E8
:1002AB009DC00000D401900CD401C018D401481C8F
:1002BB00D40108009E940004E04410009F00000A43
:1002CB00AA4E000007C004E0A8760000E16BA0482E
:1002DB00186000008CB7003EA8632DF0A56B0007DB
:1002EB00E16B18008C8B0000E56428001000000700
:1002FB00A8770000E0A52002E5722800100000039B
:10030B0015000000AA4500008C63003FE5A418000F
:10031B0010000006E0841802E56E200010000003B8
:10032B0015000000A9C400009F18FFFFBC38000097
:10033B0013FFFFE5150000009E52FFFFBC32FFFFCD
:10034B000C000006A860980407C004D3A882000024
:10035B0003FFFFFB9E52FFFF9C4200049DCEFFFF5D
:10036B00BC2EFFFF0C000006A860980407C004CA4F
:10037B00A882000003FFFFFB9DCEFFFF8521001C21
:10038B00842100008441000485C100088641000CD3
:10039B008681001086C100148701001844004800B4
:1003AB009C2100209C21FFE8D4017008D401481443
:1003BB00D4010800D4011004D401900CD401A01076
:1003CB00A9C30000946E0000BC2300000C000016B3
:1003DB00A4430F00BC2208001000000E968E0002F2
:1003EB009E400000A443F0FFA880FFFFE062900056
:1003FB00A8B4000007C0049F9E520100BC32080045
:10040B0013FFFFFBA880FFFF03FFFFEF9DCE000450
:10041B00A880FFFF07C00497A8B4000003FFFFEA02
:10042B009DCE00048521001484210000844100042A
:10043B0085C100088641000C8681001044004800ED
:10044B009C2100189CA000019C21FFF4E085200852
:10045B00D4011004A8430000A8609811A8A40000C0
:10046B00D401480807C00483D4010800B4605001CC
:10047B00D40218089C600000DC02181A85210008C1
:10048B008421000084410004440048009C21000C9E
:10049B00A4A400079C21FFF0B8A5000BD401100405
:1004AB009CC03800A84400009C80004ED40170080A
:1004BB00D401480CA9C3000007C00783D40108006E
:1004CB00A4A20008A86E0000BC05000010000003E9
:1004DB009C8000DF9CA0002207C0077B9CC000E231
:1004EB008521000C842100008441000485C1000893
:1004FB00440048009C2100109C21FFECD401100407
:10050B00D4017008D4014810D4010800D401900C18
:10051B00A84300008E4300148CA3000CA6520007C6
:10052B00E572280010000004A9C4000000000005BB
:10053B009CA5FFFFE5B22800100000039CA500015D
:10054B00D802280C8CA2000CA4A50007A86E0000F2
:10055B00B8A5000B9C80004E07C0075B9CC0380001
:10056B008C62000CE4239000100000158521001014
:10057B008C82001407FFFFC7A86E0000A86E000056
:10058B009CA002009CC03F8007C0074F9C800001CD
:10059B00A862000007FFFFACA88E0000B4605001FA
:1005AB00D40218089C60001EA88E0000D802180EFA
:1005BB0007FFFF2DA8620000852100108421000099
:1005CB008441000485C100088641000C44004800AA
:1005DB009C2100149C21FFF0D401480CD40108008D
:1005EB00D4011004D401700899C3001ABC0E00008A
:1005FB000C0000168521000CB440500184A30008A8
:10060B00E042280298B7001CB8420059E482280047
:10061B001000000E8521000CA8430000186001009B
:10062B0007C00806A8631A489C600001DC02181A70
:10063B008C62000FBC030000100000048521000C2D
:10064B00D802700E8521000C842100008441000427
:10065B0085C10008440048009C210010B863008449
:10066B009C21FFF4D4011004A443000FD4014808CB
:10067B00BC02000210000013D4010800BC020003EE
:10068B0010000009BC0200000C00000A18600100F9
:10069B0007FFFF45A86318649C6000050000000F6E
:1006AB00A88200001860010000000008A86318FC75
:1006BB0007C002F19C6000020000000B85210008BE
:1006CB0018600100A86319A407FFFF37150000008D
:1006DB009C6000059C80000007C002EA150000002A
:1006EB008521000884210000844100044400480057
:1006FB009C21000C9C21FFF8A48300FFD40148042B
:10070B00BC04000010000006D401080007C002DA88
:10071B009C6000020000001F8521000407C002D965
:10072B009C60000DA860981007C006C89C80001A3A
:10073B0007C003C5A8609818B88B008CA56B000F79
:10074B00BC0B00001000000CAC64000DE0A0180204
:10075B00E0651804BD83000010000008BC04000015
:10076B009C60000D07C002C79C80000100000009BF
:10077B0085210004BC04000013FFFFEB15000000F3
:10078B0007C002BD9C60000D03FFFFE8A860981036
:10079B0084210000440048009C2100089C21FFF8A4
:1007AB00A89700009CA00042D401480407C0067C17
:1007BB00D401080085210004842100004400480076
:1007CB009C2100089C21FFF4D4011004A443000FCA
:1007DB00D4014808BC2200011000000CD401080011
:1007EB0018800100A8609819A88400F807C0038A34
:1007FB00948400009C60000F07C002A2A882000036
:10080B0000000006852100081860008907C0064C0F
:10081B00A8636AAF8521000884210000844100048D
:10082B00440048009C21000C9C21FFD4186001005F
:10083B0018800100D401100418400100A8631A5855
:10084B00A8841F98A84200F8D4014828D4010800B6
:10085B00D4017008D401900CD401A010D401B014B1
:10086B00D401C018D401D01CD401E02007C003C0B0
:10087B00D401F02407C00366150000009462000049
:10088B00BC23000010000007186001001880010055
:10089B00A8630000040003BCA8841A58DC025800AB
:1008AB001AE00100AAF70074A860981407C0036649
:1008BB00A840FFF0E42B1000100000061840CFFFFB
:1008CB0007C0035A9C60000007BFFE85150000009F
:1008DB00A842FFFFC14010009C800000C1402001D6
:1008EB00186001009DC0FFFF07C00754A863172CB9
:1008FB009DCE0001A5CE0007B86E0003B84E0006D2
:10090B00E043100018600100A8631D58E042180076
:10091B0007C0079FA86E0000B96B0088BDAB001F16
:10092B00100001CBBD4B0017A64B001FBD52000999
:10093B0010000009BD92000BBD720008100000D81A
:10094B00BC1200021000000C9C80FFFE0000038A0A
:10095B001500000010000388BDB2000C100001044C
:10096B00BC1200181000016DA880820000000382E9
:10097B00150000008C6200429EC00001E063200362
:10098B00E2D67008D802184207C0032FA860980F50
:10099B00A8609816E16B704807C0032BA64B0001AB
:1009AB00A8609811D8029010A89600009CA0000097
:1009BB0007C00330AA8B00009062000EBC230064BA
:1009CB001000000CA474FFFFE0637088A4630001A7
:1009DB00BC03000010000360A8960000A8609816E6
:1009EB0007C003249CA000009C600000D802180ED6
:1009FB0007C007AAA86E0000A56B00FFBC12000081
:100A0B001000002CD802580F94B700249CC0003F54
:100A1B00A4A5003FA86E000007C0062B9C800078A1
:100A2B0018600100A88E000007C00704A8631820F7
:100A3B0018600100A88E000007C00700A86317EC20
:100A4B009C800008A86E0000D802200E07C0061A72
:100A5B009C80004EB96B00128CA2000FB96B005D2D
:100A6B00BC050000A86E00001000000CD802580C4A
:100A7B009CA000009C80000107C006139CC0400096
:100A8B0094570018BC220000100000039CA0000229
:100A9B00A8A20000A86E00009C8000DF9CC0000292
:100AAB0007C00609150000000000006D94970000B8
:100ABB00BC0B0000100000319CC0003F94B7002419
:100ACB00A4A5003FA86E00009C80007807C005FE1F
:100ADB00BA94001018600100A88E000007C006D75A
:100AEB00A863182018600100A88E000007C006D369
:100AFB00A86317EC9C6000059C800008D802180DB9
:100B0B00BD74000010000006D802200E9C60000788
:100B1B009C800001D802180DD80220108CA2000D69
:100B2B00A4A50007A86E0000B8A5000B9C80004E82
:100B3B0007C005E59CC038008C62000DD802180C6C
:100B4B0094570018BC220000100000039CA0000268
:100B5B00A8A20000A86E00009C8000DF07C005DA89
:100B6B009CC00002A86E00009C8000019CA00000AD
:100B7B0003FFFFCC9CC040008C62000E9C63FFF611
:100B8B00BC43000D1000003B18600100B460500125
:100B9B0084A20004E063280294B70010B8630050ED
:100BAB00E485180010000032E0B770008CC200130F
:100BBB009C660012B8630002E077180084630000A3
:100BCB00B883005CD40218209C84001AB8840002FD
:100BDB00E097200084840000D8029012D4022024D5
:100BEB00A48300FFB8630004A4E4000FA4840007EF
:100BFB00B8630048D802200CD8023814D40218204D
:100C0B0018600100DC029018DC029016D805302C1D
:100C1B00A88E000007C00689A86317EC8CA2000CF5
:100C2B0098970022E58520001000000915000000B0
:100C3B0094B70080A4A5007FA86E0000B8A500079C
:100C4B009C80000107C005A09CC03F808C820014D3
:100C5B0007FFFE10A86E00009497000007C005A3C5
:100C6B00A86E0000000002C415000000186001000F
:100C7B00A88E000007C00671A86317889C80001F10
:100C8B009C600000D802201CD802201D9C8000080C
:100C9B00D8021812000002B8D802200E8E82001261
:100CAB00BC340000100000079C600010B4605001C1
:100CBB00D40218049C600009D802180E9C60001026
:100CCB00E283A088BC340000100000031500000074
:100CDB009E800001A86E000007C005779C80007401
:100CEB00A56BFFFFBC4B0001100000039C600001D3
:100CFB009C600000A46300FFBC23000010000005F3
:100D0B008C62001CBC3200091000000815000000AA
:100D1B00D802181EBC43003E0C000005E283A00065
:100D2B00000000058CA2001CE283A002D802A01CCC
:100D3B008CA2001CA86E00009CC0007F9C80004A07
:100D4B0007C00561A4A5007FA86E00009C80004928
:100D5B0007C0056A9CA00000A8808B8C07C0055FAC
:100D6B00A86E000000000284150000008E820012A5
:100D7B009C600010E283A088BC34000010000003CC
:100D8B00150000009E800001A86E000007C0054AF8
:100D9B009C800074A56BFFFFBC4B0001100000048E
:100DAB008C62001D00000006E283A002BC43003EE3
:100DBB0010000004D802181FE283A000D802A01D67
:100DCB008CA2001DA86E00009C80004CA4A5007F87
:100DDB0007C0053D9CC0007F8C620012BC4300061F
:100DEB00100000109C800078A8A0FFFFA86E0000E8
:100DFB0007C005429C800049A880888907C0053739
:100E0B00A86E00008C6200129C630001BC32000CC7
:100E1B0010000259D80218120000003B18600100A4
:100E2B0094B70024A86E0000A4A5003F9CC0003F0F
:100E3B0007C005259E40000018600100A88E000029
:100E4B0007C005FEA86318208C62001FE403900006
:100E5B001000000F9C80000007C001B18C62001EC7
:100E6B008C62001F07C001AEAA4B0000A8720000E5
:100E7B0007C00182A88B00009C80000707C00256A8
:100E8B00A86B00009E4BFF809C800000A86098160A
:100E9B0007C001EDD4022020A56B8000BC2B000005
:100EAB00100000139C600006BDB2004B1000000E3A
:100EBB00BDB200721000000C9D600001BDB2008736
:100ECB00100000099D600002BDB200CB10000006AF
:100EDB009D600003BD5200FE100000039D600005E5
:100EEB009D6000049C600005E0635802D802181353
:100EFB00E0777000D80390409C60000AD802180E6F
:100F0B0018600100A88E000007C005CCA863184824
:100F1B00000002121860010007C004F0A86E000068
:100F2B008C620042A8630001D802184207C0056515
:100F3B00A86E0000A86E000007C0052FAA4B00008A
:100F4B009477001AE48B1800100000059E520010D5
:100F5B00BCB200201000000915000000A86E0000B4
:100F6B009C8000509CA0080007C004D79CC00FFFBA
:100F7B0000000201150000008C620010BC03000091
:100F8B001000002E150000009497000207C004D734
:100F9B00A86E0000A8A0E000A8C0F000A86E00009A
:100FAB0007C004C99C80003B8C620010BC0300008E
:100FBB001000000D150000008C62000FBC23000018
:100FCB00100000189C60001A8C82000C9877001E91
:100FDB00E564180010000004A86E000007C005F5BA
:100FEB009C8000078C62000FBC2300001000000DDA
:100FFB009C60001A8C82000C98770020E564180026
:10100B00100000069CA00022A86E00009C8000DF50
:10101B0007C004AD9CC000E2000000099C80001DCD
:10102B00A88E0000D802180E07FFFC8FA8620000E4
:10103B0000000004150000009C800010D802200E58
:10104B00B4605001000001CCD40218000C0001C3A5
:10105B00186001009E4E00809EC00003BA5200082B
:10106B009F9200139E52002A07C00177A87C0000B4
:10107B00A872000007C00174ABCB00009C80000D70
:10108B00A86E000007C0048CAB0B0000A86E00001C
:10109B0007C00501AA8B0000A87C0000AB4B000029
:1010AB0007C00169A7DE000FA56B000FE55E5800B6
:1010BB00100000039C8000019C800000A48400FFB2
:1010CB00BC24000010000014BC0B000F1000001318
:1010DB009ED6FFFFB6C050018C62000E9C63FFF0E2
:1010EB0086420000A46300FFE2569002BC4300213D
:1010FB0010000199BA52005018800100B863000229
:10110B00A88416A4E0632000846300004400180048
:10111B00150000009ED6FFFFBC36000013FFFFD367
:10112B001500000003FFFFEC15000000947700266C
:10113B00E4921800100001891860010094970002D6
:10114B0007C0046AA86E0000A86E00009C8000080F
:10115B009CA0008007C0045C9CC000F08C62000F58
:10116B00BC0300000C00017AD402B0000000012D7A
:10117B009C80001294970028E492200010000177C5
:10118B00186001009497003C94C20018E09820006E
:10119B00E58430001000000815000000947700264D
:1011AB00E49218000C000005186001000000016BB0
:1011BB00150000009F00000084620024D402B000E0
:1011CB00A483000FB8630044BC24000F0C00001470
:1011DB00D40218249C640014A4B8FFFFE063180029
:1011EB00E0E22000E0621800DC0328008C620014AF
:1011FB00D807D030D80718348CE20012E5A4380099
:10120B0010000003E5B83000D802201210000004D3
:10121B0015000000DC022818DC021816848200205E
:10122B00BC04000010000013BC38000010000009C3
:10123B00150000008CA2001494620016A4A50007F0
:10124B00A4630007E54518001000000A1500000014
:10125B00A484000FA86E000007FFFC8ED802201498
:10126B0084620020B86300440000013BD4021820C4
:10127B0095A2002890E200308C8200129D02002A79
:10128B009CA20031A8CD00009DE000009C600001F5
:10129B00E5A320000C000013A9970000958800001F
:1012AB00E5AC30001000000B15000000916500004C
:1012BB00BD8B000010000004E54B3800100000054A
:1012CB0015000000A8EB0000A9E30000A8CC00006B
:1012DB009C6300019D08000203FFFFEE9CA500012B
:1012EB009CA200289D0200309C600000E423780043
:1012FB000C000013BC24000396250000956C0038ED
:10130B00E1715800E58B300010000008150000005B
:10131B0091680000BD8B000010000008E5AB3800A1
:10132B0010000007BC2400039C6300019CA5000275
:10133B0003FFFFEF9D080001BC2400031000001AFF
:10134B001500000015000000BC2300001000001663
:10135B00150000009482002EE0846802B8A4009F60
:10136B00E0852005E084280294AC003AE56428006F
:10137B001000000D1500000090820031BD840000AC
:10138B00100000081500000090820032BD640000C0
:10139B001000000515000000000000039C60000217
:1013AB009C600001E06218008C8200148C63003496
:1013BB00A4840007D80218149C600019D802200CD2
:1013CB0000000007D802180E9477002AE492180048
:1013DB00100000E115000000D402B000A86200006C
:1013EB0007FFFC46A88E0000000000DC186001001F
:1013FB00A862000007FFFC78A88E00008C62000F2B
:10140B00BC230000100000D5186001009E400100B5
:10141B00A860980F07C0008CE2527008E24B900353
:10142B00BC320000100000CC9C800001A86E0000B4
:10143B00A8B2000007C003A49CC040009C60000140
:10144B00DC029016D8021815DC029018949700361F
:10145B00E06320089C80001FD402B000D802181152
:10146B00000000BDD802200EA862000007FFFC5A46
:10147B00A88E000007C00074A860980F9C60010044
:10148B00E0637008E16B1803BC2B0000100000B385
:10149B0018600100A86E000007C003879C8000093C
:1014AB00A56B8000BC2B0000100000AC1860010085
:1014BB0094770034E4921800100000A81860010023
:1014CB008E420011946200169E52FFFFE318180023
:1014DB00A65200FFD402B000DC02C016BC320000E2
:1014EB001000009DD8029011A86E000007C0037277
:1014FB009C800080A86E00009C80000107C0036EDA
:10150B00AACB00009462001694820018E4641800C1
:10151B00100000041500000000000007DC02181882
:10152B008C6200159C63FFFFDC029018B863005FB0
:10153B00D802181590820015BC0400001000000999
:10154B00A474007FB8B60010B8A50059E583280035
:10155B000C00000A15000000000000099CA300010C
:10156B00B8AB0012B8A50059E54328000C000004E5
:10157B00A4A5FFFF9CA3FFFFA4A5FFFFA86E00007F
:10158B009C80005F07C003509CC0007F9CA0100094
:10159B00A86E00009C80000A07C0034BA8C5000082
:1015AB00949700369C600001E0632008D802181164
:1015BB009C60000000000068DC021816947700069F
:1015CB00E4B218001000006415000000A8620000CF
:1015DB0007FFFB25A88E00009C80001CD402B000E6
:1015EB00D802200EA862000007FFFB97A88E000010
:1015FB000000005A1860010094770004E4B2180050
:10160B001000005515000000000000529C60001BEC
:10161B009477000EE4B218001000004F9C80001B62
:10162B000000004DD802200EA862000007FFFB86C9
:10163B00A88E0000000000479C60001B94770008F8
:10164B00E4921800100000449C8000319C60000064
:10165B00D802200EDC02181A9C6000019497000A35
:10166B00E0632008D80218119477000CE49218005C
:10167B001000003A186001009462001AE35A180037
:10168B008C820011BB5A00109C84FFFFD402B00067
:10169B00BB5A0090A48400FFDC02D01ABC240000CB
:1016AB001000002DD802201194F7000A987700142F
:1016BB00E0633808E5BA18001000000B8C62000CD0
:1016CB00BC030000100000169E4000018CA2000D10
:1016DB00E4851800100000129C63FFFF0000000F50
:1016EB00D802180C98B70016E0A53808E57A280040
:1016FB001000000B9E400001BC43000510000008C9
:10170B00150000008CA2000DE44518001000000429
:10171B00E0639000D802180CAA4400008C82000CE5
:10172B0007C00312A86E0000BC12000010000008D6
:10173B009C80001AA8620000D802200E07FFFACA8C
:10174B00A88E000000000005186001009C600030AE
:10175B00D802180E1860010007C0025AA86300389F
:10176B00A860981007C002B99C80001A03FFFC62A6
:10177B009DCE000107C004DCA86E000003FFFFF73D
:10178B0018600100A96BFFFF19000100A90816845E
:10179B00E4032000100000109CA0000494C3000080
:1017AB00E16B3005B8CB004CB96B0004E0C63000E0
:1017BB009CA5FFFFE0C64000BC25000094C60000BE
:1017CB00E166580513FFFFF8A56BFFFF03FFFFF161
:1017DB009C630002440048001500000000008005D7
:1017EB00800F000A801B001E00148011803300360E
:1017FB00003C80390028802D8027002201000FD467
:10180B00010015FC0100101C010015FC010015FC6A
:10181B00010015FC010015FC010015FC010015FC75
:10182B0001001270010014D001001298010014A0E5
:10183B0001001464010014B801001310010015FC21
:10184B00010015FC010015FC010015FC010015FC45
:10185B00010015FC010015FC010015FC010015FC35
:10186B00010015FC010015FC010015FC010015FC25
:10187B00010015FC010015FC010015FC010014E42E
:10188B00010015109810FFFF0000800B9F9F820036
:10189B00810B9F9F8200820B9F9F8200830B9F9FD8
:1018AB0082009814FFFF5B5B980C20002000980FC0
:1018BB00FFFF00F09900FFFFFDE09901FFFF2104FE
:1018CB009902FFFF93109903FFFF4A66981EFFFFD3
:1018DB0085389826FFFF95799827FFFF00000000B9
:1018EB0000F203F002E000DF00E2000000F9007EEE
:1018FB00004C00F803800000003BF0000000007873
:10190B00003F0024000B9F9F8889006500E00000CA
:10191B000048FFFFFFFF0049FFFFFFFF004A0FFFDB
:10192B00071F004BFFFFFFFF004C1FFF0E9F004DDB
:10193B0080008000004E38003800004FF000F000AF
:10194B000000000000500FFF0040003BF0000000C3
:10195B00004D80008000000800F000800001400076
:10196B004000000A10000000006500E00000000BC2
:10197B009F9F8298000000000048FFFF00800049F5
:10198B00FFFF0002004C1FFF1115004BFFFF0080F3
:10199B00004A0FFF08BD000B9F9F82000000000054
:1019AB00008108000800000C80000000000C800083
:1019BB0080000081080000000000000088834E05B5
:1019CB008882D8008875C6FF6002800088FC52367A
:1019DB00780000008850504088A30020854E0000FE
:1019EB00887641828877516688781CBB8476008420
:1019FB0085760084867600848776008484771882C7
:101A0B0085771882867718828777188284788C3846
:101A1B0085788C3886788C3887788C38844E0000A3
:101A2B00874E0000864E00006032800060128000FE
:101A3B00886300808864808088085ABB88032933B8
:101A4B0088024006602280008806A1008805AE82CD
:101A5B000000000088DF0066888130008887CD7A1F
:101A6B008886CD7A88854D7A88848D7A88FC5366F2
:101A7B0088884D7A88FE80AE88FDB64488FFFDC00D
:101A8B0078080C00731AFF00711AFF00721AFF001E
:101A9B00701AFF0078093A908879886C824E38006A
:101AAB00814E3800834E3800804E3800884D8000C0
:101ABB007806125488EFB6A088FB773678190005A4
:101ACB00781681C088F98B5A88F8B7780007002000
:101ADB0088F1B00088F067B488F561E088F7A2461A
:101AEB00990293109900FDE09901210488010201EC
:101AFB0088004D0588074D7A0000000088DF0066DE
:101B0B00888130008887CD7A8886CD7A88854D7A12
:101B1B0088848D7A7806125488FB773688FEA5A8C0
:101B2B0088FD364488FFFDC078080C00731AFF004F
:101B3B00711AFF00701AFF00721AFF0078093A90B1
:101B4B008879886C814E3800834E3800824E38007D
:101B5B00804E3800884D800088EFB6A088884D7A7B
:101B6B0078190005781681C088F98BDA88F8B77870
:101B7B000007002A88F1B00088F067B488F561E0AF
:101B8B0088F7A246990293109900FDE09901210470
:101B9B008801020188004D0588074D7A000000007E
:101BAB00008BFC00FC00008BFC0000000000000020
:101BBB000000000080A7140081A7140082A7140066
:101BCB0083A7140084A7120085A7120086A7120012
:101BDB0087A7120080A83C0081A83C0082A83C008B
:101BEB0083A83C0084A83F0085A83F0086A83F003F
:101BFB0087A83F0084A63C0085A63C0086A63C0037
:101C0B0087A63C0080A0008081A0008082A000807D
:101C1B0083A0000084A0000085A0008086A0008027
:101C2B0087A00080844E2000854E2000864E200029
:101C3B00874E200080613C208161342082613420FA
:101C4B0083613C2084617C20856134208661342053
:101C5B00876134209F00980D981474FF900327F030
:101C6B00A3F0E490032DF0A3F0A3122A840000004C
:101C7B000090033E122A8400000000900342122AB7
:101C8B00840000000078547C037D017BFF7A1C7973
:101C9B005F7E007F0612289590035A122A8400005B
:101CAB000000900360E4F0A304F0E4900364F0A35D
:101CBB00F0C296C295C292C2817F961234B9D29667
:101CCB007F961234B9D2927F961234B9D2957FFA9D
:101CDB001234B9D2817FFA1234B990033774FFF002
:101CEB00A37401F0A3744FF0E4FFFE1234319003A0
:101CFB0064EEF0A3EFF0644C7003EE642060187B8D
:101D0B00FF7A00799F900364E0FFA3E090037BCF01
:101D1B00F0A3EFF012217C7DCD7CAB7F117E98126E
:101D2B00349A7F117E98123431900364EEF0A3EF56
:101D3B00F064CD7003EE64AB60187BFF7A0079C55D
:101D4B00900364E0FFA3E090037BCFF0A3EFF012CE
:101D5B00217C900337E0FBA3E0FAA3E0240C122FC5
:101D6B0095900333122A78900337E0FBA3E0FAA394
:101D7B00E02408122F9590033A122A78900337E04B
:101D8B00FBA3E0FAA3E02410122F95900346E4F096
:101D9B00A3740AF0A3122A7890034C122A84000031
:101DAB000000E47B18FAF9F8900333E0FCA3E0FDA4
:101DBB00A3E0FEA3E0FF1229B4EF2401FFE43E9061
:101DCB000366F0A3EFF0900352E4F0A37480F0905D
:101DDB00033EE0F8A3E0F9A3E0FAA3E0FB90035283
:101DEB00E0FEA3E02406F58274003EF583E0FFE4F9
:101DFB00FCFDFEEB2FFFEE3AFEED39FDEC38FC90CF
:101E0B00033E122A78900353E004F07006900352BD
:101E1B00E004F0900352E07004A3E064BF70B09054
:101E2B000352E4F0A374C0F0900342E0F8A3E0F98E
:101E3B00A3E0FAA3E0FB900352E0FEA3E02406F537
:101E4B008274003EF583E0FFE4FCFDFEEB2FFFEE1A
:101E5B003AFEED39FDEC38FC900342122A789003E0
:101E6B0053E004F07006900352E004F0900352E04C
:101E7B007004A3E064DF70B090033EA3A3A3E0FF64
:101E8B009000C5EFF0900342A3A3A3E0FF9000E501
:101E9B00EFF0D2107D887C08123496123493C21066
:101EAB007FF41234B9E4FFFE123431900364EEF088
:101EBB00A3EFF0644C7003EE642060187BFF7A0094
:101ECB00799F900364E0FFA3E090037BCFF0A3EF37
:101EDB00F012217C7DCD7CAB7F117E9812349A7FE2
:101EEB00117E98123431900364EEF0A3EFF064CDC1
:101EFB007003EE64AB60187BFF7A0079C5900364C6
:101F0B00E0FFA3E090037BCFF0A3EFF012217CE482
:101F1B00900364F0A3F0900368F0A37428F0E490AE
:101F2B000352F0A3F0900368E0FEA3E0FF9003528E
:101F3B00E0FCA3E0FDC39FEE6480F8EC6480985056
:101F4B0074EDAE047802C333CE33CED8F9FDAC06B4
:101F5B0024BFF582741B3CF583E493FE74C02DF50E
:101F6B0082741B3CF583E493FDEDFFC006C0079024
:101F7B000352E0FEA3E07802C333CE33CED8F9FD93
:101F8B00AC0624C1F582741B3CF583E493FE74C24A
:101F9B002DF582741B3CF583E493FDEEFCD007D04A
:101FAB000612349A900353E004F07006900352E04B
:101FBB0004F0021F307FF41234B97D777C071234A2
:101FCB00961234937FF41234B912350F7BFF7A01DA
:101FDB00793C12217C7B017A7E790090037D74021F
:101FEB00F0A3E4F0FD7C7E1230A4D2AF90FFD5E4D9
:101FFB0093FE90FFD4E493FDEDFF900376EEF0A3F8
:10200B00EFF0900054E024FC601A047051900051E2
:10201B00E02400F582E4347EF583E0900053F0E495
:10202B00A3F0803A900053E0FF900051E0FE2400B3
:10203B00F582E4347EF583EFF0EEB4FF1C7F007E77
:10204B007E1234627B017A7E790090037D7401F0FD
:10205B00A3E4F0FF7E7E12310FE4900054F0300FBA
:10206B00A1900288E0FCA3E0FDA3E0FEA3E0FFC08B
:10207B0006C007900376E0FEA3E0FBAA06D007D0CC
:10208B0006C3EF9BFFEE9AFEED9400FDEC9400FC73
:10209B00E47B64FAF9F8122929E47B1CFAF9F812AB
:1020AB00337090036C122A78E47B64FAF9F890038E
:1020BB006CE0FCA3E0FDA3E0FEA3E0FF1233709005
:1020CB000370122A7890036CE0FCA3E0FDA3E0FE02
:1020DB00A3E0FFEC3390036C5009A3A3A3E0122AF7
:1020EB0046800BE0FCA3E0FDA3E0FEA3E0FFE47B56
:1020FB0064FAF9F8123370AF03900374EAF0A3EFAC
:10210B00F0C20F02200DE508247BF582E43403F5C1
:10211B0083E005082290037830090390037BE47574
:10212B00F001122AB50228BB2002E97F2ED20280D1
:10213B0018EF540F2490D43440D4FF30060BEF2407
:10214B00BFB41A0050032461FFE5096002150905AD
:10215B000CE50C7002050B30090E900378E475F05A
:10216B0001122AB5EF02290102356B7403D20980E3
:10217B0003E4C209F508900378122ACCE4F509F5BB
:10218B000BF50CE50960077F2012215480F5750AC9
:10219B00FFC203C202C204C205C207C208C20A12AE
:1021AB002120FF700D3009057F00122165AF0CAEA9
:1021BB000B22B4255FC2D5C206122120FF24D0B456
:1021CB000A00501A75F00A780930D50508B6FF01D8
:1021DB0006C6A426F620D5047002D20580D924CFDA
:1021EB00B41A00EF5004C2E5D206022366D2038074
:1021FB00C6D20280C0D20480BCD2D580BAD20780AE
:10220B00B47F201221542004077401B5090040F15A
:10221B00122111FF12215402218ED20AD20880956D
:10222B00122111FB122111FA122111F94A4B7006DE
:10223B0079377A247BFF20042EE509602A7E008EF5
:10224B00827583001228D460060EEE650A70F0C208
:10225B00D5EBC0E0EAC0E0E9C0E0EE1223ADD0E080
:10226B00F9D0E0FAD0E0FB1228BBFF60AAEBC0E08C
:10227B00EAC0E0E9C0E0122154D0E02401F9D0E03B
:10228B003400FAD0E0FBE50A0460DCD50AD980877C
:10229B007BFF7A2379A9D204809C7910800279087C
:1022AB00C208C20A8008D2D5790A8004790AC2D53D
:1022BB00E50A047002F50AE4FAFDFEFF122111FC97
:1022CB007B08200313122111FD7B1030020A12210F
:1022DB0011FE122111FF7B20EC3382D592D55013C6
:1022EB00C3E43002069FFFE49EFEE42003039DFD42
:1022FB00E49CFCE4CBF8C203EC700CCFCECDCCE865
:10230B0024F8F870F38017C3EF33FFEE33FEED3391
:10231B00FDEC33FCEB33FB994002FB0FD8E9EB30C0
:10232B000305F8D0E0C448B203C0E00AEC4D4E4FB1
:10233B0078207B0070C2EAB50A0040BCC0E01223D3
:10234B00AFD0F0D0E0200304C4C0E0C4B203C0F0AF
:10235B0012213DD0F0D5F0EB02218E122AD5222B83
:10236B005322A55821FC4C21F84222A94F22B144FB
:10237B0022B14922114322B755229B46229B45226B
:10238B009B4724575022002D22042E22272B220854
:10239B002322252024402A21C0480000221F3F3F32
:1023AB003F00790AA2D5200514300709B9100204A1
:1023BB0004B9080104A2D5200802500104200468C6
:1023CB009204B509005034C0E07F203005197F30EE
:1023DB00A20472087207500F122406C204C208C26C
:1023EB0007C20A7F30800F300703E9C0E012215487
:1023FB00300703D0E0F9D0E0B509CC3007177F30B8
:10240B00B9100C1221547F583006077F788003B91E
:10241B0008031221543004057F2D0221547F202004
:10242B000AF87F2B2008F322920480CF286E756C5C
:10243B006C2900D2031221113003F8C20378093042
:10244B00D50108F60221C02D504349581221112401
:10245B0003B405004001E490245293122145743AD1
:10246B00122145D2057509040222A541031510C19D
:10247B000CC18D41030E0041031600C10F440288AD
:10248B00000000006080028C804E0800814E080026
:10249B00824E0800834E0800844E0800854E0800CB
:1024AB00864E0800874E080080A7140081A71400F1
:1024BB0082A7140083A7140084A7120085A712001B
:1024CB0086A7120087A7120080A83C0081A83C00B9
:1024DB0082A83C0083A83C0084A83F0085A83F004D
:1024EB0086A83F0087A83F0080A63C0081A63C0041
:1024FB0082A63C0083A63C0084A63C0085A63C003B
:10250B0086A63C0087A63C0041028600C110410212
:10251B008716628000061107000000000100000012
:10252B0000000000000000000000000010E30000AD
:10253B00849D00000000000000000000000000006F
:10254B000000000000000000000000000000000080
:10255B000000000000000000000000000000000070
:10256B000000000000000000000000000000000060
:10257B000000000000000000FF0000000000000051
:10258B000000000208000000000000000000000036
:10259B0000000000000011CC2180000000000000B2
:1025AB000005FF000000000003F04F454D20434F96
:1025BB00525020202020202020201F00906500005A
:1025CB000000000000000000000000000000313699
:1025DB000000000000361907FFDC437265646F20B2
:1025EB002020202020202020202031383031303472
:1025FB0020200800672420202020202020202020BD
:10260B0020202020202000000000000000000000FF
:10261B0000000000000000000000000000000000AF
:10262B00000000000000000000000000000000009F
:10263B00000000000000000000000000000000008F
:10264B00000000000000000000000000000000007F
:10265B00000000000000000000000000000000006F
:10266B00000000000000000000000000000000005F
:10267B00000000000000000000000000000000004F
:10268B00000000000000000000000000000000003F
:10269B00000000000000000000000000000000002F
:1026AB00000000000000000000000000000000001F
:1026BB00000000000000000000000000000000000F
:1026CB0000000000000000000000000000000000FF
:1026DB0000000000000000000000000000000000EF
:1026EB0000000000000000000000000000000000DF
:1026FB0000000000000000000000000000000000CF
:10270B0000000000000000000000000000000000BE
:10271B000000000000004B00FB0046000000000022
:10272B000000000000008DCC7404875A791800005B
:10273B00000000000000000000000000000000008E
:10274B000000000000005576018E43E2031A17705B
:10275B0005DC157C07D00000000000000000000025
:10276B00000000000000000000000000000000005E
:10277B00000000000000970F0000000000000000A8
:10278B006666777733330F0000000000000000000F
:10279B000000000000004200000000410002004168
:1027AB000003004803A00104080C10182030480354
:1027BB00A8030104000506070200E709F608DFFA83
:1027CB008046E709F208DFFA803E88828C83E709AE
:1027DB00F0A3DFFA8032E309F608DFFA8078E30929
:1027EB00F208DFFA807088828C83E309F0A3DFFAAA
:1027FB00806489828A83E0A3F608DFFA8058898295
:10280B008A83E0A3F208DFFA804C80D280FA80C67C
:10281B0080D4806980F28033801080A680EA809A11
:10282B0080A880DA80E280CA803389828A83ECFABE
:10283B00E493A3C8C582C8CCC583CCF0A3C8C5821A
:10284B00C8CCC583CCDFE9DEE7800D89828A83E4BF
:10285B0093A3F608DFF9ECFAA9F0EDFB2289828A43
:10286B0083ECFAE0A3C8C582C8CCC583CCF0A3C85F
:10287B00C582C8CCC583CCDFEADEE880DB89828ADF
:10288B0083E493A3F208DFF980CC88F0EF60010EAC
:10289B004E60C388F0ED2402B4040050B9F582EB0E
:1028AB002402B4040050AF232345822390281573D0
:1028BB00BB010689828A83E0225002E722BBFE021B
:1028CB00E32289828A83E49322BB010CE58229F5FA
:1028DB0082E5833AF583E0225006E92582F8E62269
:1028EB00BBFE06E92582F8E222E58229F582E58323
:1028FB003AF583E49322BB010689828A83F0225046
:10290B0002F722BBFE01F322A3F8E0C5F025F0F09D
:10291B00E582158270021583E0C838F0E822E88F53
:10292B00F0A4CC8BF0A42CFCE98EF0A42CFC8AF048
:10293B00EDA42CFCEA8EF0A4CDA8F08BF0A42DCC4A
:10294B003825F0FDE98FF0A42CCD35F0FCEB8EF0A3
:10295B00A4FEA9F0EB8FF0A4CFC5F02ECD39FEE489
:10296B003CFCEAA42DCE35F0FDE43CFC2275F008CE
:10297B00758200EF2FFFEE33FECD33CDCC33CCC5BC
:10298B008233C5829BED9AEC99E58298400CF582D7
:10299B00EE9BFEED9AFDEC99FC0FD5F0D6E4CEFB49
:1029AB00E4CDFAE4CCF9A88222B800C1B90059BA37
:1029BB00002DEC8BF084CFCECDFCE5F0CBF9781865
:1029CB00EF2FFFEE33FEED33FDEC33FCEB33FB105F
:1029DB00D703994004EB99FB0FD8E5E4F9FA227879
:1029EB0018EF2FFFEE33FEED33FDEC33FCC933C98B
:1029FB0010D7059BE99A4007EC9BFCE99AF90FD895
:102A0B00E0E4C9FAE4CCFB2275F010EF2FFFEE33B4
:102A1B00FEED33FDCC33CCC833C810D7079BEC9AF3
:102A2B00E899400AED9BFDEC9AFCE899F80FD5F07C
:102A3B00DAE4CDFBE4CCFAE4C8F922C3E49FFFE46B
:102A4B009EFEE49DFDE49CFC22EB9FF5F0EA9E428A
:102A5B00F0E99D42F0E89C45F022E8600FEFC333AC
:102A6B00FFEE33FEED33FDEC33FCD8F122ECF0A39B
:102A7B00EDF0A3EEF0A3EFF022A8828583F0D083D4
:102A8B00D082122A9B122A9B122A9B122A9BE47336
:102A9B00E493A3C583C5F0C583C8C582C8F0A3C59D
:102AAB0083C5F0C583C8C582C822F8E0FBA3A3E0A9
:102ABB00F925F0F0E582158270021583E0FA38F003
:102ACB0022EBF0A3EAF0A3E9F022D083D082F8E462
:102ADB00937012740193700DA3A393F8740193F583
:102AEB00828883E4737402936860EFA3A3A380DFEF
:102AFB00C0E0C0F0C083C082C0D075D000C000C0A1
:102B0B0001C002C003C004C005C006C007A2AF923B
:102B1B000090031BE5A7F075A720E5B9540F1460CF
:102B2B0073147003022BE524FE7003022BF024FABE
:102B3B00605524FE7003022BEA147003022BEA2467
:102B4B00046003022BF353B9F6900000E475F00117
:102B5B00122913FE740625F0F58274003EF583E00E
:102B6B00900319F0E0FF7003A3EFF08FBBC390004D
:102B7B0001E09480900000E094024004E4F0A3F0A4
:102B8B00900003E4F0806153B9F59000027401F0FA
:102B9B00A3F08054E5B930E40553B9EF80379000CA
:102BAB0000E475F001122913FE740625F0F582740A
:102BBB00003EF583E0900319F0E0FFB41102A3F09F
:102BCB008FBBC3900001E09480900000E094024022
:102BDB0004E4F0A3F053B9FE800E53B9FD80095302
:102BEB00B9FB022CFB53B9FBE5AB30E203022CF231
:102BFB00900287E5BCF0900003E0B401EB900287F4
:102C0B00E0645060E3900002E0147037900287E0BC
:102C1B00C39480401E900085E075F080A4FF900265
:102C2B0087E07C002FFEEC35F0900000F0A3CEF097
:102C3B00022CEA900287E0FF900000E4F0A3EFF093
:102C4B00022CEA900287E0FF900000E475F001127D
:102C5B002913FC740625F0F58274003CF583EFF024
:102C6B00C3900001E09480900000E094024004E4E3
:102C7B00F0A3F0900001E024FFFF900000E034FF90
:102C8B00FEEF644E4E7058900287E0C39403504F92
:102C9B00E064029000507022E0FEA3E0FDEDFFC067
:102CAB0006C007A3E0FEA3E0FDEEFCEDD007D006C7
:102CBB0012349A900054E4F08025E0FEA3E0FDED81
:102CCB00FF12343190031CEEF0A3EFF090031CE0E5
:102CDB00FCA3E0FDEC900052F0EDA3F0A3E4F09028
:102CEB000002E4F0022BF353B9DF90031BE0F5A7CE
:102CFB00D007D006D005D004D003D002D001D0002D
:102D0B00D0D0D082D083D0F0D0E032C0E0C083C02E
:102D1B0082C0D075D000C006C007C20130C203020A
:102D2B002DDAE5C054F02480606D24C0602624E0C9
:102D3B006003022DD6900315E025E0F5C253C2FEC9
:102D4B00A20EE43342C2C2C59000057401F090009C
:102D5B0004F0807D30C123200E7790030CE0FF90B0
:102D6B000004E0FED39F501574102EF582E434035B
:102D7B00F583E0F5C29000048039301006D2C4C24E
:102D8B000B804ED2C4D2C5900310E004F070429079
:102D9B00030FE004F0803A900005E0FFC394027447
:102DAB001650152FF582E43403F583E5C2F0D2C13A
:102DBB00900005E004F080192FF582E43403F583CD
:102DCB00E5C2F0C20BC2C1D2C48006D2018002D2CE
:102DDB000130011E53C17F43C180C2C5C2C4C2C1F1
:102DEB00C20BC201900310E004F0700690030FE0D9
:102DFB0004F0C2C0D007D006D0D0D082D083D0E0B0
:102E0B0032900330122A7890033AE5A7F075A72089
:102E1B00900330E0C313FEA3E013FFE4FCFD90032B
:102E2B0034E0F8A3E0F9A3E0FAA3E02FFFEA3EFEBB
:102E3B00ED39FDEC38FC900334A3A3A3E0FB12297E
:102E4B00B4900339EFF0E4900338F0900338E0FFCF
:102E5B00C394084003022EF474A02FF582E43403CC
:102E6B00F583E0FF900339E0FEEFC39E4072E47FF1
:102E7B0002FEFDFC900334E0F8A3E0F9A3E0FAA313
:102E8B00E0FB122929A804A905AA06AB0790033871
:102E9B00E024A0F582E43403F583E0FFE4FCFDFEBF
:102EAB00122929A804A905AA06AB07900330E0FC58
:102EBB00A3E0FDA3E0FEA3E0FF1229B4C3E49FFF50
:102ECB00E49EF596EFF595900338E024A8F582E49F
:102EDB003403F583E04440429490033AE0F5A72293
:102EEB00900338E004F0022E5680FE12003975FF75
:102EFB008000000000000075EF0275D94000787F5C
:102F0B00E4F6D8FD758122022F50023174E493A3AD
:102F1B00F8E493A34003F68001F208DFF48029E480
:102F2B0093A3F85407240CC8C333C4540F4420C8CC
:102F3B00834004F456800146F6DFE4800B01020463
:102F4B000810204080902476E47E019360BCA3FFA0
:102F5B00543F30E509541FFEE493A360010ECF5498
:102F6B00C025E060A840B8E493A3FAE493A3F8E487
:102F7B0093A3C8C582C8CAC583CAF0A3C8C582C8F3
:102F8B00CAC583CADFE9DEE780BEF9E43AFA9003EB
:102F9B0078EBF0A3EAF0A3E9F0A3122A8400000077
:102FAB0000E490037FF090037BE0FCA3E0FDA3E043
:102FBB00FEA3E0FF7808122A6590037B122A789013
:102FCB00037BE0F8A3E0F9A3E0FAA3E0FBC000C0A9
:102FDB0001C002C003900378E0FBA3E0FAA3E0F981
:102FEB0090037FE0F5827583001228D4FFD003D0C5
:102FFB0002D001D000EB4FFFEAFEE9FDE8FC9003A5
:10300B007B122A7890037FE004F0E0B404989003DD
:10301B007BE0FCA3E0FDA3E0FEA3E0FF2290038096
:10302B00EEF0A3EFF0A3ECF0A3EDF0A3EAF0A3EB2B
:10303B00F0A3A3E0FF74017E00A807088005C3334B
:10304B00CE33CED8F924FFFFEE34FFAD07FC90034F
:10305B0084A3E0F9EDAE04A801088005C333CE3399
:10306B00CED8F9F4FFEEF4FE900380E05EF0A3E01F
:10307B005FF0A3E05CFEA3E05DA801088005C3330D
:10308B00CE33CED8F9FF900380E04EFEA3E04FFF86
:10309B00900380EEF0A3EFF022900378EBF0A3EA1D
:1030AB00F0A3E9F0A3ECF0A3EDF0E490037FF0A321
:1030BB00F090037DE0FEA3E0FFA3E0FCA3E0FDC3E3
:1030CB009FEC9E503390037CE02DFF90037BE03C04
:1030DB00FE1234DD900378E0FBA3E475F0011229B6
:1030EB0013A9F0FAEF122901900380E004F070C1EC
:1030FB0090037FE004F080B9900378E0FBA3E0FA43
:10310B00A3E0F92290037AEBF0A3EAF0A3E9F090A5
:10311B000378EEF0A3EFF090037FEEF0A3EFF090C7
:10312B00037DE0FEA3E0FF900379E02FFD90037891
:10313B00E03EFC90037FE0FEA3E0FFC39DEE9C50BE
:10314B002790037AE0FBA3E475F001122913A9F091
:10315B00FA1228BBFD120003900380E004F070BF4D
:10316B0090037FE004F080B72212003E90032B12F5
:10317B002A840001C2007F007EA27D4A7C041233A8
:10318B00B420862A75E340C287E4FFFE0FBF00011F
:10319B000EEFF44E70F6D2873087FDE4FEFF0FBFC3
:1031AB0000010EEF640A4E70F5E4F5E380D31233A1
:1031BB00F4E490030FF0A3F0C2AF75A72053BAFE4F
:1031CB0043BA44D2AF121C657FF40234B990038228
:1031DB00122A8400000000200BFDD20BC20ED2C5B8
:1031EB00300B48900382E0FCA3E0FDA3E0FEA3E0DC
:1031FB002401FFE43EFEE43DFDE43CFC900382121F
:10320B002A78E47FFFFEFDFC900382E0F8A3E0F94F
:10321B00A3E0FAA3E0FBD3122A5440C4900382121A
:10322B002A84000000001232E2C322D322900382D0
:10323B00122A8400000000200BFDD20BD20ED2C547
:10324B00300B48900382E0FCA3E0FDA3E0FEA3E07B
:10325B002401FFE43EFEE43DFDE43CFC90038212BE
:10326B002A78E47FFFFEFDFC900382E0F8A3E0F9EF
:10327B00A3E0FAA3E0FBD3122A5440C490038212BA
:10328B002A84000000001232E2C322D32290037A78
:10329B00ECF0A3EDF0A3EAF0A3EBF0900378EEF0E3
:1032AB00A3EFF0123431C00790037AE0FCA3E0FDEA
:1032BB00A3E0FAA3E0FBA3E0FFA3E0900386CFF02B
:1032CB00A3EFF0D007123028AC06AD07900378E0DF
:1032DB00FEA3E0FF02349A7F0943D50C75F2FF750C
:1032EB00A55FE59030E210AE071FEE600A5390F732
:1032FB00004390080080EB75A55F5390F75390FB4C
:10330B0000439008004390040053D5F375A5505328
:10331B00C17F43C180C2C5C2C4C2C1C20B22C0E0BF
:10332B00C0F0C083C082C0D075D000C000C004C044
:10333B0005C006C007C2EDE5BDAEBE7802CEC31315
:10334B00CE13D8F9FFE4FCFD900288122A78D20F35
:10335B00D007D006D005D004D000D0D0D082D083F7
:10336B00D0F0D0E032C2D5E830E70FB2D5E4C39B42
:10337B00FBE49AFAE499F9E498F8EC30E717B2D544
:10338B001233A61229B4E4C39BFBE49AFAE499F92D
:10339B00E498F880031229B430D50DE4C39FFFE401
:1033AB009EFEE49DFDE49CFC2290032FE5A7F075A7
:1033BB00A72043C812E4F5DA43930CC004C005C040
:1033CB0006C00790032BE0FCA3E0FDA3E0FEA3E007
:1033DB00FF900334122A78D007D006D005D0041200
:1033EB002E0C90032FE0F5A722900327E5A7F012F0
:1033FB0035C61235D01200351235D7123525123598
:10340B00DE1235AF12005612007612353B1235889C
:10341B001235951235E512354B1235A21234F79051
:10342B000327E0F5A722900380EEF0A3EFF09003C3
:10343B000C7402F0900380E0FCA3E0FDEC90031110
:10344B00F0EDA3F01231D812323850E2900317E0AE
:10345B00FEA3E0FDEDFF22A2AF9202ADA7E4F5A71C
:10346B00C2AF75FF8075EF028F828E8375B7A5751E
:10347B00B7F1438F0375FF8075EF02F0538FFCAFED
:10348B00058FA7A20292AF22E4FDFC7F0D7E98ABC5
:10349B0007AA0690030C7404F0EA900311F0EFA353
:1034AB00F0ECA3F0EDA3F01231D850FBD3225388EC
:1034BB00CF5389F0438901438E04EF6012C28C75A0
:1034CB008CE6758AC0C28DD28C308DFD1F80EBC20D
:1034DB008C22A2AF9202ADA7E4F5A7C2AF8F828E6A
:1034EB008393FFAE058EA7A20292AF22E4F5A775D8
:1034FB00E68975F30675A71075EE0175ED02F5A754
:10350B0075A8802290037EE4F0A304F07B0E7A0072
:10351B00FD7C007F617E8402329875B30775B29C87
:10352B0075BB1475DF6C75BC2875B98643E8C12271
:10353B0075A710E59854045398FB439804429822BE
:10354B0075A7207594437596FE7595C843C81022D0
:10355B0075A72053BAFD43BA0275A71053987F3253
:10356B00AEA775A72030C9FD8F92C2C98EA7225373
:10357B00C17F43C18053917FC2C5C20B32E5C0549A
:10358B000453C0FB43C00442C022E4F5A7758E016F
:10359B007589204388402275BD5053BAFB43BA1836
:1035AB0043BA0222E4F5A775A903E5A930E7FB228C
:1035BB00E4F5A7F5A9E5A930E7FB22E4F5A7759794
:1035CB00DE7597AD2275A40275D43F2275E3417564
:1035DB00E1042275A71075C1202253C1FC43C1DD44
:0135EB0022BD
:00000001FF
