:020000040000FA
:10000000022AF75388CF5389F0438901438E04EFC6
:100010006012C28C758CE6758AC0C28DD28C308D10
:10002000FD1F80EBC28C2290010BE5A7F0122E9CE5
:1000300090010BE0F5A72275A565220227A375A7FD
:0F00400010E59854045398FB43980442982222E9
:10005300022D01AF885388AF758C38758A13758D5F
:0F006300F0758B34EF5440FEEF54104E4288225C
:10007300022E4EE59154045391FB43910442912285
:030083000224D183
:10008B00022E2F2054203D20256C642E25642843FE
:10009B0029200A0057722000253034780020000DEB
:1000AB000A00534D42305F4932435F4D61737465B3
:1000BB0072577269746520204552524F522121218B
:1000CB0021212100534D42305F4932435F4D617313
:1000DB007465725265616420204552524F52212142
:1000EB002121212100526420003D3D005468697399
:1000FB002069732061206E657720746573742C20E2
:10010B006E6F772072657365742047452066697240
:10011B007374200D0A00526573657420646F6E65ED
:10012B0021206E6F77206C6F616420667720746F6F
:10013B002047450D0A000D0A30A6CC3F3FA1A43F36
:10014B00A6CC3F61A1EA6F3078253034780D0A00D8
:10015B0030A6CC3F3FA1A43FA6CC3F61A1EA6F30B4
:10016B00782530347800307839383131A6CC3F3FA0
:10017B00A1A43FA6CC3F61A1EA6F3078253034783B
:10018B0000307839663066A6CC3F3FA1A43FA6CCA1
:10019B003F61A1EA6F307825303478000D0A6C6529
:1001AB006E3A3078000D0A656E746572506F696E29
:1001BB00743A3078000D0A7374617274416464721E
:1001CB003A3078004C6F6164204669726D776172CA
:1001DB00652053746172742E2E2E2E2E2E0072619A
:1001EB006D416464723D006D64696F446174613D7F
:1001FB0000636865636B73756D203D0063686563B1
:10020B006B74696D65203D00636865636B73756D19
:10021B00206572726F72212C20746F74616C206573
:10022B0072726F72093D2000636865636B2074689E
:10023B006520726573756C743A0D0A003078393825
:10024B0031342773202076616C75653A004966203E
:10025B00746865726520697320636865636B737579
:10026B006D206572726F722C20746F74616C2065D7
:10027B0072726F7220203D20006C6F616420646588
:10028B006661756C743A20006C6F616420646566FE
:10029B0061756C743A2030783938313827730976A8
:1002AB00616C75653A006C6F6164203235673A207A
:1002BB00004C6F6164204669726D776172652045F1
:1002CB006E642E2E2E2E2E2E004D43552053544150
:1002DB005254204F4B2E2E2E2E2E2E007A687561E7
:1002EB006E666120307800726561643A2000C2ED61
:1002FB000100C7F800000100010000001A580100BE
:10030B00000000000FD000000FD000000FD0000045
:10031B000FD000000FD000000FD000000FD0000056
:10032B000FD000000FD000000FD000000FD0000046
:10033B000FD000000FD000000FD000000000000015
:10034B000000000000000000000001000504000098
:10035B000000000000000000000000000000000092
:10036B00000000000000000000000100059C0100DF
:10037B0006440100066C0400004001F4010000205B
:10038B000004000201F4020000020001FFFC000166
:10039B000006000A000600050005003B001E0001D8
:1003AB00000A000000000000000001000003004BE9
:1003BB000032019005060000000000000000000064
:1003CB0000981000A989100DCBAB1000DCBC1006F7
:1003DB005DCD0000065D000000760000000000000F
:1003EB00021000032F0100000000000103E80200CF
:1003FB000180002006060014000000000000000031
:10040B0000001820010000000173A8211D589C2139
:10041B00FFE0B8640082D4011004A8409805AC84B6
:10042B00FFFFD401B014E2C310009C400001A48470
:10043B000003E0421802D401A010E2842000B8426D
:10044B000008D4017008E29420009DC00000D40184
:10045B00900CD401C018D401481CD40108009E9400
:10046B000004E04410009F00000AAA4E000007C0E1
:10047B0004E0A8760000E16BA048186000008CB780
:10048B00003EA8632DF0A56B0007E16B18008C8B69
:10049B000000E564280010000007A8770000E0A525
:1004AB002002E57228001000000315000000AA4589
:1004BB0000008C63003FE5A4180010000006E084E8
:1004CB001802E56E20001000000315000000A9C4FF
:1004DB0000009F18FFFFBC38000013FFFFE515005D
:1004EB0000009E52FFFFBC32FFFF0C000006A8600D
:1004FB00980407C004D3A882000003FFFFFB9E52A1
:10050B00FFFF9C4200049DCEFFFFBC2EFFFF0C00A3
:10051B000006A860980407C004CAA882000003FF65
:10052B00FFFB9DCEFFFF8521001C84210000844131
:10053B00000485C100088641000C8681001086C12D
:10054B00001487010018440048009C2100209C21C6
:10055B00FFE8D4017008D4014814D4010800D40179
:10056B001004D401900CD401A010A9C30000946E08
:10057B000000BC2300000C000016A4430F00BC229B
:10058B0008001000000E968E00029E400000A4434F
:10059B00F0FFA880FFFFE0629000A8B4000007C046
:1005AB00049F9E520100BC32080013FFFFFBA88082
:1005BB00FFFF03FFFFEF9DCE0004A880FFFF07C0E6
:1005CB000497A8B4000003FFFFEA9DCE0004852129
:1005DB000014842100008441000485C10008864179
:1005EB00000C86810010440048009C2100189CA040
:1005FB0000019C21FFF4E0852008D4011004A843DE
:10060B000000A8609811A8A40000D401480807C0F6
:10061B000483D4010800B4605001D40218089C6014
:10062B000000DC02181A8521000884210000844197
:10063B000004440048009C21000CA4A400079C214A
:10064B00FFF0B8A5000BD40110049CC03800A844DF
:10065B0000009C80004ED4017008D401480CA9C343
:10066B00000007C00783D4010800A4A20008A86EED
:10067B000000BC050000100000039C8000DF9CA064
:10068B00002207C0077B9CC000E28521000C84215F
:10069B0000008441000485C10008440048009C21EF
:1006AB0000109C21FFECD4011004D4017008D4017C
:1006BB004810D4010800D401900CA84300008E43CD
:1006CB0000148CA3000CA6520007E5722800100042
:1006DB000004A9C40000000000059CA5FFFFE5B2C3
:1006EB002800100000039CA50001D802280C8CA246
:1006FB00000CA4A50007A86E0000B8A5000B9C80F9
:10070B00004E07C0075B9CC038008C62000CE423D2
:10071B00900010000015852100108C82001407FF3B
:10072B00FFC7A86E0000A86E00009CA002009CC032
:10073B003F8007C0074F9C800001A862000007FFA5
:10074B00FFACA88E0000B4605001D40218089C6066
:10075B00001EA88E0000D802180E07FFFF2DA862FE
:10076B00000085210010842100008441000485C114
:10077B0000088641000C440048009C2100149C2179
:10078B00FFF0D401480CD4010800D4011004D401AB
:10079B00700899C3001ABC0E00000C0000168521CE
:1007AB00000CB440500184A30008E042280298B723
:1007BB00001CB8420059E48228001000000E85216D
:1007CB00000CA84300001860010007C00806A863CE
:1007DB001A489C600001DC02181A8C62000FBC03E3
:1007EB000000100000048521000CD802700E85213A
:1007FB00000C842100008441000485C100084400E2
:10080B0048009C210010B86300849C21FFF4D401A4
:10081B001004A443000FD4014808BC0200021000CE
:10082B000013D4010800BC02000310000009BC0235
:10083B0000000C00000A1860010007FFFF45A863C9
:10084B0018649C6000050000000FA882000018606F
:10085B00010000000008A86318FC07C002F19C60AF
:10086B0000020000000B8521000818600100A8633E
:10087B0019A407FFFF37150000009C6000059C8042
:10088B00000007C002EA1500000085210008842142
:10089B00000084410004440048009C21000C9C2172
:1008AB00FFF8A48300FFD4014804BC04000010002F
:1008BB000006D401080007C002DA9C6000020000A9
:1008CB00001F8521000407C002D99C60000DA860A1
:1008DB00981007C006C89C80001A07C003C5A86003
:1008EB009818B88B008CA56B000FBC0B0000100088
:1008FB00000CAC64000DE0A01802E0651804BD8389
:10090B00000010000008BC0400009C60000D07C034
:10091B0002C79C8000010000000985210004BC0473
:10092B00000013FFFFEB1500000007C002BD9C6029
:10093B00000D03FFFFE8A86098108421000044001D
:10094B0048009C2100089C21FFF8A89700009CA060
:10095B000042D401480407C0067CD401080085215D
:10096B00000484210000440048009C2100089C21C5
:10097B00FFF4D4011004A443000FD4014808BC2297
:10098B0000011000000CD401080018800100A860C1
:10099B009819A88400F807C0038A948400009C600F
:1009AB00000F07C002A2A8820000000000068521EC
:1009BB0000081860008907C0064CA8636AAF852140
:1009CB0000088421000084410004440048009C215D
:1009DB00000C9C21FFD41860010018800100D40189
:1009EB00100418400100A8631A58A8841F98A84245
:1009FB0000F8D4014828D4010800D4017008D401B0
:100A0B00900CD401A010D401B014D401C018D4019F
:100A1B00D01CD401E02007C003C0D401F02407C0D0
:100A2B0003661500000094620000BC230000100058
:100A3B0000071860010018800100A8630000040083
:100A4B0003BCA8841A58DC0258001AE00100AAF76C
:100A5B000074A860981407C00366A840FFF0E42B4D
:100A6B001000100000061840CFFF07C0035A9C600F
:100A7B00000007BFFE8515000000A842FFFFC14024
:100A8B0010009C800000C1402001186001009DC037
:100A9B00FFFF07C00754A863172C9DCE0001A5CEFE
:100AAB000007B86E0003B84E0006E0431000186054
:100ABB000100A8631D58E042180007C0079FA86EED
:100ACB000000B96B0088BDAB001F100001CBBD4B04
:100ADB000017A64B001FBD52000910000009BD9264
:100AEB00000BBD720008100000D8BC1200021000F1
:100AFB00000C9C80FFFE0000038A15000000100014
:100B0B000388BDB2000C10000104BC1200181000C9
:100B1B00016DA880820000000382150000008C622A
:100B2B0000429EC00001E0632003E2D67008D802A9
:100B3B00184207C0032FA860980FA8609816E16BA6
:100B4B00704807C0032BA64B0001A8609811D80270
:100B5B009010A89600009CA0000007C00330AA8B41
:100B6B0000009062000EBC2300641000000CA47403
:100B7B00FFFFE0637088A4630001BC03000010005A
:100B8B000360A8960000A860981607C003249CA0D9
:100B9B0000009C600000D802180E07C007AAA86EC0
:100BAB000000A56B00FFBC1200001000002CD80247
:100BBB00580F94B700249CC0003FA4A5003FA86E1B
:100BCB00000007C0062B9C80007818600100A88EDF
:100BDB00000007C00704A863182018600100A88E46
:100BEB00000007C00700A86317EC9C800008A86EE4
:100BFB000000D802200E07C0061A9C80004EB96B6D
:100C0B0000128CA2000FB96B005DBC050000A86E32
:100C1B0000001000000CD802580C9CA000009C8017
:100C2B00000107C006139CC0400094570018BC225B
:100C3B000000100000039CA00002A8A20000A86EF8
:100C4B0000009C8000DF9CC0000207C00609150055
:100C5B0000000000006D94970000BC0B000010001A
:100C6B0000319CC0003F94B70024A4A5003FA86EA0
:100C7B0000009C80007807C005FEBA940010186035
:100C8B000100A88E000007C006D7A86318201860C3
:100C9B000100A88E000007C006D3A86317EC9C6068
:100CAB0000059C800008D802180DBD7400001000D0
:100CBB000006D802200E9C6000079C800001D80221
:100CCB00180DD80220108CA2000DA4A50007A86E49
:100CDB000000B8A5000B9C80004E07C005E59CC02A
:100CEB0038008C62000DD802180C94570018BC22E7
:100CFB000000100000039CA00002A8A20000A86E38
:100D0B0000009C8000DF07C005DA9CC00002A86EC3
:100D1B0000009C8000019CA0000003FFFFCC9CC046
:100D2B0040008C62000E9C63FFF6BC43000D10006C
:100D3B00003B18600100B460500184A20004E06322
:100D4B00280294B70010B8630050E4851800100017
:100D5B000032E0B770008CC200139C660012B863BF
:100D6B000002E077180084630000B883005CD402B3
:100D7B0018209C84001AB8840002E0972000848419
:100D8B000000D8029012D4022024A48300FFB86381
:100D9B000004A4E4000FA4840007B8630048D80241
:100DAB00200CD8023814D402182018600100DC0281
:100DBB009018DC029016D805302CA88E000007C0C6
:100DCB000689A86317EC8CA2000C98970022E58586
:100DDB002000100000091500000094B70080A4A5A6
:100DEB00007FA86E0000B8A500079C80000107C01B
:100DFB0005A09CC03F808C82001407FFFE10A86EDC
:100E0B0000009497000007C005A3A86E0000000027
:100E1B0002C41500000018600100A88E000007C076
:100E2B000671A86317889C80001F9C600000D80285
:100E3B00201CD802201D9C800008D802181200002C
:100E4B0002B8D802200E8E820012BC3400001000B3
:100E5B0000079C600010B4605001D40218049C6021
:100E6B000009D802180E9C600010E283A088BC34E5
:100E7B00000010000003150000009E800001A86E0A
:100E8B00000007C005779C800074A56BFFFFBC4B6F
:100E9B000001100000039C6000019C600000A46333
:100EAB0000FFBC230000100000058C62001CBC324C
:100EBB0000091000000815000000D802181EBC43E2
:100ECB00003E0C000005E283A000000000058CA290
:100EDB00001CE283A002D802A01C8CA2001CA86EEE
:100EEB0000009CC0007F9C80004A07C00561A4A540
:100EFB00007FA86E00009C80004907C0056A9CA07B
:100F0B000000A8808B8C07C0055FA86E0000000056
:100F1B000284150000008E8200129C600010E28398
:100F2B00A088BC34000010000003150000009E8058
:100F3B000001A86E000007C0054A9C800074A56BD9
:100F4B00FFFFBC4B0001100000048C62001D000071
:100F5B000006E283A002BC43003E10000004D8024E
:100F6B00181FE283A000D802A01D8CA2001DA86E42
:100F7B0000009C80004CA4A5007F07C0053D9CC0D1
:100F8B00007F8C620012BC430006100000109C8096
:100F9B000078A8A0FFFFA86E000007C005429C8048
:100FAB000049A880888907C00537A86E00008C62AD
:100FBB0000129C630001BC32000C10000259D802D5
:100FCB0018120000003B1860010094B70024A86EB3
:100FDB000000A4A5003F9CC0003F07C005259E4014
:100FEB00000018600100A88E000007C005FEA86372
:100FFB0018208C62001FE40390001000000F9C80EF
:10100B00000007C001B18C62001E8C62001F07C07C
:10101B0001AEAA4B0000A872000007C00182A88B8A
:10102B0000009C80000707C00256A86B00009E4B77
:10103B00FF809C800000A860981607C001EDD402C9
:10104B002020A56B8000BC2B0000100000139C60BF
:10105B000006BDB2004B1000000EBDB200721000B6
:10106B00000C9D600001BDB20087100000099D605F
:10107B000002BDB200CB100000069D600003BD5204
:10108B0000FE100000039D6000059D6000049C6045
:10109B000005E0635802D8021813E0777000D803FC
:1010AB0090409C60000AD802180E18600100A88EB0
:1010BB00000007C005CCA863184800000212186096
:1010CB00010007C004F0A86E00008C620042A86308
:1010DB000001D802184207C00565A86E0000A86E73
:1010EB00000007C0052FAA4B00009477001AE48B71
:1010FB001800100000059E520010BCB2002010001A
:10110B00000915000000A86E00009C8000509CA0F8
:10111B00080007C004D79CC00FFF00000201150098
:10112B0000008C620010BC0300001000002E1500A4
:10113B0000009497000207C004D7A86E0000A8A077
:10114B00E000A8C0F000A86E000007C004C99C8096
:10115B00003B8C620010BC0300001000000D15005A
:10116B0000008C62000FBC230000100000189C6074
:10117B00001A8C82000C9877001EE5641800100092
:10118B000004A86E000007C005F59C8000078C6268
:10119B00000FBC2300001000000D9C60001A8C8215
:1011AB00000C98770020E5641800100000069CA046
:1011BB000022A86E00009C8000DF07C004AD9CC01D
:1011CB0000E2000000099C80001DA88E0000D802E0
:1011DB00180E07FFFC8FA86200000000000415002A
:1011EB0000009C800010D802200EB460500100005B
:1011FB0001CCD40218000C0001C3186001009E4EF4
:10120B0000809EC00003BA5200089F9200139E52AA
:10121B00002A07C00177A87C0000A872000007C055
:10122B000174ABCB00009C80000DA86E000007C0C2
:10123B00048CAB0B0000A86E000007C00501AA8B45
:10124B000000A87C0000AB4B000007C00169A7DEC3
:10125B00000FA56B000FE55E5800100000039C808B
:10126B0000019C800000A48400FFBC24000010003F
:10127B000014BC0B000F100000139ED6FFFFB6C06E
:10128B0050018C62000E9C63FFF086420000A46349
:10129B0000FFE2569002BC43002110000199BA52A4
:1012AB00005018800100B8630002A88416A4E06304
:1012BB0020008463000044001800150000009ED637
:1012CB00FFFFBC36000013FFFFD31500000003FF28
:1012DB00FFEC1500000094770026E4921800100034
:1012EB000189186001009497000207C0046AA86E78
:1012FB000000A86E00009C8000089CA0008007C026
:10130B00045C9CC000F08C62000FBC0300000C005E
:10131B00017AD402B0000000012D9C80001294973A
:10132B000028E492200010000177186001009497C8
:10133B00003C94C20018E0982000E58430001000B7
:10134B0000081500000094770026E49218000C00AA
:10135B000005186001000000016B150000009F00E4
:10136B00000084620024D402B000A483000FB86391
:10137B000044BC24000F0C000014D40218249C64FD
:10138B000014A4B8FFFFE0631800E0E22000E06265
:10139B001800DC0328008C620014D807D030D80763
:1013AB0018348CE20012E5A4380010000003E5B8F5
:1013BB003000D80220121000000415000000DC02DF
:1013CB002818DC02181684820020BC0400001000D0
:1013DB000013BC38000010000009150000008CA29F
:1013EB00001494620016A4A50007A4630007E5454A
:1013FB0018001000000A15000000A484000FA86E4E
:10140B00000007FFFC8ED802201484620020B86312
:10141B0000440000013BD402182095A2002890E262
:10142B0000308C8200129D02002A9CA20031A8CDB4
:10143B0000009DE000009C600001E5A320000C0073
:10144B000013A997000095880000E5AC3000100050
:10145B00000B1500000091650000BD8B0000100013
:10146B000004E54B38001000000515000000A8EB48
:10147B000000A9E30000A8CC00009C6300019D08BC
:10148B00000203FFFFEE9CA500019CA200289D0219
:10149B0000309C600000E42378000C000013BC2497
:1014AB00000396250000956C0038E1715800E58B20
:1014BB003000100000081500000091680000BD8B83
:1014CB00000010000008E5AB380010000007BC243A
:1014DB0000039C6300019CA5000203FFFFEF9D0826
:1014EB000001BC2400031000001A150000001500B9
:1014FB000000BC23000010000016150000009482B1
:10150B00002EE0846802B8A4009FE0852005E084EB
:10151B00280294AC003AE56428001000000D150079
:10152B00000090820031BD840000100000081500FF
:10153B00000090820032BD64000010000005150011
:10154B000000000000039C6000029C600001E06250
:10155B0018008C8200148C630034A4840007D8021A
:10156B0018149C600019D802200C00000007D80248
:10157B00180E9477002AE4921800100000E1150071
:10158B000000D402B000A862000007FFFC46A88E42
:10159B000000000000DC18600100A862000007FFDB
:1015AB00FC78A88E00008C62000FBC23000010009A
:1015BB0000D5186001009E400100A860980F07C07D
:1015CB00008CE2527008E24B9003BC32000010001A
:1015DB0000CC9C800001A86E0000A8B2000007C0E0
:1015EB0003A49CC040009C600001DC029016D80252
:1015FB001815DC02901894970036E06320089C8045
:10160B00001FD402B000D8021811000000BDD80290
:10161B00200EA862000007FFFC5AA88E000007C02E
:10162B000074A860980F9C600100E0637008E16B88
:10163B001803BC2B0000100000B318600100A86E4B
:10164B00000007C003879C800009A56B8000BC2BA2
:10165B000000100000AC1860010094770034E49295
:10166B001800100000A8186001008E42001194624F
:10167B0000169E52FFFFE3181800A65200FFD4027B
:10168B00B000DC02C016BC3200001000009DD80276
:10169B009011A86E000007C003729C800080A86E9A
:1016AB0000009C80000107C0036EAACB000094626F
:1016BB00001694820018E464180010000004150052
:1016CB00000000000007DC0218188C6200159C63F8
:1016DB00FFFFDC029018B863005FD80218159082E8
:1016EB000015BC04000010000009A474007FB8B6FC
:1016FB000010B8A50059E58328000C00000A15005E
:10170B000000000000099CA30001B8AB0012B8A5B3
:10171B000059E54328000C000004A4A5FFFF9CA37F
:10172B00FFFFA4A5FFFFA86E00009C80005F07C011
:10173B0003509CC0007F9CA01000A86E00009C80F2
:10174B00000A07C0034BA8C50000949700369C60A5
:10175B000001E0632008D80218119C600000000013
:10176B000068DC02181694770006E4B2180010002B
:10177B00006415000000A862000007FFFB25A88E7F
:10178B0000009C80001CD402B000D802200EA8627E
:10179B00000007FFFB97A88E00000000005A18609E
:1017AB00010094770004E4B21800100000551500F6
:1017BB000000000000529C60001B9477000EE4B206
:1017CB0018001000004F9C80001B0000004DD80239
:1017DB00200EA862000007FFFB86A88E0000000009
:1017EB0000479C60001B94770008E49218001000DF
:1017FB0000449C8000319C600000D802200EDC026B
:10180B00181A9C6000019497000AE0632008D80224
:10181B0018119477000CE49218001000003A18602D
:10182B0001009462001AE35A18008C820011BB5A13
:10183B0000109C84FFFFD402B000BB5A0090A4841C
:10184B0000FFDC02D01ABC2400001000002DD802CF
:10185B00201194F7000A98770014E0633808E5BA72
:10186B0018001000000B8C62000CBC030000100071
:10187B0000169E4000018CA2000DE485180010009C
:10188B0000129C63FFFF0000000FD802180C98B7E2
:10189B000016E0A53808E57A28001000000B9E40E2
:1018AB000001BC43000510000008150000008CA2CD
:1018BB00000DE445180010000004E0639000D8020E
:1018CB00180CAA4400008C82000C07C00312A86EEF
:1018DB000000BC120000100000089C80001AA862D7
:1018EB000000D802200E07FFFACAA88E00000000E5
:1018FB000005186001009C600030D802180E1860BB
:10190B00010007C0025AA8630038A860981007C0EE
:10191B0002B99C80001A03FFFC629DCE000107C038
:10192B0004DCA86E000003FFFFF718600100A96B31
:10193B00FFFF19000100A9081684E4032000100022
:10194B0000109CA0000494C30000E16B3005B8CBE1
:10195B00004CB96B0004E0C630009CA5FFFFE0C64D
:10196B004000BC25000094C60000E166580513FF3B
:10197B00FFF8A56BFFFF03FFFFF19C630002440020
:10198B0048001500000000008005800F000A801B36
:10199B00001E0014801180330036003C8039002873
:1019AB00802D8027002201000FD4010015FC0100BF
:1019BB00101C010015FC010015FC010015FC0100B9
:1019CB0015FC010015FC010015FC01001270010053
:1019DB0014D001001298010014A00100146401003E
:1019EB0014B801001310010015FC010015FC0100D7
:1019FB0015FC010015FC010015FC010015FC010094
:101A0B0015FC010015FC010015FC010015FC010083
:101A1B0015FC010015FC010015FC010015FC010073
:101A2B0015FC010015FC010014E4010015109810C1
:101A3B00FFFF0000800B9F9F8200810B9F9F820006
:101A4B00820B9F9F8200830B9F9F82009814FFFF46
:101A5B005B5B980C20002000980FFFFF00F09900B3
:101A6B00FFFFFDE09901FFFF21049902FFFF931097
:101A7B009903FFFF4A66981EFFFF85389826FFFFE4
:101A8B0095799827FFFF0000000000F203F002E0B9
:101A9B0000DF00E2000000F9007E004C00F803803C
:101AAB000000003BF00000000078003F0024000B1A
:101ABB009F9F8889006500E000000048FFFFFFFF43
:101ACB000049FFFFFFFF004A0FFF071F004BFFFFFF
:101ADB00FFFF004C1FFF0E9F004D80008000004E4B
:101AEB0038003800004FF000F000000000000050FC
:101AFB000FFF0040003BF0000000004D8000800015
:101B0B00000800F00080000140004000000A1000B7
:101B1B000000006500E00000000B9F9F8298000012
:101B2B0000000048FFFF00800049FFFF0002004C4F
:101B3B001FFF1115004BFFFF0080004A0FFF08BD70
:101B4B00000B9F9F8200000000000081080008002E
:101B5B00000C80000000000C800080000081080059
:101B6B0000000000000088834E058882D80088752D
:101B7B00C6FF6002800088FC523678000000885057
:101B8B00504088A30020854E0000887641828877DC
:101B9B00516688781CBB84760084857600848676B3
:101BAB0000848776008484771882857718828677FD
:101BBB0018828777188284788C3885788C38867869
:101BCB008C3887788C38844E0000874E0000864E08
:101BDB00000060328000601280008863008088649F
:101BEB00808088085ABB880329338802400660220C
:101BFB0080008806A1008805AE820000000088DF07
:101C0B000066888130008887CD7A8886CD7A888572
:101C1B004D7A88848D7A88FC536688884D7A88FE45
:101C2B0080AE88FDB64488FFFDC078080C00731A9F
:101C3B00FF00711AFF00721AFF00701AFF0078097B
:101C4B003A908879886C824E3800814E3800834EEA
:101C5B003800804E3800884D80007806125488EF8B
:101C6B00B6A088FB773678190005781681C088F9FD
:101C7B008B5A88F8B7780007002088F1B00088F0FD
:101C8B0067B488F561E088F7A24699029310990032
:101C9B00FDE0990121048801020188004D058807A8
:101CAB004D7A0000000088DF00668881300088874D
:101CBB00CD7A8886CD7A88854D7A88848D7A780618
:101CCB00125488FB773688FEA5A888FD364488FF1A
:101CDB00FDC078080C00731AFF00711AFF00701A10
:101CEB00FF00721AFF0078093A908879886C814E50
:101CFB003800834E3800824E3800804E3800884DB5
:101D0B00800088EFB6A088884D7A78190005781680
:101D1B0081C088F98BDA88F8B7780007002A88F138
:101D2B00B00088F067B488F561E088F7A2469902A5
:101D3B0093109900FDE099012104880102018800AC
:101D4B004D0588074D7A00000000008BFC00FC005D
:101D5B00008BFC000000000000000000000080A7CA
:101D6B00140081A7140082A7140083A7140084A772
:101D7B00120085A7120086A7120087A7120080A861
:101D8B003C0081A83C0082A83C0083A83C0084A8AE
:101D9B003F0085A83F0086A83F0087A83F0084A688
:101DAB003C0085A63C0086A63C0087A63C0080A094
:101DBB00008081A0008082A0008083A0000084A00E
:101DCB00000085A0008086A0008087A00080844E44
:101DDB002000854E2000864E2000874E200080611B
:101DEB003C20816134208261342083613C208461FA
:101DFB007C208561342086613420876134209F00EC
:101E0B00980D9814E508245BF582E43401F583E022
:101E1B0005082290015830090390015BE475F0012D
:101E2B0012248B02226A2002E97F2ED2028018EF45
:101E3B00540F2490D43440D4FF30060BEF24BFB49E
:101E4B001A0050032461FFE50960021509050CE532
:101E5B000C7002050B30090E900158E475F001125D
:101E6B00248BEF0222B0022E3F7403D2098003E4CD
:101E7B00C209F5089001581224A2E4F509F50BF5F7
:101E8B000CE50960077F20121E5280F5750AFFC210
:101E9B0003C202C204C205C207C208C20A121E1E36
:101EAB00FF700D3009057F00121E63AF0CAE0B22C5
:101EBB00B4255FC2D5C206121E1EFF24D0B40A0081
:101ECB00501A75F00A780930D50508B6FF0106C619
:101EDB00A426F620D5047002D20580D924CFB41ADB
:101EEB0000EF5004C2E5D206022064D20380C6D2B2
:101EFB000280C0D20480BCD2D580BAD20780B47F16
:101F0B0020121E522004077401B5090040F1121E65
:101F1B000FFF121E52021E8CD20AD2088095121E7F
:101F2B000FFB121E0FFA121E0FF94A4B7006793572
:101F3B007A217BFF20042EE509602A7E008E8275B4
:101F4B00830012228360060EEE650A70F0C2D5EB99
:101F5B00C0E0EAC0E0E9C0E0EE1220ABD0E0F9D07F
:101F6B00E0FAD0E0FB12226AFF60AAEBC0E0EAC005
:101F7B00E0E9C0E0121E52D0E02401F9D0E03400B9
:101F8B00FAD0E0FBE50A0460DCD50AD980877BFF39
:101F9B007A2079A7D204809C791080027908C20834
:101FAB00C20A8008D2D5790A8004790AC2D5E50A1B
:101FBB00047002F50AE4FAFDFEFF121E0FFC7B080B
:101FCB00200313121E0FFD7B1030020A121E0FFE90
:101FDB00121E0FFF7B20EC3382D592D55013C3E436
:101FEB003002069FFFE49EFEE42003039DFDE49C6C
:101FFB00FCE4CBF8C203EC700CCFCECDCCE824F8CC
:10200B00F870F38017C3EF33FFEE33FEED33FDECC7
:10201B0033FCEB33FB994002FB0FD8E9EB300305A4
:10202B00F8D0E0C448B203C0E00AEC4D4E4F782024
:10203B007B0070C2EAB50A0040BCC0E01220ADD0F4
:10204B00F0D0E0200304C4C0E0C4B203C0F0121E01
:10205B003BD0F0D5F0EB021E8C1224AB1F29531F83
:10206B00A3581EFA4C1EF6421FA74F1FAF441FAFBB
:10207B00491F0F431FB5551F99461F99451F994778
:10208B002155501EFE2D1F022E1F252B1F06231F11
:10209B002320213E2A1EBE4800001F1D3F3F3F004C
:1020AB00790AA2D5200514300709B910020404B926
:1020BB00080104A2D52008025001042004689204F0
:1020CB00B509005034C0E07F203005197F30A204E1
:1020DB0072087207500F122104C204C208C207C251
:1020EB000A7F30800F300703E9C0E0121E52300721
:1020FB0003D0E0F9D0E0B509CC3007177F30B91029
:10210B000C121E527F583006077F788003B90803E4
:10211B00121E523004057F2D021E527F20200AF81A
:10212B007F2B2008F322920480CF286E756C6C29CC
:10213B0000D203121E0F3003F8C203780930D50109
:10214B0008F6021EBE2D50434958121E0F2403B42D
:10215B0005004001E490215093121E43743A121E65
:10216B0043D205750904021FA3E709F608DFFA80BD
:10217B0046E709F208DFFA803E88828C83E709F094
:10218B00A3DFFA8032E309F608DFFA8078E309F27D
:10219B0008DFFA807088828C83E309F0A3DFFA8072
:1021AB006489828A83E0A3F608DFFA805889828AE1
:1021BB0083E0A3F208DFFA804C80D280FA80C680DD
:1021CB00D4806980F28033801080A680EA809A8068
:1021DB00A880DA80E280CA803389828A83ECFAE4B1
:1021EB0093A3C8C582C8CCC583CCF0A3C8C582C88D
:1021FB00CCC583CCDFE9DEE7800D89828A83E4934B
:10220B00A3F608DFF9ECFAA9F0EDFB2289828A83A9
:10221B00ECFAE0A3C8C582C8CCC583CCF0A3C8C573
:10222B0082C8CCC583CCDFEADEE880DB89828A8377
:10223B00E493A3F208DFF980CC88F0EF60010E4E37
:10224B0060C388F0ED2402B4040050B9F582EB248E
:10225B0002B4040050AF23234582239021C473BBE7
:10226B00010689828A83E0225002E722BBFE02E349
:10227B002289828A83E49322BB010CE58229F582B1
:10228B00E5833AF583E0225006E92582F8E622BB86
:10229B00FE06E92582F8E222E58229F582E5833AFA
:1022AB00F583E49322BB010689828A83F0225002D4
:1022BB00F722BBFE01F322A3F8E0C5F025F0F0E511
:1022CB0082158270021583E0C838F0E822E88FF09F
:1022DB00A4CC8BF0A42CFCE98EF0A42CFC8AF0EDA2
:1022EB00A42CFCEA8EF0A4CDA8F08BF0A42DCC3856
:1022FB0025F0FDE98FF0A42CCD35F0FCEB8EF0A48E
:10230B00FEA9F0EB8FF0A4CFC5F02ECD39FEE43C47
:10231B00FCEAA42DCE35F0FDE43CFC2275F00875EB
:10232B008200EF2FFFEE33FECD33CDCC33CCC58205
:10233B0033C5829BED9AEC99E58298400CF582EEC1
:10234B009BFEED9AFDEC99FC0FD5F0D6E4CEFBE4A9
:10235B00CDFAE4CCF9A88222B800C1B90059BA0071
:10236B002DEC8BF084CFCECDFCE5F0CBF97818EFCC
:10237B002FFFEE33FEED33FDEC33FCEB33FB10D7CD
:10238B0003994004EB99FB0FD8E5E4F9FA2278188E
:10239B00EF2FFFEE33FEED33FDEC33FCC933C910E9
:1023AB00D7059BE99A4007EC9BFCE99AF90FD8E01B
:1023BB00E4C9FAE4CCFB2275F010EF2FFFEE33FEED
:1023CB00ED33FDCC33CCC833C810D7079BEC9AE860
:1023DB0099400AED9BFDEC9AFCE899F80FD5F0DAE1
:1023EB00E4CDFBE4CCFAE4C8F922C3E49FFFE49EFE
:1023FB00FEE49DFDE49CFC22EB9FF5F0EA9E42F08F
:10240B00E99D42F0E89C45F022E8600FECC313FC19
:10241B00ED13FDEE13FEEF13FFD8F122E86010EC85
:10242B00A2E713FCED13FDEE13FEEF13FFD8F02222
:10243B00E8600FEFC333FFEE33FEED33FDEC33FCFF
:10244B00D8F122ECF0A3EDF0A3EEF0A3EFF022A86D
:10245B00828583F0D083D0821224711224711224CE
:10246B0071122471E473E493A3C583C5F0C583C8CB
:10247B00C582C8F0A3C583C5F0C583C8C582C82271
:10248B00F8E0FBA3A3E0F925F0F0E58215827002DA
:10249B001583E0FA38F022EBF0A3EAF0A3E9F0227F
:1024AB00D083D082F8E4937012740193700DA3A3C0
:1024BB0093F8740193F5828883E4737402936860D4
:1024CB00EFA3A3A380DFC0E0C0F0C083C082C0D065
:1024DB0075D000C000C001C002C004C005C006C05A
:1024EB0007A2AF9200C2AFA9A775A720E5B9540FF9
:1024FB0014606714700302259F24FE70030225AA43
:10250B0024FA604924FE70030225A41470030225EB
:10251B00A4240460030225AD53B9F6900000E475C2
:10252B00F0011222C2FE740625F0F58274003EF50E
:10253B0083E0FD7002AC058DBBC3900000E09401FD
:10254B004004E4F0A3F0900003E4F0805553B9F598
:10255B009000027401F0A3F08048E5B930E4055314
:10256B00B9EF802B900000E475F0011222C2FE74CB
:10257B000625F0F58274003EF583E0FDB41101FCF5
:10258B008DBBC3900000E094014004E4F0A3F05332
:10259B00B9FE800E53B9FD800953B9FB0226435394
:1025AB00B9FBE5AB30E203022638900107E5BCF03E
:1025BB00900003E0B401EB900107E0645060E390FE
:1025CB000002E0147035900107E0C39480401D9029
:1025DB000085E075F080A4FF900107E07A002FFEE4
:1025EB00EA35F0900000F0A3CEF08039900107E0BF
:1025FB00FF900000E4F0A3EFF0802A900107E0FFCA
:10260B00900000E475F0011222C2FA740625F0F571
:10261B008274003AF583EFF0C3900000E094014020
:10262B0004E4F0A3F0900002E4F00225AD53B9DF0F
:10263B00AF018FA7A20092AFD007D006D005D00470
:10264B00D002D001D000D0D0D082D083D0F0D0E057
:10265B0032C10CC18D4101860041018E00C10F4476
:10266B0001800000000041010600C1104101071666
:10267B0061000006110506000000000000000000CC
:10268B00000000000000000000000000000000003F
:10269B00000000000000000000000000000000002F
:1026AB00000000000000000000000000000000001F
:1026BB00000000000000000000000000000000000F
:1026CB0000000000000000000000000000000000FF
:1026DB0000000000000000000000000000000000EF
:1026EB0000003800000000000000000000000000A7
:1026FB0000000000110023800070000000000000AB
:10270B0000000000000001084649542000000000B2
:10271B0000000000000000001F00093A3130303289
:10272B0039373131303120202020202031204268B0
:10273B0007D00063020000003532383632303735AF
:10274B003020202020202020313531303133202003
:10275B000000002900000000000000000000000045
:10276B00000000000000000000000000000000005E
:10277B000000000042000000004100020041000385
:10278B00004801910104080C1018203048019903EE
:10279B000104000506070200C0E0C083C082C0D060
:1027AB0075D000C006C007C20130C203022867E51E
:1027BB00C054F02480606D24C0602624E0600302C6
:1027CB00286390018DE025E0F5C253C2FEA20EE412
:1027DB003342C2C2C59000057401F0900004F08032
:1027EB007D30C123200E77900184E0FF900004E040
:1027FB00FED39F501574882EF582E43401F583E0E7
:10280B00F5C29000048039301006D2C4C20B804E42
:10281B00D2C4D2C5900188E004F07042900187E0E9
:10282B0004F0803A900005E0FFC39402748E5015BB
:10283B002FF582E43401F583E5C2F0D2C190000597
:10284B00E004F080192FF582E43401F583E5C2F042
:10285B00C20BC2C1D2C48006D2018002D2013001A8
:10286B001E53C17F43C180C2C5C2C4C2C1C20BC209
:10287B0001900188E004F07006900187E004F0C23B
:10288B00C0D007D006D0D0D082D083D0E032900118
:10289B001412244E90011EE5A7F075A72090011489
:1028AB00E0C313FEA3E013FFE4FCFD900118E0F876
:1028BB00A3E0F9A3E0FAA3E02FFFEA3EFEED39FD1A
:1028CB00EC38FC900118A3A3A3E0FB122363900147
:1028DB001DEFF0E490011CF090011CE0FFC3940885
:1028EB00400302298174912FF582E43401F583E0D2
:1028FB00FF90011DE0FEEFC39E4072E47F02FEFDE0
:10290B00FC900118E0F8A3E0F9A3E0FAA3E0FB12B6
:10291B0022D8A804A905AA06AB0790011CE02491B4
:10292B00F582E43401F583E0FFE4FCFDFE1222D8CE
:10293B00A804A905AA06AB07900114E0FCA3E0FDCF
:10294B00A3E0FEA3E0FF122363C3E49FFFE49EF525
:10295B0096EFF59590011CE02499F582E43401F58E
:10296B0083E04440429490011EE0F5A72290011CA5
:10297B00E004F00228E380FE74FF90010BF0A3F05B
:10298B00E4900111F0A3F0A312245A000000009070
:10299B00012612245A0000000090012A12245A002A
:1029AB00000000783C7C017D017BFF7A1E79097E5B
:1029BB00007F0612224490014212245A00000000AC
:1029CB00900148E4F0A304F0E490014CF0A3F0C2B2
:1029DB0096C295C292C2817BFF7A0079F7121E7A5A
:1029EB007F96120003D2967F96120003D2927F96A7
:1029FB00120003D2957FFA120003D2817BFF7A017A
:102A0B007921121E7A7FFA12000390011B74FFF0DA
:102A1B00A37402F0A374F9F0E4FFFE122A549001A0
:102A2B004CEEF0A3EFF0644C7003EE642060187B67
:102A3B00FF7A01794190014CE0FFA3E090015BCF5D
:102A4B00F0A3EFF0121E7A80FE900154EEF0A3EF8C
:102A5B00F09001847402F090018D7410F090015489
:102A6B00E0FCA3E0FDEC900189F0EDA3F0122BFA52
:102A7B0090018D7410F0122C5A400B7BFF7A007969
:102A8B00CF121E7A80CB90018FE0FEA3E0FDEDFF0D
:102A9B00900156EEF0A3EFF07BFF7A0079F0121E57
:102AAB007A7BFF7A0079A3900154E0FFA3E09001B9
:102ABB005BCFF0A3EFF0121E7A7BFF7A0079F41252
:102ACB001E7A7BFF7A0079A3900156E0FFA3E0907A
:102ADB00015BCFF0A3EFF0121E7A7BFF7A0079AA8D
:102AEB00121E7A900156E0FEA3E0FF2212004E75F3
:102AFB00FF8000000000000075EF0275D9400078E0
:102B0B007FE4F6D8FD758122022B51022B96E493BC
:102B1B00A3F8E493A34003F68001F208DFF48029C5
:102B2B00E493A3F85407240CC8C333C4540F4420B4
:102B3B00C8834004F456800146F6DFE4800B0102A3
:102B4B0004081020408090265CE47E019360BCA3B7
:102B5B00FF543F30E509541FFEE493A360010ECFF1
:102B6B0054C025E060A840B8E493A3FAE493A3F81B
:102B7B00E493A3C8C582C8CAC583CAF0A3C8C582DB
:102B8B00C8CAC583CADFE9DEE780BE120027900101
:102B9B000F12245A0001C2007F007EA27D4A7C04E2
:102BAB00122D8C20862A75E340C287E4FFFE0FBFEF
:102BBB0000010EEFF44E70F6D2873087FDE4FEFF76
:102BCB000FBF00010EEF640A4E70F5E4F5E380D3FE
:102BDB00122DCCE4900187F0A3F0C2AF75A7205360
:102BEB00BAFE43BA44D2AF1229837FF4020003909A
:102BFB00015812245A00000000200BFDD20BC20E0C
:102C0B00D2C5300B48900158E0FCA3E0FDA3E0FED9
:102C1B00A3E02401FFE43EFEE43DFDE43CFC900117
:102C2B005812244EE47FFFFEFDFC900158E0F8A300
:102C3B00E0F9A3E0FAA3E0FBD312240340C4900114
:102C4B005812245A00000000122CBAC322D322902F
:102C5B00015812245A00000000200BFDD20BD20E9B
:102C6B00D2C5300B48900158E0FCA3E0FDA3E0FE79
:102C7B00A3E02401FFE43EFEE43DFDE43CFC9001B7
:102C8B005812244EE47FFFFEFDFC900158E0F8A3A0
:102C9B00E0F9A3E0FAA3E0FBD312240340C49001B4
:102CAB005812245A00000000122CBAC322D3227FE0
:102CBB000943D50C75F2FF75A55FE59030E210AEB8
:102CCB00071FEE600A5390F7004390080080EB75E6
:102CDB00A55F5390F75390FB00439008004390047B
:102CEB000053D5F375A55053C17F43C180C2C5C2F4
:102CFB00C4C2C1C20B22C0E0C0F0C083C082C0D02E
:102D0B0075D000C000C004C005C006C007C2EDE509
:102D1B00BDAEBE7802CEC313CE13D8F9FFE4FCFDD3
:102D2B0090018012244ED20FD007D006D005D004CC
:102D3B00D000D0D0D082D083D0F0D0E032C2D5E852
:102D4B0030E70FB2D5E4C39BFBE49AFAE499F9E4BC
:102D5B0098F8EC30E717B2D5122D7E122363E4C33B
:102D6B009BFBE49AFAE499F9E498F8800312236345
:102D7B0030D50DE4C39FFFE49EFEE49DFDE49CFC77
:102D8B0022900113E5A7F075A72043C812E4F5DAEA
:102D9B0043930CC004C005C006C00790010FE0FCB4
:102DAB00A3E0FDA3E0FEA3E0FF90011812244ED098
:102DBB0007D006D005D004122899900113E0F5A78F
:102DCB002290010BE5A7F0122EA7122EB11200379D
:102DDB00122EB8122E09122EBF122E90120056125E
:102DEB00007612003E122E5C122E69122EC6122E87
:102DFB001F122E76122E8390010BE0F5A72275B3CE
:102E0B000775B29C75BB1475DF6C75BC2875B986DC
:102E1B0043E8C12275A7207594437596FE7595C836
:102E2B0043C8102275A72053BAFD43BA0275A710E9
:102E3B0053987F32AEA775A72030C9FD8F92C2C9B8
:102E4B008EA72253C17F43C18053917FC2C5C20B52
:102E5B0032E5C0540453C0FB43C00442C022E4F526
:102E6B00A7758E017589204388402275BD5053BAD2
:102E7B00FB43BA1843BA0222E4F5A775E68975F34A
:102E8B000675A88022E4F5A775A903E5A930E7FB31
:102E9B0022E4F5A7F5A9E5A930E7FB22E4F5A77530
:102EAB0097DE7597AD2275A40275D43F2275E34169
:102EBB0075E1042275A71075C1202253C1FC43C1D3
:022ECB00DD2206
:00000001FF
