:020000040000FA
:1000000002317EA2AF920BA9A7E4F5A7C2AF75FF9C
:100010008075EF028F828E8375B7A575B7F1438F18
:100020000175FF8075EF02EDF0538FFEAF018FA7D2
:0A003000A20B92AF2275A5652222F3
:10003B00022F9E9002BCE5A7F012390F9002BCE094
:03004B00F5A722F4
:100053000236DFAF885388AF758C38758A13758D78
:0F006300F0758B34EF5440FEEF54104E4288225C
:100073000238C1E59154045391FB43910442912208
:03008300022D85C6
:10008B000238A22054203D20256C642E2564284381
:10009B0029200A0057722000253034780020000DEB
:1000AB000A00534D42305F4932435F4D61737465B3
:1000BB0072577269746520204552524F522121218B
:1000CB0021212100534D42305F4932435F4D617313
:1000DB007465725265616420204552524F52212142
:1000EB002121212100526420003D3D005468697399
:1000FB002069732061206E657720746573742C20E2
:10010B006E6F772072657365742047452066697240
:10011B007374200D0A00526573657420646F6E65ED
:10012B0021206E6F77206C6F616420667720746F6F
:10013B002047450D0A000D0A2041646472657373F4
:10014B00203027732076616C7565206572726F7233
:10015B003A20203078253034780D0A000D0A2041E2
:10016B0064647265737320307839383131202773AA
:10017B002076616C7565206572726F723A203078EB
:10018B00253034780D0A0030A6CC3F3FA1A43FA602
:10019B00CC3F61A1EA6F3078253034780030783964
:1001AB00383131A6CC3F3FA1A43FA6CC3F61A1EA99
:1001BB006F30782530347800307839663066A6CCCD
:1001CB003F3FA1A43FA6CC3F61A1EA6F3078253019
:1001DB003478000D0A6C656E3A3078000D0A656E46
:1001EB00746572506F696E743A3078000D0A7374CF
:1001FB00617274416464723A3078004D43552053F8
:10020B0054415254204F4B2E2E2E2E2E2E00C2ED2B
:10021B000100C7F800000100010000001A5801009E
:10022B00000000000FD000000FD000000FD0000026
:10023B000FD000000FD000000FD000000FD0000037
:10024B000FD000000FD000000FD000000FD0000027
:10025B000FD000000FD000000FD0000000000000F6
:10026B000000000000000000000001000504000079
:10027B000000000000000000000000000000000073
:10028B00000000000000000000000100059C0100C0
:10029B0006440100066C0400004001F4010000203C
:1002AB000004000201F4020000020001FFFC000147
:1002BB000006000A000600050005003B001E0001B9
:1002CB00000A000000000000000001000003004BCA
:1002DB000032019005060000000000000000000045
:1002EB0000981000A989100DCBAB1000DCBC1006D8
:1002FB005DCD0000065D00000076000000000000F0
:10030B00021000032F0100000000000103E80200AF
:10031B000180002006060014000000000000000011
:10032B0000001820010000000173A8211D589C211A
:10033B00FFE0B8640082D4011004A8409805AC8497
:10034B00FFFFD401B014E2C310009C400001A48451
:10035B000003E0421802D401A010E2842000B8424E
:10036B000008D4017008E29420009DC00000D40165
:10037B00900CD401C018D401481CD40108009E94E1
:10038B000004E04410009F00000AAA4E000007C0C2
:10039B0004E0A8760000E16BA048186000008CB761
:1003AB00003EA8632DF0A56B0007E16B18008C8B4A
:1003BB000000E564280010000007A8770000E0A506
:1003CB002002E57228001000000315000000AA456A
:1003DB0000008C63003FE5A4180010000006E084C9
:1003EB001802E56E20001000000315000000A9C4E0
:1003FB0000009F18FFFFBC38000013FFFFE515003E
:10040B0000009E52FFFFBC32FFFF0C000006A860ED
:10041B00980407C004D3A882000003FFFFFB9E5281
:10042B00FFFF9C4200049DCEFFFFBC2EFFFF0C0084
:10043B000006A860980407C004CAA882000003FF46
:10044B00FFFB9DCEFFFF8521001C84210000844112
:10045B00000485C100088641000C8681001086C10E
:10046B00001487010018440048009C2100209C21A7
:10047B00FFE8D4017008D4014814D4010800D4015A
:10048B001004D401900CD401A010A9C30000946EE9
:10049B000000BC2300000C000016A4430F00BC227C
:1004AB0008001000000E968E00029E400000A44330
:1004BB00F0FFA880FFFFE0629000A8B4000007C027
:1004CB00049F9E520100BC32080013FFFFFBA88063
:1004DB00FFFF03FFFFEF9DCE0004A880FFFF07C0C7
:1004EB000497A8B4000003FFFFEA9DCE000485210A
:1004FB000014842100008441000485C1000886415A
:10050B00000C86810010440048009C2100189CA020
:10051B0000019C21FFF4E0852008D4011004A843BE
:10052B000000A8609811A8A40000D401480807C0D7
:10053B000483D4010800B4605001D40218089C60F5
:10054B000000DC02181A8521000884210000844178
:10055B000004440048009C21000CA4A400079C212B
:10056B00FFF0B8A5000BD40110049CC03800A844C0
:10057B0000009C80004ED4017008D401480CA9C324
:10058B00000007C00783D4010800A4A20008A86ECE
:10059B000000BC050000100000039C8000DF9CA045
:1005AB00002207C0077B9CC000E28521000C842140
:1005BB0000008441000485C10008440048009C21D0
:1005CB0000109C21FFECD4011004D4017008D4015D
:1005DB004810D4010800D401900CA84300008E43AE
:1005EB0000148CA3000CA6520007E5722800100023
:1005FB000004A9C40000000000059CA5FFFFE5B2A4
:10060B002800100000039CA50001D802280C8CA226
:10061B00000CA4A50007A86E0000B8A5000B9C80D9
:10062B00004E07C0075B9CC038008C62000CE423B3
:10063B00900010000015852100108C82001407FF1C
:10064B00FFC7A86E0000A86E00009CA002009CC013
:10065B003F8007C0074F9C800001A862000007FF86
:10066B00FFACA88E0000B4605001D40218089C6047
:10067B00001EA88E0000D802180E07FFFF2DA862DF
:10068B00000085210010842100008441000485C1F5
:10069B0000088641000C440048009C2100149C215A
:1006AB00FFF0D401480CD4010800D4011004D4018C
:1006BB00700899C3001ABC0E00000C0000168521AF
:1006CB00000CB440500184A30008E042280298B704
:1006DB00001CB8420059E48228001000000E85214E
:1006EB00000CA84300001860010007C00806A863AF
:1006FB001A489C600001DC02181A8C62000FBC03C4
:10070B000000100000048521000CD802700E85211A
:10071B00000C842100008441000485C100084400C2
:10072B0048009C210010B86300849C21FFF4D40185
:10073B001004A443000FD4014808BC0200021000AF
:10074B000013D4010800BC02000310000009BC0216
:10075B0000000C00000A1860010007FFFF45A863AA
:10076B0018649C6000050000000FA8820000186050
:10077B00010000000008A86318FC07C002F19C6090
:10078B0000020000000B8521000818600100A8631F
:10079B0019A407FFFF37150000009C6000059C8023
:1007AB00000007C002EA1500000085210008842123
:1007BB00000084410004440048009C21000C9C2153
:1007CB00FFF8A48300FFD4014804BC040000100010
:1007DB000006D401080007C002DA9C60000200008A
:1007EB00001F8521000407C002D99C60000DA86082
:1007FB00981007C006C89C80001A07C003C5A860E4
:10080B009818B88B008CA56B000FBC0B0000100068
:10081B00000CAC64000DE0A01802E0651804BD8369
:10082B00000010000008BC0400009C60000D07C015
:10083B0002C79C8000010000000985210004BC0454
:10084B00000013FFFFEB1500000007C002BD9C600A
:10085B00000D03FFFFE8A8609810842100004400FE
:10086B0048009C2100089C21FFF8A89700009CA041
:10087B000042D401480407C0067CD401080085213E
:10088B00000484210000440048009C2100089C21A6
:10089B00FFF4D4011004A443000FD4014808BC2278
:1008AB0000011000000CD401080018800100A860A2
:1008BB009819A88400F807C0038A948400009C60F0
:1008CB00000F07C002A2A8820000000000068521CD
:1008DB0000081860008907C0064CA8636AAF852121
:1008EB0000088421000084410004440048009C213E
:1008FB00000C9C21FFD41860010018800100D4016A
:10090B00100418400100A8631A58A8841F98A84225
:10091B0000F8D4014828D4010800D4017008D40190
:10092B00900CD401A010D401B014D401C018D40180
:10093B00D01CD401E02007C003C0D401F02407C0B1
:10094B0003661500000094620000BC230000100039
:10095B0000071860010018800100A8630000040064
:10096B0003BCA8841A58DC0258001AE00100AAF74D
:10097B000074A860981407C00366A840FFF0E42B2E
:10098B001000100000061840CFFF07C0035A9C60F0
:10099B00000007BFFE8515000000A842FFFFC14005
:1009AB0010009C800000C1402001186001009DC018
:1009BB00FFFF07C00754A863172C9DCE0001A5CEDF
:1009CB000007B86E0003B84E0006E0431000186035
:1009DB000100A8631D58E042180007C0079FA86ECE
:1009EB000000B96B0088BDAB001F100001CBBD4BE5
:1009FB000017A64B001FBD52000910000009BD9245
:100A0B00000BBD720008100000D8BC1200021000D1
:100A1B00000C9C80FFFE0000038A150000001000F4
:100A2B000388BDB2000C10000104BC1200181000AA
:100A3B00016DA880820000000382150000008C620B
:100A4B0000429EC00001E0632003E2D67008D8028A
:100A5B00184207C0032FA860980FA8609816E16B87
:100A6B00704807C0032BA64B0001A8609811D80251
:100A7B009010A89600009CA0000007C00330AA8B22
:100A8B0000009062000EBC2300641000000CA474E4
:100A9B00FFFFE0637088A4630001BC03000010003B
:100AAB000360A8960000A860981607C003249CA0BA
:100ABB0000009C600000D802180E07C007AAA86EA1
:100ACB000000A56B00FFBC1200001000002CD80228
:100ADB00580F94B700249CC0003FA4A5003FA86EFC
:100AEB00000007C0062B9C80007818600100A88EC0
:100AFB00000007C00704A863182018600100A88E27
:100B0B00000007C00700A86317EC9C800008A86EC4
:100B1B000000D802200E07C0061A9C80004EB96B4D
:100B2B0000128CA2000FB96B005DBC050000A86E13
:100B3B0000001000000CD802580C9CA000009C80F8
:100B4B00000107C006139CC0400094570018BC223C
:100B5B000000100000039CA00002A8A20000A86ED9
:100B6B0000009C8000DF9CC0000207C00609150036
:100B7B0000000000006D94970000BC0B00001000FB
:100B8B0000319CC0003F94B70024A4A5003FA86E81
:100B9B0000009C80007807C005FEBA940010186016
:100BAB000100A88E000007C006D7A86318201860A4
:100BBB000100A88E000007C006D3A86317EC9C6049
:100BCB0000059C800008D802180DBD7400001000B1
:100BDB000006D802200E9C6000079C800001D80202
:100BEB00180DD80220108CA2000DA4A50007A86E2A
:100BFB000000B8A5000B9C80004E07C005E59CC00B
:100C0B0038008C62000DD802180C94570018BC22C7
:100C1B000000100000039CA00002A8A20000A86E18
:100C2B0000009C8000DF07C005DA9CC00002A86EA4
:100C3B0000009C8000019CA0000003FFFFCC9CC027
:100C4B0040008C62000E9C63FFF6BC43000D10004D
:100C5B00003B18600100B460500184A20004E06303
:100C6B00280294B70010B8630050E48518001000F8
:100C7B000032E0B770008CC200139C660012B863A0
:100C8B000002E077180084630000B883005CD40294
:100C9B0018209C84001AB8840002E09720008484FA
:100CAB000000D8029012D4022024A48300FFB86362
:100CBB000004A4E4000FA4840007B8630048D80222
:100CCB00200CD8023814D402182018600100DC0262
:100CDB009018DC029016D805302CA88E000007C0A7
:100CEB000689A86317EC8CA2000C98970022E58567
:100CFB002000100000091500000094B70080A4A587
:100D0B00007FA86E0000B8A500079C80000107C0FB
:100D1B0005A09CC03F808C82001407FFFE10A86EBC
:100D2B0000009497000007C005A3A86E0000000008
:100D3B0002C41500000018600100A88E000007C057
:100D4B000671A86317889C80001F9C600000D80266
:100D5B00201CD802201D9C800008D802181200000D
:100D6B0002B8D802200E8E820012BC340000100094
:100D7B0000079C600010B4605001D40218049C6002
:100D8B000009D802180E9C600010E283A088BC34C6
:100D9B00000010000003150000009E800001A86EEB
:100DAB00000007C005779C800074A56BFFFFBC4B50
:100DBB000001100000039C6000019C600000A46314
:100DCB0000FFBC230000100000058C62001CBC322D
:100DDB0000091000000815000000D802181EBC43C3
:100DEB00003E0C000005E283A000000000058CA271
:100DFB00001CE283A002D802A01C8CA2001CA86ECF
:100E0B0000009CC0007F9C80004A07C00561A4A520
:100E1B00007FA86E00009C80004907C0056A9CA05B
:100E2B000000A8808B8C07C0055FA86E0000000037
:100E3B000284150000008E8200129C600010E28379
:100E4B00A088BC34000010000003150000009E8039
:100E5B000001A86E000007C0054A9C800074A56BBA
:100E6B00FFFFBC4B0001100000048C62001D000052
:100E7B000006E283A002BC43003E10000004D8022F
:100E8B00181FE283A000D802A01D8CA2001DA86E23
:100E9B0000009C80004CA4A5007F07C0053D9CC0B2
:100EAB00007F8C620012BC430006100000109C8077
:100EBB000078A8A0FFFFA86E000007C005429C8029
:100ECB000049A880888907C00537A86E00008C628E
:100EDB0000129C630001BC32000C10000259D802B6
:100EEB0018120000003B1860010094B70024A86E94
:100EFB000000A4A5003F9CC0003F07C005259E40F5
:100F0B00000018600100A88E000007C005FEA86352
:100F1B0018208C62001FE40390001000000F9C80CF
:100F2B00000007C001B18C62001E8C62001F07C05D
:100F3B0001AEAA4B0000A872000007C00182A88B6B
:100F4B0000009C80000707C00256A86B00009E4B58
:100F5B00FF809C800000A860981607C001EDD402AA
:100F6B002020A56B8000BC2B0000100000139C60A0
:100F7B000006BDB2004B1000000EBDB20072100097
:100F8B00000C9D600001BDB20087100000099D6040
:100F9B000002BDB200CB100000069D600003BD52E5
:100FAB0000FE100000039D6000059D6000049C6026
:100FBB000005E0635802D8021813E0777000D803DD
:100FCB0090409C60000AD802180E18600100A88E91
:100FDB00000007C005CCA863184800000212186077
:100FEB00010007C004F0A86E00008C620042A863E9
:100FFB000001D802184207C00565A86E0000A86E54
:10100B00000007C0052FAA4B00009477001AE48B51
:10101B001800100000059E520010BCB200201000FA
:10102B00000915000000A86E00009C8000509CA0D9
:10103B00080007C004D79CC00FFF00000201150079
:10104B0000008C620010BC0300001000002E150085
:10105B0000009497000207C004D7A86E0000A8A058
:10106B00E000A8C0F000A86E000007C004C99C8077
:10107B00003B8C620010BC0300001000000D15003B
:10108B0000008C62000FBC230000100000189C6055
:10109B00001A8C82000C9877001EE5641800100073
:1010AB000004A86E000007C005F59C8000078C6249
:1010BB00000FBC2300001000000D9C60001A8C82F6
:1010CB00000C98770020E5641800100000069CA027
:1010DB000022A86E00009C8000DF07C004AD9CC0FE
:1010EB0000E2000000099C80001DA88E0000D802C1
:1010FB00180E07FFFC8FA86200000000000415000B
:10110B0000009C800010D802200EB460500100003B
:10111B0001CCD40218000C0001C3186001009E4ED4
:10112B0000809EC00003BA5200089F9200139E528B
:10113B00002A07C00177A87C0000A872000007C036
:10114B000174ABCB00009C80000DA86E000007C0A3
:10115B00048CAB0B0000A86E000007C00501AA8B26
:10116B000000A87C0000AB4B000007C00169A7DEA4
:10117B00000FA56B000FE55E5800100000039C806C
:10118B0000019C800000A48400FFBC240000100020
:10119B000014BC0B000F100000139ED6FFFFB6C04F
:1011AB0050018C62000E9C63FFF086420000A4632A
:1011BB0000FFE2569002BC43002110000199BA5285
:1011CB00005018800100B8630002A88416A4E063E5
:1011DB0020008463000044001800150000009ED618
:1011EB00FFFFBC36000013FFFFD31500000003FF09
:1011FB00FFEC1500000094770026E4921800100015
:10120B000189186001009497000207C0046AA86E58
:10121B000000A86E00009C8000089CA0008007C006
:10122B00045C9CC000F08C62000FBC0300000C003F
:10123B00017AD402B0000000012D9C80001294971B
:10124B000028E492200010000177186001009497A9
:10125B00003C94C20018E0982000E5843000100098
:10126B0000081500000094770026E49218000C008B
:10127B000005186001000000016B150000009F00C5
:10128B00000084620024D402B000A483000FB86372
:10129B000044BC24000F0C000014D40218249C64DE
:1012AB000014A4B8FFFFE0631800E0E22000E06246
:1012BB001800DC0328008C620014D807D030D80744
:1012CB0018348CE20012E5A4380010000003E5B8D6
:1012DB003000D80220121000000415000000DC02C0
:1012EB002818DC02181684820020BC0400001000B1
:1012FB000013BC38000010000009150000008CA280
:10130B00001494620016A4A50007A4630007E5452A
:10131B0018001000000A15000000A484000FA86E2E
:10132B00000007FFFC8ED802201484620020B863F3
:10133B0000440000013BD402182095A2002890E243
:10134B0000308C8200129D02002A9CA20031A8CD95
:10135B0000009DE000009C600001E5A320000C0054
:10136B000013A997000095880000E5AC3000100031
:10137B00000B1500000091650000BD8B00001000F4
:10138B000004E54B38001000000515000000A8EB29
:10139B000000A9E30000A8CC00009C6300019D089D
:1013AB00000203FFFFEE9CA500019CA200289D02FA
:1013BB0000309C600000E42378000C000013BC2478
:1013CB00000396250000956C0038E1715800E58B01
:1013DB003000100000081500000091680000BD8B64
:1013EB00000010000008E5AB380010000007BC241B
:1013FB0000039C6300019CA5000203FFFFEF9D0807
:10140B000001BC2400031000001A15000000150099
:10141B000000BC2300001000001615000000948291
:10142B00002EE0846802B8A4009FE0852005E084CC
:10143B00280294AC003AE56428001000000D15005A
:10144B00000090820031BD840000100000081500E0
:10145B00000090820032BD640000100000051500F2
:10146B000000000000039C6000029C600001E06231
:10147B0018008C8200148C630034A4840007D802FB
:10148B0018149C600019D802200C00000007D80229
:10149B00180E9477002AE4921800100000E1150052
:1014AB000000D402B000A862000007FFFC46A88E23
:1014BB000000000000DC18600100A862000007FFBC
:1014CB00FC78A88E00008C62000FBC23000010007B
:1014DB0000D5186001009E400100A860980F07C05E
:1014EB00008CE2527008E24B9003BC3200001000FB
:1014FB0000CC9C800001A86E0000A8B2000007C0C1
:10150B0003A49CC040009C600001DC029016D80232
:10151B001815DC02901894970036E06320089C8025
:10152B00001FD402B000D8021811000000BDD80271
:10153B00200EA862000007FFFC5AA88E000007C00F
:10154B000074A860980F9C600100E0637008E16B69
:10155B001803BC2B0000100000B318600100A86E2C
:10156B00000007C003879C800009A56B8000BC2B83
:10157B000000100000AC1860010094770034E49276
:10158B001800100000A8186001008E420011946230
:10159B0000169E52FFFFE3181800A65200FFD4025C
:1015AB00B000DC02C016BC3200001000009DD80257
:1015BB009011A86E000007C003729C800080A86E7B
:1015CB0000009C80000107C0036EAACB0000946250
:1015DB00001694820018E464180010000004150033
:1015EB00000000000007DC0218188C6200159C63D9
:1015FB00FFFFDC029018B863005FD80218159082C9
:10160B000015BC04000010000009A474007FB8B6DC
:10161B000010B8A50059E58328000C00000A15003E
:10162B000000000000099CA30001B8AB0012B8A594
:10163B000059E54328000C000004A4A5FFFF9CA360
:10164B00FFFFA4A5FFFFA86E00009C80005F07C0F2
:10165B0003509CC0007F9CA01000A86E00009C80D3
:10166B00000A07C0034BA8C50000949700369C6086
:10167B000001E0632008D80218119C6000000000F4
:10168B000068DC02181694770006E4B2180010000C
:10169B00006415000000A862000007FFFB25A88E60
:1016AB0000009C80001CD402B000D802200EA8625F
:1016BB00000007FFFB97A88E00000000005A18607F
:1016CB00010094770004E4B21800100000551500D7
:1016DB000000000000529C60001B9477000EE4B2E7
:1016EB0018001000004F9C80001B0000004DD8021A
:1016FB00200EA862000007FFFB86A88E00000000EA
:10170B0000479C60001B94770008E49218001000BF
:10171B0000449C8000319C600000D802200EDC024B
:10172B00181A9C6000019497000AE0632008D80205
:10173B0018119477000CE49218001000003A18600E
:10174B0001009462001AE35A18008C820011BB5AF4
:10175B0000109C84FFFFD402B000BB5A0090A484FD
:10176B0000FFDC02D01ABC2400001000002DD802B0
:10177B00201194F7000A98770014E0633808E5BA53
:10178B0018001000000B8C62000CBC030000100052
:10179B0000169E4000018CA2000DE485180010007D
:1017AB0000129C63FFFF0000000FD802180C98B7C3
:1017BB000016E0A53808E57A28001000000B9E40C3
:1017CB000001BC43000510000008150000008CA2AE
:1017DB00000DE445180010000004E0639000D802EF
:1017EB00180CAA4400008C82000C07C00312A86ED0
:1017FB000000BC120000100000089C80001AA862B8
:10180B000000D802200E07FFFACAA88E00000000C5
:10181B000005186001009C600030D802180E18609B
:10182B00010007C0025AA8630038A860981007C0CF
:10183B0002B99C80001A03FFFC629DCE000107C019
:10184B0004DCA86E000003FFFFF718600100A96B12
:10185B00FFFF19000100A9081684E4032000100003
:10186B0000109CA0000494C30000E16B3005B8CBC2
:10187B00004CB96B0004E0C630009CA5FFFFE0C62E
:10188B004000BC25000094C60000E166580513FF1C
:10189B00FFF8A56BFFFF03FFFFF19C630002440001
:1018AB0048001500000000008005800F000A801B17
:1018BB00001E0014801180330036003C8039002854
:1018CB00802D8027002201000FD4010015FC0100A0
:1018DB00101C010015FC010015FC010015FC01009A
:1018EB0015FC010015FC010015FC01001270010034
:1018FB0014D001001298010014A00100146401001F
:10190B0014B801001310010015FC010015FC0100B7
:10191B0015FC010015FC010015FC010015FC010074
:10192B0015FC010015FC010015FC010015FC010064
:10193B0015FC010015FC010015FC010015FC010054
:10194B0015FC010015FC010014E4010015109810A2
:10195B00FFFF0000800B9F9F8200810B9F9F8200E7
:10196B00820B9F9F8200830B9F9F82009814FFFF27
:10197B005B5B980C20002000980FFFFF00F0990094
:10198B00FFFFFDE09901FFFF21049902FFFF931078
:10199B009903FFFF4A66981EFFFF85389826FFFFC5
:1019AB0095799827FFFF0000000000F203F002E09A
:1019BB0000DF00E2000000F9007E004C00F803801D
:1019CB000000003BF00000000078003F0024000BFB
:1019DB009F9F8889006500E000000048FFFFFFFF24
:1019EB000049FFFFFFFF004A0FFF071F004BFFFFE0
:1019FB00FFFF004C1FFF0E9F004D80008000004E2C
:101A0B0038003800004FF000F000000000000050DC
:101A1B000FFF0040003BF0000000004D80008000F5
:101A2B00000800F00080000140004000000A100098
:101A3B000000006500E00000000B9F9F82980000F3
:101A4B0000000048FFFF00800049FFFF0002004C30
:101A5B001FFF1115004BFFFF0080004A0FFF08BD51
:101A6B00000B9F9F8200000000000081080008000F
:101A7B00000C80000000000C80008000008108003A
:101A8B0000000000000088834E058882D80088750E
:101A9B00C6FF6002800088FC523678000000885038
:101AAB00504088A30020854E0000887641828877BD
:101ABB00516688781CBB8476008485760084867694
:101ACB0000848776008484771882857718828677DE
:101ADB0018828777188284788C3885788C3886784A
:101AEB008C3887788C38844E0000874E0000864EE9
:101AFB000000603280006012800088630080886480
:101B0B00808088085ABB88032933880240066022EC
:101B1B0080008806A1008805AE820000000088DFE7
:101B2B000066888130008887CD7A8886CD7A888553
:101B3B004D7A88848D7A88FC536688884D7A88FE26
:101B4B0080AE88FDB64488FFFDC078080C00731A80
:101B5B00FF00711AFF00721AFF00701AFF0078095C
:101B6B003A908879886C824E3800814E3800834ECB
:101B7B003800804E3800884D80007806125488EF6C
:101B8B00B6A088FB773678190005781681C088F9DE
:101B9B008B5A88F8B7780007002088F1B00088F0DE
:101BAB0067B488F561E088F7A24699029310990013
:101BBB00FDE0990121048801020188004D05880789
:101BCB004D7A0000000088DF00668881300088872E
:101BDB00CD7A8886CD7A88854D7A88848D7A7806F9
:101BEB00125488FB773688FEA5A888FD364488FFFB
:101BFB00FDC078080C00731AFF00711AFF00701AF1
:101C0B00FF00721AFF0078093A908879886C814E30
:101C1B003800834E3800824E3800804E3800884D95
:101C2B00800088EFB6A088884D7A78190005781661
:101C3B0081C088F98BDA88F8B7780007002A88F119
:101C4B00B00088F067B488F561E088F7A246990286
:101C5B0093109900FDE0990121048801020188008D
:101C6B004D0588074D7A00000000008BFC00FC003E
:101C7B00008BFC000000000000000000000080A7AB
:101C8B00140081A7140082A7140083A7140084A753
:101C9B00120085A7120086A7120087A7120080A842
:101CAB003C0081A83C0082A83C0083A83C0084A88F
:101CBB003F0085A83F0086A83F0087A83F0084A669
:101CCB003C0085A63C0086A63C0087A63C0080A075
:101CDB00008081A0008082A0008083A0000084A0EF
:101CEB00000085A0008086A0008087A00080844E25
:101CFB002000854E2000864E2000874E20008061FC
:101D0B003C20816134208261342083613C208461DA
:101D1B007C208561342086613420876134209F00CC
:101D2B00980D981474FF9002BCF0A3F0E49002C2DB
:101D3B00F0A3F0A3122D0E000000009002D7122D7D
:101D4B000E000000009002DB122D0E000000007848
:101D5B00ED7C027D017BFF7A1D79297E007F0612C7
:101D6B002B0C9002F3122D0E000000009002F9E4F0
:101D7B00F0A304F0E49002FDF0A3F0C296C295C26A
:101D8B0092C2817BFF7A0079F71223F37F96123888
:101D9B0018D2967F96123818D2927F96123818D294
:101DAB00957FFA123818D2817BFF7A0179211223A1
:101DBB00F37FFA1238189002CC74FFF0A37402F080
:101DCB00A37419F0E4FFFE1232B49002FDEEF0A3FF
:101DDB00EFF0644C7003EE642060187BFF7A01799E
:101DEB00419002FDE0FFA3E0900320CFF0A3EFF0C2
:101DFB001223F37DCD7CAB7F117E981232247F11A1
:101E0B007E981232B49002FDEEF0A3EFF064CD7029
:101E1B0003EE64AB60187BFF7A0179679002FDE0FB
:101E2B00FFA3E0900320CFF0A3EFF01223F3900277
:101E3B00CCE0FBA3E0FAA3E0240C12334B9002C8D6
:101E4B00122D027BFF7A0179DE1223F39002C8E098
:101E5B00FCA3E0FDA3E0FEA3E0FF7810122CDC90C6
:101E6B0002BEEEF0A3EFF09002C8E0FCA3E0FDA3EE
:101E7B00E0FEA3E0FF9002C0EEF0A3EFF07BFF7A51
:101E8B000079A39002BEE0FFA3E0900320CFF0A364
:101E9B00EFF01223F37BFF7A0079A39002C0E0FFEF
:101EAB00A3E0900320CFF0A3EFF01223F37BFF7A94
:101EBB000079AA1223F39002CCE0FBA3E0FAA3E093
:101ECB00240812334B9002CF122D027BFF7A01793B
:101EDB00E71223F39002CFE0FCA3E0FDA3E0FEA307
:101EEB00E0FF7810122CDC9002BEEEF0A3EFF09026
:101EFB0002CFE0FCA3E0FDA3E0FEA3E0FF9002C055
:101F0B00EEF0A3EFF07BFF7A0079A39002BEE0FF27
:101F1B00A3E0900320CFF0A3EFF01223F37BFF7A23
:101F2B000079A39002C0E0FFA3E0900320CFF0A3C1
:101F3B00EFF01223F37BFF7A0079AA1223F39002BE
:101F4B00CCE0FBA3E0FAA3E0241012334B9002D3B6
:101F5B00122D027BFF7A0179F71223F39002D3E063
:101F6B00FCA3E0FDA3E0FEA3E0FF7810122CDC90B5
:101F7B0002BEEEF0A3EFF09002D3E0FCA3E0FDA3D2
:101F8B00E0FEA3E0FF9002C0EEF0A3EFF07BFF7A40
:101F9B000079A39002BEE0FFA3E0900320CFF0A353
:101FAB00EFF01223F37BFF7A0079A39002C0E0FFDE
:101FBB00A3E0900320CFF0A3EFF01223F37BFF7A83
:101FCB000079AA1223F39002DFE4F0A3740AF090D5
:101FDB0002D3E0FCA3E0FDA3E0FEA3E0FF9002E14F
:101FEB00122D029002E5122D0E00000000E47B186A
:101FFB00FAF9F89002C8E0FCA3E0FDA3E0FEA3E031
:10200B00FF122C2BEF2401FFE43E9002FFF0A3EF15
:10201B00F09002EBE4F0A37480F09002D7E0F8A309
:10202B00E0F9A3E0FAA3E0FB9002EBE0FEA3E024CF
:10203B0006F58274003EF583E0FFE4FCFDFEEB2F1A
:10204B00FFEE3AFEED39FDEC38FC9002D7122D0273
:10205B009002ECE004F070069002EBE004F09002CA
:10206B00EBE07004A3E064BF70B09002EBE4F0A36C
:10207B0074C0F09002DBE0F8A3E0F9A3E0FAA3E070
:10208B00FB9002EBE0FEA3E02406F58274003EF524
:10209B0083E0FFE4FCFDFEEB2FFFEE3AFEED39FD96
:1020AB00EC38FC9002DB122D029002ECE004F07095
:1020BB00069002EBE004F09002EBE07004A3E06406
:1020CB00DF70B09002D7A3A3A3E0FF9000C5EFF0A1
:1020DB009002DBA3A3A3E0FF9000E5EFF0D2197D04
:1020EB00887C0812322012321DC2197FF412381864
:1020FB00E4FFFE1232B49002FDEEF0A3EFF0644C5D
:10210B007003EE642060187BFF7A0179419002FD29
:10211B00E0FFA3E0900320CFF0A3EFF01223F37DB9
:10212B00CD7CAB7F117E981232247F117E981232B8
:10213B00B49002FDEEF0A3EFF064CD7003EE64AB50
:10214B0060187BFF7A0179679002FDE0FFA3E090B6
:10215B000320CFF0A3EFF01223F3E49002FDF0A3E2
:10216B00F0900301F0A37428F0E49002EBF0A3F0DD
:10217B00900301E0FEA3E0FF9002EBE0FCA3E0FD87
:10218B00C39FEE6480F8EC6480985074EDAE0478D5
:10219B0002C333CE33CED8F9FDAC062489F5827455
:1021AB001C3CF583E493FE748A2DF582741C3CF57C
:1021BB0083E493FDEDFFC006C0079002EBE0FEA3A6
:1021CB00E07802C333CE33CED8F9FDAC06248BF5C1
:1021DB0082741C3CF583E493FE748C2DF582741C85
:1021EB003CF583E493FDEEFCD007D006123224902D
:1021FB0002ECE004F070069002EBE004F002217BAD
:10220B007FF41238187D777C0712322012321D7F33
:10221B00F41238181238567BFF7A0279061223F320
:10222B007B017A7E79009003167402F0A3E4F0FD33
:10223B007C7E12345AD2AF90FFD5E493FE90FFD43C
:10224B00E493FDEDFF90030FEEF0A3EFF09000543D
:10225B00E024FC601A047051900051E02400F582D8
:10226B00E4347EF583E0900053F0E4A3F0803A90E1
:10227B000053E0FF900051E0FE2400F582E4347E31
:10228B00F583EFF0EEB4FF1C7F007E7E1237E77B09
:10229B00017A7E79009003167401F0A3E4F0FF7EBF
:1022AB007E1234C5E4900054F03018A1900345E041
:1022BB00FCA3E0FDA3E0FEA3E0FFC006C007900374
:1022CB000FE0FEA3E0FBAA06D007D006C3EF9BFFEF
:1022DB00EE9AFEED9400FDEC9400FCE47B64FAF9BD
:1022EB00F8122BA0E47B1CFAF9F8123726900305A1
:1022FB00122D02E47B64FAF9F8900305E0FCA3E0ED
:10230B00FDA3E0FEA3E0FF123726900309122D0276
:10231B00900305E0FCA3E0FDA3E0FEA3E0FFEC339C
:10232B009003055009A3A3A3E0122CBD800BE0FC86
:10233B00A3E0FDA3E0FEA3E0FFE47B64FAF9F8124F
:10234B003726AF0390030DEAF0A3EFF07BFF7A0083
:10235B00798E900309E0FCA3E0FDA3E0FEA3E0FF70
:10236B00900320122D0290030DE0FFA3E0900324B5
:10237B00CFF0A3EFF01223F3C218022258E50D247D
:10238B0020F582E43403F583E0050D2290031D3024
:10239B001203900320E475F001122D3F022B322023
:1023AB000BE97F2ED20B8018EF540F2490D43440BE
:1023BB00D4FF300F0BEF24BFB41A0050032461FF7E
:1023CB00E50E6002150E0511E511700205103012B5
:1023DB000E90031DE475F001122D3FEF022B7802D6
:1023EB0038B27403D2128003E4C212F50D90031DB0
:1023FB00122D56E4F50EF510F511E50E60077F2052
:10240B001223CB80F5750FFFC20CC20BC20DC20E8F
:10241B00C210C211C213122397FF700D3012057F29
:10242B00001223DCAF11AE1022B4255FC2D5C20F50
:10243B00122397FF24D0B40A00501A75F00A780EB5
:10244B0030D50508B6FF0106C6A426F620D50470C4
:10245B0002D20E80D924CFB41A00EF5004C2E5D2B9
:10246B000F0225DDD20C80C6D20B80C0D20D80BCF2
:10247B00D2D580BAD21080B47F201223CB200D0787
:10248B007401B50E0040F1122388FF1223CB0224F6
:10249B0005D213D2118095122388FB122388FA12CE
:1024AB002388F94A4B700679AE7A267BFF200D2ED6
:1024BB00E50E602A7E008E82758300122B4B600620
:1024CB000EEE650F70F0C2D5EBC0E0EAC0E0E9C0DC
:1024DB00E0EE122624D0E0F9D0E0FAD0E0FB122B8C
:1024EB0032FF60AAEBC0E0EAC0E0E9C0E01223CB08
:1024FB00D0E02401F9D0E03400FAD0E0FBE50F0482
:10250B0060DCD50FD980877BFF7A267920D20D80AE
:10251B009C791080027908C211C2138008D2D57938
:10252B000A8004790AC2D5E50F047002F50FE4FAAC
:10253B00FDFEFF122388FC7B08200C13122388FD61
:10254B007B10300B0A122388FE122388FF7B20ECB2
:10255B003382D592D55013C3E4300B069FFFE49E14
:10256B00FEE4200C039DFDE49CFCE4CBF8C20CECD8
:10257B00700CCFCECDCCE824F8F870F38017C3EFF6
:10258B0033FFEE33FEED33FDEC33FCEB33FB9940C5
:10259B0002FB0FD8E9EB300C05F8D0E0C448B20CC5
:1025AB00C0E00AEC4D4E4F78207B0070C2EAB50FAD
:1025BB000040BCC0E0122626D0F0D0E0200C04C4B2
:1025CB00C0E0C4B20CC0F01223B4D0F0D5F0EB02D3
:1025DB002405122D5F24A253251C5824734C246F01
:1025EB004225204F252844252849248843252E554C
:1025FB0025124625124525124726CE5024772D2429
:10260B007B2E249E2B247F23249C2026B72A243721
:10261B0048000024963F3F3F00790AA2D5200E14B4
:10262B00301009B910020404B9080104A2D5201115
:10263B0002500104200D68920DB50E005034C0E01D
:10264B007F20300E197F30A20D72117210500F12B5
:10265B00267DC20DC211C210C2137F30800F301005
:10266B0003E9C0E01223CB301003D0E0F9D0E0B582
:10267B000ECC3010177F30B9100C1223CB7F583093
:10268B000F077F788003B908031223CB300D057F2A
:10269B002D0223CB7F202013F87F2B2011F32292C6
:1026AB000D80CF286E756C6C2900D20C12238830EC
:1026BB000CF8C20C780E30D50108F60224372D50D9
:1026CB004349581223882403B405004001E49026A3
:1026DB00C9931223BC743A1223BCD20E750E04029A
:1026EB00251C4103D210C115C1964103CB004103F8
:1026FB00D300C118440345000000006080034980EB
:10270B004E0800814E0800824E0800834E0800845C
:10271B004E0800854E0800864E0800874E08008044
:10272B00A7140081A7140082A7140083A7140084A8
:10273B00A7120085A7120086A7120087A712008098
:10274B00A83C0081A83C0082A83C0083A83C0084E4
:10275B00A83F0085A83F0086A83F0087A83F0080C0
:10276B00A63C0081A63C0082A63C0083A63C0084CC
:10277B00A63C0085A63C0086A63C0087A63C0041F3
:10278B00028600C1194102871662800006110700FC
:10279B00000000010000000000000000000000002D
:1027AB0000000010E30000849D000000000000000A
:1027BB00000000000000000000000000000000000E
:1027CB0000000000000000000000000000000000FE
:1027DB0000000000000000000000000000000000EE
:1027EB00000000000000000000000000000000FFDF
:1027FB0000000000000000000000020800000000C4
:10280B000000000000000000000000000011CC21BF
:10281B00800000000000000005FF00000000000326
:10282B00F04F454D20434F52502020202020202098
:10283B00201F009065000000000000000000000059
:10284B00000000000031360000000000361907FFC1
:10285B00DC437265646F2020202020202020202064
:10286B0020313830313034202008006724202020DC
:10287B0020202020202020202020202020000000AD
:10288B00000000000000000000000000000000003D
:10289B00000000000000000000000000000000002D
:1028AB00000000000000000000000000000000001D
:1028BB00000000000000000000000000000000000D
:1028CB0000000000000000000000000000000000FD
:1028DB0000000000000000000000000000000000ED
:1028EB0000000000000000000000000000000000DD
:1028FB0000000000000000000000000000000000CD
:10290B0000000000000000000000000000000000BC
:10291B0000000000000000000000000000000000AC
:10292B00000000000000000000000000000000009C
:10293B00000000000000000000000000000000008C
:10294B00000000000000000000000000000000007C
:10295B00000000000000000000000000000000006C
:10296B00000000000000000000000000000000005C
:10297B00000000000000000000000000000000004C
:10298B00000000000000000000000000004B00FBF6
:10299B00004600000000000000000000008DCC7419
:1029AB0004875A79180000000000000000000000A6
:1029BB000000000000000000000000000055760140
:1029CB008E43E2031A177005DC157C07D00000005C
:1029DB0000000000000000000000000000000000EC
:1029EB0000000000000000000000000000970F0036
:1029FB00000000000000006666777733330F00009D
:102A0B000000000000000000000000000042000079
:102A1B00000041000200410003004803D6010408F6
:102A2B000C101820304803DE0301040005060702D2
:102A3B0000E709F608DFFA8046E709F208DFFA80BB
:102A4B003E88828C83E709F0A3DFFA8032E309F634
:102A5B0008DFFA8078E309F208DFFA807088828C4D
:102A6B0083E309F0A3DFFA806489828A83E0A3F60B
:102A7B0008DFFA805889828A83E0A3F208DFFA80A4
:102A8B004C80D280FA80C680D4806980F2803380FB
:102A9B001080A680EA809A80A880DA80E280CA80C3
:102AAB003389828A83ECFAE493A3C8C582C8CCC568
:102ABB0083CCF0A3C8C582C8CCC583CCDFE9DEE7E5
:102ACB00800D89828A83E493A3F608DFF9ECFAA9D7
:102ADB00F0EDFB2289828A83ECFAE0A3C8C582C899
:102AEB00CCC583CCF0A3C8C582C8CCC583CCDFEAE8
:102AFB00DEE880DB89828A83E493A3F208DFF98026
:102B0B00CC88F0EF60010E4E60C388F0ED2402B468
:102B1B00040050B9F582EB2402B4040050AF232318
:102B2B00458223902A8C73BB010689828A83E0221B
:102B3B005002E722BBFE02E32289828A83E49322BE
:102B4B00BB010CE58229F582E5833AF583E022503F
:102B5B0006E92582F8E622BBFE06E92582F8E22289
:102B6B00E58229F582E5833AF583E49322BB0106DE
:102B7B0089828A83F0225002F722BBFE01F322A343
:102B8B00F8E0C5F025F0F0E582158270021583E0C0
:102B9B00C838F0E822E88FF0A4CC8BF0A42CFCE929
:102BAB008EF0A42CFC8AF0EDA42CFCEA8EF0A4CDC4
:102BBB00A8F08BF0A42DCC3825F0FDE98FF0A42CD8
:102BCB00CD35F0FCEB8EF0A4FEA9F0EB8FF0A4CF8B
:102BDB00C5F02ECD39FEE43CFCEAA42DCE35F0FD3C
:102BEB00E43CFC2275F008758200EF2FFFEE33FEFC
:102BFB00CD33CDCC33CCC58233C5829BED9AEC99CA
:102C0B00E58298400CF582EE9BFEED9AFDEC99FC6B
:102C1B000FD5F0D6E4CEFBE4CDFAE4CCF9A88222B2
:102C2B00B800C1B90059BA002DEC8BF084CFCECDD2
:102C3B00FCE5F0CBF97818EF2FFFEE33FEED33FD0B
:102C4B00EC33FCEB33FB10D703994004EB99FB0FF0
:102C5B00D8E5E4F9FA227818EF2FFFEE33FEED33C7
:102C6B00FDEC33FCC933C910D7059BE99A4007EC3F
:102C7B009BFCE99AF90FD8E0E4C9FAE4CCFB227586
:102C8B00F010EF2FFFEE33FEED33FDCC33CCC8331A
:102C9B00C810D7079BEC9AE899400AED9BFDEC9A7C
:102CAB00FCE899F80FD5F0DAE4CDFBE4CCFAE4C8F4
:102CBB00F922C3E49FFFE49EFEE49DFDE49CFC220D
:102CCB00EB9FF5F0EA9E42F0E99D42F0E89C45F05F
:102CDB0022E8600FECC313FCED13FDEE13FEEF13B4
:102CEB00FFD8F122E8600FEFC333FFEE33FEED3375
:102CFB00FDEC33FCD8F122ECF0A3EDF0A3EEF0A346
:102D0B00EFF022A8828583F0D083D082122D25127A
:102D1B002D25122D25122D25E473E493A3C583C510
:102D2B00F0C583C8C582C8F0A3C583C5F0C583C8E9
:102D3B00C582C822F8E0FBA3A3E0F925F0F0E582F9
:102D4B00158270021583E0FA38F022EBF0A3EAF05B
:102D5B00A3E9F022D083D082F8E49370127401932C
:102D6B00700DA3A393F8740193F5828883E47374B5
:102D7B0002936860EFA3A3A380DFC0E0C0F0C08321
:102D8B00C082C0D075D000C000C001C002C003C05B
:102D9B0004C005C006C007A2AF9200C2AF90028A62
:102DAB00E5A7F075A720E5B9540F146073147003F1
:102DBB00022E7124FE7003022E7C24FA605524FE31
:102DCB007003022E76147003022E76240460030225
:102DDB002E7F53B9F6900000E475F001122B8AFE9A
:102DEB00740625F0F58274003EF583E0900288F0BE
:102DFB00E0FF7003A3EFF08FBBC3900001E0948062
:102E0B00900000E094024004E4F0A3F0900003E48F
:102E1B00F0806153B9F59000027401F0A3F0805477
:102E2B00E5B930E40553B9EF8037900000E475F055
:102E3B0001122B8AFE740625F0F58274003EF58391
:102E4B00E0900288F0E0FFB41102A3F08FBBC390B7
:102E5B000001E09480900000E094024004E4F0A3B1
:102E6B00F053B9FE800E53B9FD800953B9FB022F05
:102E7B008353B9FBE5AB30E203022F76900287E573
:102E8B00BCF0900003E0B401EB900287E06450606B
:102E9B00E3900002E0147037900287E0C394804007
:102EAB001E900085E075F080A4FF900287E07C0007
:102EBB002FFEEC35F0900000F0A3CEF0022F6E90B9
:102ECB000287E0FF900000E4F0A3EFF0022F6E907A
:102EDB000287E0FF900000E475F001122B8AFC746E
:102EEB000625F0F58274003CF583EFF0C3900001EA
:102EFB00E09480900000E094024004E4F0A3F09092
:102F0B000001E024FFFF900000E034FFFEEF644E71
:102F1B004E7050900287E0C394035047E0640190D9
:102F2B0000507022E0FEA3E0FDEDFFC006C007A33A
:102F3B00E0FEA3E0FDEEFCEDD007D00612322490AC
:102F4B000054E4F0801DE0FEA3E0FDEDFF1232B46F
:102F5B0090028BE0FCA3E0FDEC900052F0EDA3F0AF
:102F6B00A3E4F0900002E4F0022E7F53B9DF90024D
:102F7B008AE0F5A7A20092AFD007D006D005D00407
:102F8B00D003D002D001D000D0D0D082D083D0F0EB
:102F9B00D0E032C0E0C083C082C0D075D000C00684
:102FAB00C007C20A30C203023062E5C054F024806D
:102FBB00606D24C0602624E0600302305E9003D273
:102FCB00E025E0F5C253C2FEA217E43342C2C2C5EC
:102FDB009000057401F0900004F0807D30C1232037
:102FEB0017779003C9E0FF900004E0FED39F5015C4
:102FFB0074CD2EF582E43403F583E0F5C290000422
:10300B008039301906D2C4C214804ED2C4D2C590B6
:10301B0003CDE004F070429003CCE004F0803A90D2
:10302B000005E0FFC3940274D350152FF582E434EE
:10303B0003F583E5C2F0D2C1900005E004F08019DE
:10304B002FF582E43403F583E5C2F0C214C2C1D27A
:10305B00C48006D20A8002D20A300A1E53C17F43B3
:10306B00C180C2C5C2C4C2C1C214C20A9003CDE0A2
:10307B0004F070069003CCE004F0C2C0D007D00679
:10308B00D0D0D082D083D0E0329002C5122D0290E6
:10309B0002CFE5A7F075A7209002C5E0C313FEA3EE
:1030AB00E013FFE4FCFD9002C9E0F8A3E0F9A3E014
:1030BB00FAA3E02FFFEA3EFEED39FDEC38FC90025F
:1030CB00C9A3A3A3E0FB122C2B9002CEEFF0E4904C
:1030DB0002CDF09002CDE0FFC39408400302317C97
:1030EB0074D62FF582E43403F583E0FF9002CEE033
:1030FB00FEEFC39E4072E47F02FEFDFC9002C9E02E
:10310B00F8A3E0F9A3E0FAA3E0FB122BA0A804A913
:10311B0005AA06AB079002CDE024D6F582E4340372
:10312B00F583E0FFE4FCFDFE122BA0A804A905AA81
:10313B0006AB079002C5E0FCA3E0FDA3E0FEA3E015
:10314B00FF122C2BC3E49FFFE49EF596EFF59590B1
:10315B0002CDE024DEF582E43403F583E044404203
:10316B00949002CFE0F5A7229002CDE004F002305C
:10317B00DE80FE12003975FF800000000000007534
:10318B00EF0275D94000787FE4F6D8FD75812302F4
:10319B0031D802352AE493A3F8E493A34003F680D5
:1031AB0001F208DFF48029E493A3F85407240CC838
:1031BB00C333C4540F4420C8834004F456800146E3
:1031CB00F6DFE4800B01020408102040809026ED0E
:1031DB00E47E019360BCA3FF543F30E509541FFE0E
:1031EB00E493A360010ECF54C025E060A840B8E47F
:1031FB0093A3FAE493A3F8E493A3C8C582C8CAC502
:10320B0083CAF0A3C8C582C8CAC583CADFE9DEE793
:10321B0080BEE4FDFC7F0D7E98900319EEF0A3EFCA
:10322B00F0A3ECF0A3EDF09003C97404F090031934
:10323B00E0FCA3E0FDEC9003CEF0EDA3F090031BBC
:10324B00E0FCA3E0FDEC9003D0F0EDA3F07BFF7A64
:10325B0000799F1223F37BFF7A0079A3900319E087
:10326B00FFA3E0900320CFF0A3EFF01223F37BFF3B
:10327B007A0079A81223F37BFF7A0079A390031BC2
:10328B00E0FFA3E0900320CFF0A3EFF01223F37B3A
:10329B00FF7A0079AA800B12358E400B7BFF7A00E8
:1032AB0079AD1223F380F0D322900319EEF0A3EF44
:1032BB00F09003C97402F0900319E0FCA3E0FDEC5D
:1032CB009003CEF0EDA3F012358E1235EE400B7B52
:1032DB00FF7A0079CF1223F380D79003D4E0FEA3BB
:1032EB00E0FDEDFF90031BEEF0A3EFF07BFF7A0008
:1032FB0079F01223F37BFF7A0079A3900319E0FF97
:10330B00A3E0900320CFF0A3EFF01223F37BFF7A1F
:10331B000079F41223F37BFF7A0079A390031BE06F
:10332B00FFA3E0900320CFF0A3EFF01223F37BFF7A
:10333B007A0079AA1223F390031BE0FEA3E0FF228D
:10334B00F9E43AFA900311EBF0A3EAF0A3E9F0A346
:10335B00122D0E00000000E4900318F0900314E00F
:10336B00FCA3E0FDA3E0FEA3E0FF7808122CEF9096
:10337B000314122D02900314E0F8A3E0F9A3E0FA72
:10338B00A3E0FBC000C001C002C003900311E0FB2F
:10339B00A3E0FAA3E0F9900318E0F582758300121D
:1033AB002B4BFFD003D002D001D000EB4FFFEAFE36
:1033BB00E9FDE8FC900314122D02900318E004F0D1
:1033CB00E0B40498900314E0FCA3E0FDA3E0FEA39B
:1033DB00E0FF22900319EEF0A3EFF0A3ECF0A3EDC6
:1033EB00F0A3EAF0A3EBF0A3A3E0FF74017E00A827
:1033FB0007088005C333CE33CED8F924FFFFEE3454
:10340B00FFAD07FC90031DA3E0F9EDAE04A8010886
:10341B008005C333CE33CED8F9F4FFEEF4FE900320
:10342B0019E05EF0A3E05FF0A3E05CFEA3E05DA813
:10343B0001088005C333CE33CED8F9FF900319E0D2
:10344B004EFEA3E04FFF900319EEF0A3EFF0229096
:10345B000311EBF0A3EAF0A3E9F0A3ECF0A3EDF07A
:10346B00E4900318F0A3F0900316E0FEA3E0FFA393
:10347B00E0FCA3E0FDC39FEC9E5033900315E02DC1
:10348B00FF900314E03CFE12383C900311E0FBA3C9
:10349B00E475F001122B8AA9F0FAEF122B78900346
:1034AB0019E004F070C1900318E004F080B99003A8
:1034BB0011E0FBA3E0FAA3E0F922900313EBF0A3D6
:1034CB00EAF0A3E9F0900311EEF0A3EFF0900318EC
:1034DB00EEF0A3EFF0900316E0FEA3E0FF900312D3
:1034EB00E02FFD900311E03EFC900318E0FEA3E0FB
:1034FB00FFC39DEE9C5027900313E0FBA3E475F0F4
:10350B0001122B8AA9F0FA122B32FD120003900341
:10351B0019E004F070BF900318E004F080B722129A
:10352B00003E9002C0122D0E0001C2007F007EA251
:10353B007D4A7C0412376A20862A75E340C287E4F1
:10354B00FFFE0FBF00010EEFF44E70F6D2873087EF
:10355B00FDE4FEFF0FBF00010EEF640A4E70F5E4B1
:10356B00F5E380D31237AAE49003CCF0A3F0C2AFFB
:10357B0075A72053BAFE43BA44D2AF121D2F7FF466
:10358B0002381890031D122D0E000000002014FDB0
:10359B00D214C217D2C530144890031DE0FCA3E02F
:1035AB00FDA3E0FEA3E02401FFE43EFEE43DFDE4C9
:1035BB003CFC90031D122D02E47FFFFEFDFC9003EB
:1035CB001DE0F8A3E0F9A3E0FAA3E0FBD3122CCBA8
:1035DB0040C490031D122D0E00000000123698C33C
:1035EB0022D32290031D122D0E000000002014FD8B
:1035FB00D214D217D2C530144890031DE0FCA3E0BF
:10360B00FDA3E0FEA3E02401FFE43EFEE43DFDE468
:10361B003CFC90031D122D02E47FFFFEFDFC90038A
:10362B001DE0F8A3E0F9A3E0FAA3E0FBD3122CCB47
:10363B0040C490031D122D0E00000000123698C3DB
:10364B0022D322900313ECF0A3EDF0A3EAF0A3EB4B
:10365B00F0900311EEF0A3EFF01232B4C007900319
:10366B0013E0FCA3E0FDA3E0FAA3E0FBA3E0FFA3C0
:10367B00E090031FCFF0A3EFF0D0071233DEAC06C0
:10368B00AD07900311E0FEA3E0FF0232247F094354
:10369B00D50C75F2FF75A55FE59030E210AE071FF4
:1036AB00EE600A5390F7004390080080EB75A55F1E
:1036BB005390F75390FB0043900800439004005342
:1036CB00D5F375A55053C17F43C180C2C5C2C4C2D7
:1036DB00C1C21422C0E0C0F0C083C082C0D075D07C
:1036EB0000C000C004C005C006C007C2EDE5BDAEFA
:1036FB00BE7802CEC313CE13D8F9FFE4FCFD9003C2
:10370B0045122D02D218D007D006D005D004D00018
:10371B00D0D0D082D083D0F0D0E032C2D5E830E721
:10372B000FB2D5E4C39BFBE49AFAE499F9E498F859
:10373B00EC30E717B2D512375C122C2BE4C39BFB92
:10374B00E49AFAE499F9E498F88003122C2B30D51B
:10375B000DE4C39FFFE49EFEE49DFDE49CFC2290E0
:10376B0002C4E5A7F075A72043C812E4F5DA43932A
:10377B000CC004C005C006C0079002C0E0FCA3E06B
:10378B00FDA3E0FEA3E0FF9002C9122D02D007D0EB
:10379B0006D005D0041230949002C4E0F5A7229015
:1037AB0002BCE5A7F012391A12392412003512396E
:1037BB002B12386C12393212390312005612007662
:1037CB001238821238CF1238DC1239391238921271
:1037DB0038E91238F69002BCE0F5A722A2AF920BA3
:1037EB00ADA7E4F5A7C2AF75FF8075EF028F828E90
:1037FB008375B7A575B7F1438F0375FF8075EF021E
:10380B00F0538FFCAF058FA7A20B92AF225388CF3B
:10381B005389F0438901438E04EF6012C28C758C7F
:10382B00E6758AC0C28DD28C308DFD1F80EBC28CA9
:10383B0022A2AF920BADA7E4F5A7C2AF8F828E8306
:10384B0093FFAE058EA7A20B92AF22900317E4F065
:10385B00A304F07B0E7A00FD7C007F617E84023630
:10386B004E75B30775B29C75BB1475DF6C75BC28B0
:10387B0075B98643E8C12275A710E598540453988F
:10388B00FB43980442982275A7207594437596FEC6
:10389B007595C843C8102275A72053BAFD43BA02C9
:1038AB0075A71053987F32AEA775A72030C9FD8F2F
:1038BB0092C2C98EA72253C17F43C18053917FC24D
:1038CB00C5C21432E5C0540453C0FB43C00442C00C
:1038DB0022E4F5A7758E017589204388402275BDBA
:1038EB005053BAFB43BA1843BA0222E4F5A775E664
:1038FB008975F30675A88022E4F5A775A903E5A9D8
:10390B0030E7FB22E4F5A7F5A9E5A930E7FB22E4B4
:10391B00F5A77597DE7597AD2275A40275D43F2276
:10392B0075E34175E1042275A71075C1202253C1BF
:05393B00FC43C1DD2288
:00000001FF
