:020000040000FA
:100000000230E1A2AF9202A9A7E4F5A7C2AF75FF43
:100010008075EF028F828E8375B7A575B7F1438F18
:100020000175FF8075EF02EDF0538FFEAF018FA7D2
:0A003000A20292AF2275A5652222FC
:10003B00022E5E90019CE5A7F01237E190019CE047
:03004B00F5A722F4
:100053000235B1AF885388AF758C38758A13758DA7
:0F006300F0758B34EF5440FEEF54104E4288225C
:10007300023793E59154045391FB43910442912237
:03008300022CD379
:10008B000237742054203D20256C642E25642843B0
:10009B0029200A0057722000253034780020000DEB
:1000AB000A00534D42305F4932435F4D61737465B3
:1000BB0072577269746520204552524F522121218B
:1000CB0021212100534D42305F4932435F4D617313
:1000DB007465725265616420204552524F52212142
:1000EB002121212100526420003D3D005468697399
:1000FB002069732061206E657720746573742C20E2
:10010B006E6F772072657365742047452066697240
:10011B007374200D0A00526573657420646F6E65ED
:10012B0021206E6F77206C6F616420667720746F6F
:10013B002047450D0A000D0A2041646472657373F4
:10014B00203027732076616C7565206572726F7233
:10015B003A20203078253034780D0A000D0A2041E2
:10016B0064647265737320307839383131202773AA
:10017B002076616C7565206572726F723A203078EB
:10018B00253034780D0A0030A6CC3F3FA1A43FA602
:10019B00CC3F61A1EA6F3078253034780030783964
:1001AB00383131A6CC3F3FA1A43FA6CC3F61A1EA99
:1001BB006F30782530347800307839663066A6CCCD
:1001CB003F3FA1A43FA6CC3F61A1EA6F3078253019
:1001DB003478000D0A6C656E3A3078000D0A656E46
:1001EB00746572506F696E743A3078000D0A7374CF
:1001FB00617274416464723A3078004D43552053F8
:10020B0054415254204F4B2E2E2E2E2E2E007A68F8
:10021B0075616E666120307800726561643A20000A
:10022B00C2ED0100C7F800000100010000001A58E0
:10023B000100000000000FD000000FD000000FD015
:10024B0000000FD000000FD000000FD000000FD027
:10025B0000000FD000000FD000000FD000000FD017
:10026B0000000FD000000FD000000FD000000000E6
:10027B000000000000000000000000000100050469
:10028B000000000000000000000000000000000063
:10029B000000000000000000000000000100059CB1
:1002AB00010006440100066C0400004001F401004B
:1002BB0000200004000201F4020000020001FFFC18
:1002CB0000010006000A000600050005003B001EA9
:1002DB000001000A00000000000000000100000304
:1002EB00004B0032019005060000000000000000EA
:1002FB00000000981000A989100DCBAB1000DCBCDE
:10030B0010065DCD0000065D0000007600000000C9
:10031B000000021000032F0100000000000103E8A1
:10032B0002000180002006060014000000000000FF
:10033B00000000001820010000000173A8211D58C7
:10034B009C21FFE0B8640082D4011004A8409805FA
:10035B00AC84FFFFD401B014E2C310009C40000139
:10036B00A4840003E0421802D401A010E284200010
:10037B00B8420008D4017008E29420009DC0000030
:10038B00D401900CD401C018D401481CD40108002E
:10039B009E940004E04410009F00000AAA4E000047
:1003AB0007C004E0A8760000E16BA04818600000CD
:1003BB008CB7003EA8632DF0A56B0007E16B18000E
:1003CB008C8B0000E564280010000007A877000064
:1003DB00E0A52002E57228001000000315000000C4
:1003EB00AA4500008C63003FE5A41800100000062E
:1003FB00E0841802E56E20001000000315000000D9
:10040B00A9C400009F18FFFFBC38000013FFFFE5D5
:10041B00150000009E52FFFFBC32FFFF0C000006D0
:10042B00A860980407C004D3A882000003FFFFFB59
:10043B009E52FFFF9C4200049DCEFFFFBC2EFFFF90
:10044B000C000006A860980407C004CAA88200002C
:10045B0003FFFFFB9DCEFFFF8521001C84210000C5
:10046B008441000485C100088641000C8681001080
:10047B0086C1001487010018440048009C2100200D
:10048B009C21FFE8D4017008D4014814D401080062
:10049B00D4011004D401900CD401A010A9C3000006
:1004AB00946E0000BC2300000C000016A4430F0048
:1004BB00BC2208001000000E968E00029E40000029
:1004CB00A443F0FFA880FFFFE0629000A8B40000F7
:1004DB0007C0049F9E520100BC32080013FFFFFBB4
:1004EB00A880FFFF03FFFFEF9DCE0004A880FFFF56
:1004FB0007C00497A8B4000003FFFFEA9DCE0004D9
:10050B0085210014842100008441000485C100086A
:10051B008641000C86810010440048009C21001885
:10052B009CA000019C21FFF4E0852008D40110045D
:10053B00A8430000A8609811A8A40000D4014808A3
:10054B0007C00483D4010800B4605001D40218081A
:10055B009C600000DC02181A852100088421000031
:10056B0084410004440048009C21000CA4A4000713
:10057B009C21FFF0B8A5000BD40110049CC03800DF
:10058B00A84400009C80004ED4017008D401480C94
:10059B00A9C3000007C00783D4010800A4A2000868
:1005AB00A86E0000BC050000100000039C8000DF5B
:1005BB009CA0002207C0077B9CC000E28521000C99
:1005CB00842100008441000485C1000844004800D8
:1005DB009C2100109C21FFECD4011004D401700865
:1005EB00D4014810D4010800D401900CA84300009A
:1005FB008E4300148CA3000CA6520007E572280052
:10060B0010000004A9C40000000000059CA5FFFF1A
:10061B00E5B22800100000039CA50001D802280CAD
:10062B008CA2000CA4A50007A86E0000B8A5000BB7
:10063B009C80004E07C0075B9CC038008C62000C8E
:10064B00E423900010000015852100108C8200140B
:10065B0007FFFFC7A86E0000A86E00009CA0020059
:10066B009CC03F8007C0074F9C800001A862000020
:10067B0007FFFFACA88E0000B4605001D40218082D
:10068B009C60001EA88E0000D802180E07FFFF2DDD
:10069B00A862000085210010842100008441000421
:1006AB0085C100088641000C440048009C210014C1
:1006BB009C21FFF0D401480CD4010800D401100494
:1006CB00D401700899C3001ABC0E00000C00001670
:1006DB008521000CB440500184A30008E04228029D
:1006EB0098B7001CB8420059E48228001000000E95
:1006FB008521000CA84300001860010007C0080604
:10070B00A8631A489C600001DC02181A8C62000F67
:10071B00BC030000100000048521000CD802700EF1
:10072B008521000C842100008441000485C1000850
:10073B00440048009C210010B86300849C21FFF406
:10074B00D4011004A443000FD4014808BC020002DA
:10075B0010000013D4010800BC02000310000009B4
:10076B00BC0200000C00000A1860010007FFFF45E7
:10077B00A86318649C6000050000000FA8820000AD
:10078B001860010000000008A86318FC07C002F104
:10079B009C6000020000000B85210008186001001E
:1007AB00A86319A407FFFF37150000009C60000524
:1007BB009C80000007C002EA15000000852100089C
:1007CB008421000084410004440048009C21000C5B
:1007DB009C21FFF8A48300FFD4014804BC04000053
:1007EB0010000006D401080007C002DA9C6000026A
:1007FB000000001F8521000407C002D99C60000D7A
:10080B00A860981007C006C89C80001A07C003C5D3
:10081B00A8609818B88B008CA56B000FBC0B000060
:10082B001000000CAC64000DE0A01802E065180489
:10083B00BD83000010000008BC0400009C60000D8C
:10084B0007C002C79C80000100000009852100043D
:10085B00BC04000013FFFFEB1500000007C002BD36
:10086B009C60000D03FFFFE8A86098108421000036
:10087B00440048009C2100089C21FFF8A897000029
:10088B009CA00042D401480407C0067CD401080098
:10089B008521000484210000440048009C210008AD
:1008AB009C21FFF4D4011004A443000FD401480889
:1008BB00BC2200011000000CD401080018800100BC
:1008CB00A8609819A88400F807C0038A94840000D4
:1008DB009C60000F07C002A2A88200000000000667
:1008EB00852100081860008907C0064CA8636AAF11
:1008FB008521000884210000844100044400480045
:10090B009C21000C9C21FFD4186001001880010071
:10091B00D401100418400100A8631A58A8841F982A
:10092B00A84200F8D4014828D4010800D40170086B
:10093B00D401900CD401A010D401B014D401C01870
:10094B00D401D01CD401E02007C003C0D401F02493
:10095B0007C003661500000094620000BC23000072
:10096B00100000071860010018800100A863000048
:10097B00040003BCA8841A58DC0258001AE00100DA
:10098B00AAF70074A860981407C00366A840FFF08C
:10099B00E42B1000100000061840CFFF07C0035ACD
:1009AB009C60000007BFFE8515000000A842FFFFFA
:1009BB00C14010009C800000C14020011860010064
:1009CB009DC0FFFF07C00754A863172C9DCE0001E5
:1009DB00A5CE0007B86E0003B84E0006E04310002A
:1009EB0018600100A8631D58E042180007C0079F5C
:1009FB00A86E0000B96B0088BDAB001F100001CBC7
:100A0B00BD4B0017A64B001FBD520009100000097B
:100A1B00BD92000BBD720008100000D8BC12000282
:100A2B001000000C9C80FFFE0000038A15000000E4
:100A3B0010000388BDB2000C10000104BC1200189A
:100A4B001000016DA88082000000038215000000D9
:100A5B008C6200429EC00001E0632003E2D6700866
:100A6B00D802184207C0032FA860980FA8609816E9
:100A7B00E16B704807C0032BA64B0001A8609811CF
:100A8B00D8029010A89600009CA0000007C003306D
:100A9B00AA8B00009062000EBC2300641000000CB7
:100AAB00A474FFFFE0637088A4630001BC03000023
:100ABB0010000360A8960000A860981607C00324D6
:100ACB009CA000009C600000D802180E07C007AA6B
:100ADB00A86E0000A56B00FFBC1200001000002CDC
:100AEB00D802580F94B700249CC0003FA4A5003F28
:100AFB00A86E000007C0062B9C80007818600100D0
:100B0B00A88E000007C00704A86318201860010016
:100B1B00A88E000007C00700A86317EC9C80000894
:100B2B00A86E0000D802200E07C0061A9C80004E4B
:100B3B00B96B00128CA2000FB96B005DBC050000F5
:100B4B00A86E00001000000CD802580C9CA00000EE
:100B5B009C80000107C006139CC0400094570018EE
:100B6B00BC220000100000039CA00002A8A2000001
:100B7B00A86E00009C8000DF9CC0000207C0060925
:100B8B00150000000000006D94970000BC0B0000E6
:100B9B00100000319CC0003F94B70024A4A5003F77
:100BAB00A86E00009C80007807C005FEBA94001068
:100BBB0018600100A88E000007C006D7A863182094
:100BCB0018600100A88E000007C006D3A86317ECBD
:100BDB009C6000059C800008D802180DBD740000B5
:100BEB0010000006D802200E9C6000079C800001BC
:100BFB00D802180DD80220108CA2000DA4A5000756
:100C0B00A86E0000B8A5000B9C80004E07C005E540
:100C1B009CC038008C62000DD802180C9457001839
:100C2B00BC220000100000039CA00002A8A2000040
:100C3B00A86E00009C8000DF07C005DA9CC0000294
:100C4B00A86E00009C8000019CA0000003FFFFCC5D
:100C5B009CC040008C62000E9C63FFF6BC43000DF1
:100C6B001000003B18600100B460500184A2000426
:100C7B00E063280294B70010B8630050E4851800B5
:100C8B0010000032E0B770008CC200139C6600129B
:100C9B00B8630002E077180084630000B883005C3F
:100CAB00D40218209C84001AB8840002E09720001C
:100CBB0084840000D8029012D4022024A48300FF65
:100CCB00B8630004A4E4000FA4840007B8630048D1
:100CDB00D802200CD8023814D40218201860010056
:100CEB00DC029018DC029016D805302CA88E000080
:100CFB0007C00689A86317EC8CA2000C98970022FA
:100D0B00E5852000100000091500000094B7008055
:100D1B00A4A5007FA86E0000B8A500079C80000169
:100D2B0007C005A09CC03F808C82001407FFFE10FB
:100D3B00A86E00009497000007C005A3A86E0000E2
:100D4B00000002C41500000018600100A88E00000E
:100D5B0007C00671A86317889C80001F9C60000069
:100D6B00D802201CD802201D9C800008D802181223
:100D7B00000002B8D802200E8E820012BC34000094
:100D8B00100000079C600010B4605001D4021804DE
:100D9B009C600009D802180E9C600010E283A088AA
:100DAB00BC34000010000003150000009E80000101
:100DBB00A86E000007C005779C800074A56BFFFF31
:100DCB00BC4B0001100000039C6000019C60000004
:100DDB00A46300FFBC230000100000058C62001C04
:100DEB00BC3200091000000815000000D802181EC4
:100DFB00BC43003E0C000005E283A0000000000590
:100E0B008CA2001CE283A002D802A01C8CA2001CA6
:100E1B00A86E00009CC0007F9C80004A07C0056143
:100E2B00A4A5007FA86E00009C80004907C0056A3E
:100E3B009CA00000A8808B8C07C0055FA86E0000EB
:100E4B0000000284150000008E8200129C600010CE
:100E5B00E283A088BC3400001000000315000000E2
:100E6B009E800001A86E000007C0054A9C8000749C
:100E7B00A56BFFFFBC4B0001100000048C62001D32
:100E8B0000000006E283A002BC43003E10000004F9
:100E9B00D802181FE283A000D802A01D8CA2001D4F
:100EAB00A86E00009C80004CA4A5007F07C0053DE8
:100EBB009CC0007F8C620012BC4300061000001027
:100ECB009C800078A8A0FFFFA86E000007C0054219
:100EDB009C800049A880888907C00537A86E000050
:100EEB008C6200129C630001BC32000C1000025992
:100EFB00D80218120000003B1860010094B70024C0
:100F0B00A86E0000A4A5003F9CC0003F07C00525AC
:100F1B009E40000018600100A88E000007C005FE6F
:100F2B00A86318208C62001FE40390001000000FD0
:100F3B009C80000007C001B18C62001E8C62001FF8
:100F4B0007C001AEAA4B0000A872000007C00182C7
:100F5B00A88B00009C80000707C00256A86B0000FE
:100F6B009E4BFF809C800000A860981607C001ED87
:100F7B00D4022020A56B8000BC2B000010000013B6
:100F8B009C600006BDB2004B1000000EBDB200729B
:100F9B001000000C9D600001BDB20087100000091D
:100FAB009D600002BDB200CB100000069D600003E7
:100FBB00BD5200FE100000039D6000059D60000403
:100FCB009C600005E0635802D8021813E0777000AC
:100FDB00D80390409C60000AD802180E18600100DC
:100FEB00A88E000007C005CCA863184800000212A9
:100FFB001860010007C004F0A86E00008C6200426C
:10100B00A8630001D802184207C00565A86E00004E
:10101B00A86E000007C0052FAA4B00009477001A9A
:10102B00E48B1800100000059E520010BCB200208B
:10103B001000000915000000A86E00009C800050F5
:10104B009CA0080007C004D79CC00FFF0000020142
:10105B00150000008C620010BC0300001000002E75
:10106B00150000009497000207C004D7A86E00007B
:10107B00A8A0E000A8C0F000A86E000007C004C93B
:10108B009C80003B8C620010BC0300001000000D24
:10109B00150000008C62000FBC230000100000182C
:1010AB009C60001A8C82000C9877001EE564180077
:1010BB0010000004A86E000007C005F59C80000717
:1010CB008C62000FBC2300001000000D9C60001A06
:1010DB008C82000C98770020E56418001000000645
:1010EB009CA00022A86E00009C8000DF07C004AD0E
:1010FB009CC000E2000000099C80001DA88E00002F
:10110B00D802180E07FFFC8FA86200000000000435
:10111B00150000009C800010D802200EB460500116
:10112B00000001CCD40218000C0001C318600100B0
:10113B009E4E00809EC00003BA5200089F9200137F
:10114B009E52002A07C00177A87C0000A8720000FD
:10115B0007C00174ABCB00009C80000DA86E000093
:10116B0007C0048CAB0B0000A86E000007C0050184
:10117B00AA8B0000A87C0000AB4B000007C00169E4
:10118B00A7DE000FA56B000FE55E580010000003F3
:10119B009C8000019C800000A48400FFBC24000004
:1011AB0010000014BC0B000F100000139ED6FFFFA5
:1011BB00B6C050018C62000E9C63FFF086420000AB
:1011CB00A46300FFE2569002BC430021100001997A
:1011DB00BA52005018800100B8630002A88416A40C
:1011EB00E063200084630000440018001500000039
:1011FB009ED6FFFFBC36000013FFFFD31500000087
:10120B0003FFFFEC1500000094770026E492180012
:10121B0010000189186001009497000207C0046A4E
:10122B00A86E0000A86E00009C8000089CA00080A7
:10123B0007C0045C9CC000F08C62000FBC03000074
:10124B000C00017AD402B0000000012D9C8000122A
:10125B0094970028E4922000100001771860010099
:10126B009497003C94C20018E0982000E58430006D
:10127B00100000081500000094770026E492180077
:10128B000C000005186001000000016B1500000048
:10129B009F00000084620024D402B000A483000FDE
:1012AB00B8630044BC24000F0C000014D4021824B3
:1012BB009C640014A4B8FFFFE0631800E0E2200078
:1012CB00E0621800DC0328008C620014D807D030D1
:1012DB00D80718348CE20012E5A438001000000384
:1012EB00E5B83000D80220121000000415000000F1
:1012FB00DC022818DC02181684820020BC040000D3
:10130B0010000013BC38000010000009150000008D
:10131B008CA2001494620016A4A50007A463000716
:10132B00E54518001000000A15000000A484000F0A
:10133B00A86E000007FFFC8ED802201484620020E8
:10134B00B86300440000013BD402182095A200288A
:10135B0090E200308C8200129D02002A9CA2003188
:10136B00A8CD00009DE000009C600001E5A32000DB
:10137B000C000013A997000095880000E5AC300025
:10138B001000000B1500000091650000BD8B0000E4
:10139B0010000004E54B380010000005150000009C
:1013AB00A8EB0000A9E30000A8CC00009C6300019F
:1013BB009D08000203FFFFEE9CA500019CA20028E4
:1013CB009D0200309C600000E42378000C000013A9
:1013DB00BC24000396250000956C0038E171580081
:1013EB00E58B30001000000815000000916800002C
:1013FB00BD8B000010000008E5AB380010000007A3
:10140B00BC2400039C6300019CA5000203FFFFEFBB
:10141B009D080001BC2400031000001A15000000F9
:10142B0015000000BC230000100000161500000082
:10143B009482002EE0846802B8A4009FE08520050A
:10144B00E084280294AC003AE56428001000000DFB
:10145B001500000090820031BD84000010000008D0
:10146B001500000090820032BD64000010000005E2
:10147B0015000000000000039C6000029C6000014E
:10148B00E06218008C8200148C630034A484000783
:10149B00D80218149C600019D802200C0000000719
:1014AB00D802180E9477002AE4921800100000E17D
:1014BB0015000000D402B000A862000007FFFC4634
:1014CB00A88E0000000000DC18600100A86200007C
:1014DB0007FFFC78A88E00008C62000FBC23000075
:1014EB00100000D5186001009E400100A860980F05
:1014FB0007C0008CE2527008E24B9003BC32000034
:10150B00100000CC9C800001A86E0000A8B2000067
:10151B0007C003A49CC040009C600001DC02901635
:10152B00D8021815DC02901894970036E063200857
:10153B009C80001FD402B000D8021811000000BD1F
:10154B00D802200EA862000007FFFC5AA88E0000EC
:10155B0007C00074A860980F9C600100E0637008DE
:10156B00E16B1803BC2B0000100000B318600100E6
:10157B00A86E000007C003879C800009A56B800044
:10158B00BC2B0000100000AC1860010094770034F5
:10159B00E4921800100000A8186001008E420011A0
:1015AB00946200169E52FFFFE3181800A65200FF2C
:1015BB00D402B000DC02C016BC3200001000009D4B
:1015CB00D8029011A86E000007C003729C800080A7
:1015DB00A86E00009C80000107C0036EAACB000020
:1015EB009462001694820018E46418001000000442
:1015FB001500000000000007DC0218188C620015B3
:10160B009C63FFFFDC029018B863005FD8021815CB
:10161B0090820015BC04000010000009A474007F28
:10162B00B8B60010B8A50059E58328000C00000AD5
:10163B0015000000000000099CA30001B8AB0012CC
:10164B00B8A50059E54328000C000004A4A5FFFF32
:10165B009CA3FFFFA4A5FFFFA86E00009C80005F6A
:10166B0007C003509CC0007F9CA01000A86E000018
:10167B009C80000A07C0034BA8C500009497003656
:10168B009C600001E0632008D80218119C600000E8
:10169B0000000068DC02181694770006E4B218000C
:1016AB001000006415000000A862000007FFFB2576
:1016BB00A88E00009C80001CD402B000D802200E23
:1016CB00A862000007FFFB97A88E00000000005ADD
:1016DB001860010094770004E4B218001000005564
:1016EB0015000000000000529C60001B9477000E58
:1016FB00E4B218001000004F9C80001B0000004D4E
:10170B00D802200EA862000007FFFB86A88E0000FF
:10171B00000000479C60001B94770008E4921800BF
:10172B00100000449C8000319C600000D802200E09
:10173B00DC02181A9C6000019497000AE0632008F1
:10174B00D80218119477000CE49218001000003A9C
:10175B00186001009462001AE35A18008C82001181
:10176B00BB5A00109C84FFFFD402B000BB5A009000
:10177B00A48400FFDC02D01ABC2400001000002D52
:10178B00D802201194F7000A98770014E063380808
:10179B00E5BA18001000000B8C62000CBC030000B3
:1017AB00100000169E4000018CA2000DE48518006D
:1017BB00100000129C63FFFF0000000FD802180CF2
:1017CB0098B70016E0A53808E57A28001000000B42
:1017DB009E400001BC4300051000000815000000EE
:1017EB008CA2000DE445180010000004E06390008B
:1017FB00D802180CAA4400008C82000C07C00312FC
:10180B00A86E0000BC120000100000089C80001A9B
:10181B00A8620000D802200E07FFFACAA88E0000AB
:10182B0000000005186001009C600030D802180E03
:10183B001860010007C0025AA8630038A86098100E
:10184B0007C002B99C80001A03FFFC629DCE000109
:10185B0007C004DCA86E000003FFFFF7186001004F
:10186B00A96BFFFF19000100A9081684E4032000EF
:10187B00100000109CA0000494C30000E16B300525
:10188B00B8CB004CB96B0004E0C630009CA5FFFF41
:10189B00E0C64000BC25000094C60000E166580578
:1018AB0013FFFFF8A56BFFFF03FFFFF19C63000223
:1018BB00440048001500000000008005800F000A5E
:1018CB00801B001E0014801180330036003C8039D1
:1018DB000028802D8027002201000FD4010015FC69
:1018EB000100101C010015FC010015FC010015FC8A
:1018FB00010015FC010015FC010015FC0100127024
:10190B00010014D001001298010014A0010014640E
:10191B00010014B801001310010015FC010015FCA7
:10192B00010015FC010015FC010015FC010015FC64
:10193B00010015FC010015FC010015FC010015FC54
:10194B00010015FC010015FC010015FC010015FC44
:10195B00010015FC010015FC010014E40100151039
:10196B009810FFFF0000800B9F9F8200810B9F9FB1
:10197B008200820B9F9F8200830B9F9F8200981493
:10198B00FFFF5B5B980C20002000980FFFFF00F01F
:10199B009900FFFFFDE09901FFFF21049902FFFF72
:1019AB0093109903FFFF4A66981EFFFF8538982610
:1019BB00FFFF95799827FFFF0000000000F203F06E
:1019CB0002E000DF00E2000000F9007E004C00F8AE
:1019DB0003800000003BF00000000078003F002473
:1019EB00000B9F9F8889006500E000000048FFFF07
:1019FB00FFFF0049FFFFFFFF004A0FFF071F004BD0
:101A0B00FFFFFFFF004C1FFF0E9F004D800080006B
:101A1B00004E38003800004FF000F00000000000CE
:101A2B0000500FFF0040003BF0000000004D800015
:101A3B008000000800F00080000140004000000A18
:101A4B0010000000006500E00000000B9F9F8298D3
:101A5B00000000000048FFFF00800049FFFF00026C
:101A6B00004C1FFF1115004BFFFF0080004A0FFFBA
:101A7B0008BD000B9F9F8200000000000081080042
:101A8B000800000C80000000000C8000800000812A
:101A9B00080000000000000088834E058882D800F3
:101AAB008875C6FF6002800088FC52367800000003
:101ABB008850504088A30020854E000088764182D4
:101ACB008877516688781CBB847600848576008481
:101ADB0086760084877600848477188285771882CF
:101AEB00867718828777188284788C3885788C383B
:101AFB0086788C3887788C38844E0000874E0000AF
:101B0B00864E000060328000601280008863008087
:101B1B008864808088085ABB880329338802400672
:101B2B00602280008806A1008805AE8200000000BC
:101B3B0088DF0066888130008887CD7A8886CD7AE9
:101B4B0088854D7A88848D7A88FC536688884D7A8F
:101B5B0088FE80AE88FDB64488FFFDC078080C0077
:101B6B00731AFF00711AFF00721AFF00701AFF0040
:101B7B0078093A908879886C824E3800814E38000B
:101B8B00834E3800804E3800884D80007806125402
:101B9B0088EFB6A088FB773678190005781681C0D8
:101BAB0088F98B5A88F8B7780007002088F1B000C5
:101BBB0088F067B488F561E088F7A2469902931024
:101BCB009900FDE0990121048801020188004D056F
:101BDB0088074D7A0000000088DF0066888130009E
:101BEB008887CD7A8886CD7A88854D7A88848D7A58
:101BFB007806125488FB773688FEA5A888FD3644F4
:101C0B0088FFFDC078080C00731AFF00711AFF00E3
:101C1B00701AFF00721AFF0078093A908879886C65
:101C2B00814E3800834E3800824E3800804E38008B
:101C3B00884D800088EFB6A088884D7A781900050A
:101C4B00781681C088F98BDA88F8B7780007002AF4
:101C5B0088F1B00088F067B488F561E088F7A24698
:101C6B00990293109900FDE099012104880102016A
:101C7B0088004D0588074D7A00000000008BFC00A2
:101C8B00FC00008BFC0000000000000000000000C6
:101C9B0080A7140081A7140082A7140083A7140047
:101CAB0084A7120085A7120086A7120087A712002F
:101CBB0080A83C0081A83C0082A83C0083A83C0083
:101CCB0084A83F0085A83F0086A83F0087A83F0057
:101CDB0084A63C0085A63C0086A63C0087A63C005B
:101CEB0080A0008081A0008082A0008083A00000E3
:101CFB0084A0000085A0008086A0008087A00080C3
:101D0B00844E2000854E2000864E2000874E2000FA
:101D1B0080613C20816134208261342083613C20CE
:101D2B0084617C2085613420866134208761342076
:101D3B009F00980D981474FF90019CF0A3F0E49011
:101D4B0001A2F0A3F0A3122A91000000009001B7AA
:101D5B00122A91000000009001BB122A9100000092
:101D6B000078CD7C017D017BFF7A1D793B7E007F66
:101D7B000612288F9001D3122A91000000009001C7
:101D8B00D9E4F0A304F0E49001DDF0A3F0C296C215
:101D9B0095C292C2817BFF7A0079F71224C57F9698
:101DAB001236EAD2967F961236EAD2927F96123686
:101DBB00EAD2957FFA1236EAD2817BFF7A0179213A
:101DCB001224C57FFA1236EA9001AC74FFF0A374AB
:101DDB0002F0A3742BF0E4FFFE12303E9001DDEE17
:101DEB00F0A3EFF0644C7003EE642060187BFF7A75
:101DFB000179419001DDE0FFA3E0900200CFF0A359
:101E0B00EFF01224C57DCD7CAB7F117E981231870C
:101E1B007F117E9812303E9001DDEEF0A3EFF0645F
:101E2B00CD7003EE64AB60187BFF7A01796790018C
:101E3B00DDE0FFA3E0900200CFF0A3EFF01224C58A
:101E4B009001ACE0FBA3E0FAA3E0240C12321D904E
:101E5B0001A8122A857BFF7A0179DE1224C5900135
:101E6B00A8E0FCA3E0FDA3E0FEA3E0FF7810122A9C
:101E7B005F90019EEEF0A3EFF09001A8E0FCA3E0D1
:101E8B00FDA3E0FEA3E0FF9001A0EEF0A3EFF07B3B
:101E9B00FF7A0079A390019EE0FFA3E0900200CFB0
:101EAB00F0A3EFF01224C57BFF7A0079A39001A079
:101EBB00E0FFA3E0900200CFF0A3EFF01224C57B6C
:101ECB00FF7A0079AA1224C59001ACE0FBA3E0FADB
:101EDB00A3E0240812321D9001AF122A857BFF7AF2
:101EEB000179E71224C59001AFE0FCA3E0FDA3E06C
:101EFB00FEA3E0FF7810122A5F90019EEEF0A3EF95
:101F0B00F09001AFE0FCA3E0FDA3E0FEA3E0FF90A7
:101F1B0001A0EEF0A3EFF07BFF7A0079A390019E76
:101F2B00E0FFA3E0900200CFF0A3EFF01224C57BFB
:101F3B00FF7A0079A39001A0E0FFA3E0900200CF0D
:101F4B00F0A3EFF01224C57BFF7A0079AA1224C507
:101F5B009001ACE0FBA3E0FAA3E0241012321D9039
:101F6B0001B3122A857BFF7A0179F71224C5900100
:101F7B00B3E0FCA3E0FDA3E0FEA3E0FF7810122A80
:101F8B005F90019EEEF0A3EFF09001B3E0FCA3E0B5
:101F9B00FDA3E0FEA3E0FF9001A0EEF0A3EFF07B2A
:101FAB00FF7A0079A390019EE0FFA3E0900200CF9F
:101FBB00F0A3EFF01224C57BFF7A0079A39001A068
:101FCB00E0FFA3E0900200CFF0A3EFF01224C57B5B
:101FDB00FF7A0079AA1224C59001BFE4F0A3740A1A
:101FEB00F09001B3E0FCA3E0FDA3E0FEA3E0FF90C3
:101FFB0001C1122A859001C5122A9100000000E44C
:10200B007B18FAF9F89001A8E0FCA3E0FDA3E0FE31
:10201B00A3E0FF1229AEEF2401FFE43E9001DFF0B5
:10202B00A3EFF09001CBE4F0A37480F09001B7E044
:10203B00F8A3E0F9A3E0FAA3E0FB9001CBE0FEA349
:10204B00E02406F58274003EF583E0FFE4FCFDFE20
:10205B00EB2FFFEE3AFEED39FDEC38FC9001B71299
:10206B002A859001CCE004F070069001CBE004F0DF
:10207B009001CBE07004A3E064BF70B09001CBE49F
:10208B00F0A374C0F09001BBE0F8A3E0F9A3E0FA71
:10209B00A3E0FB9001CBE0FEA3E02406F5827400E5
:1020AB003EF583E0FFE4FCFDFEEB2FFFEE3AFEED89
:1020BB0039FDEC38FC9001BB122A859001CCE00471
:1020CB00F070069001CBE004F09001CBE07004A31C
:1020DB00E064DF70B09001B7A3A3A3E0FF9000C54D
:1020EB00EFF09001BBA3A3A3E0FF9000E5EFF0D2CC
:1020FB00107D887C08123183123180C2107FF4125C
:10210B0036EAE4FFFE12303E9001DDEEF0A3EFF075
:10211B00644C7003EE642060187BFF7A0179419068
:10212B0001DDE0FFA3E0900200CFF0A3EFF012245B
:10213B00C57DCD7CAB7F117E981231877F117E9848
:10214B0012303E9001DDEEF0A3EFF064CD7003EEA4
:10215B0064AB60187BFF7A0179679001DDE0FFA328
:10216B00E0900200CFF0A3EFF01224C5E49001DD64
:10217B00F0A3F09001E1F0A37428F0E49001CBF010
:10218B00A3F09001E1E0FEA3E0FF9001CBE0FCA304
:10219B00E0FDC39FEE6480F8EC6480985074EDAE64
:1021AB00047802C333CE33CED8F9FDAC06249BF5AD
:1021BB0082741C3CF583E493FE749C2DF582741C95
:1021CB003CF583E493FDEDFFC006C0079001CBE027
:1021DB00FEA3E07802C333CE33CED8F9FDAC062490
:1021EB009DF582741C3CF583E493FE749E2DF58261
:1021FB00741C3CF583E493FDEEFCD007D006123142
:10220B00879001CCE004F070069001CBE004F00263
:10221B00218D7FF41236EA7D777C071231831231E0
:10222B00807FF41236EA1237287BFF7A0279061286
:10223B0024C57B017A7E79009001F67402F0A3E449
:10224B00F0FD7C7E12332CD2AF90FFD5E493FE9041
:10225B00FFD4E493FDEDFF9001EFEEF0A3EFF090D0
:10226B000054E014603424FE700302233214700314
:10227B0002234924026003022383900050E0FEA353
:10228B00E0FDEDFFC006C007A3E0FEA3E0FDEEFC02
:10229B00D007D00612318702237E7BFF7A0079AA02
:1022AB001224C57BFF7A0279191224C57BFF7A00B1
:1022BB0079A3900050E0900200F01224C57BFF7AC6
:1022CB000079A3900051E0900200F01224C57BFF2F
:1022DB007A0079AA1224C5900050E0FEA3E0FDED30
:1022EB00FF12303E9001E3EEF0A3EFF07BFF7A029A
:1022FB0079241224C57BFF7A0079A39001E3E0FFD8
:10230B00A3E0900200CFF0A3EFF01224C57BFF7A7D
:10231B000079AA1224C59001E3E0FCA3E0FDEC9048
:10232B000052F0EDA38011900051E02400F582E4FF
:10233B00347EF583E0900053F0E4A3F0803A9000F4
:10234B0053E0FF900051E0FE2400F582E4347EF56B
:10235B0083EFF0EEB4FF1C7F007E7E1236B97B015B
:10236B007A7E79009001F67401F0A3E4F0FF7E7E93
:10237B00123397E4900054F0200F0302226A90016D
:10238B0008E0FCA3E0FDA3E0FEA3E0FFC006C0074E
:10239B009001EFE0FEA3E0FBAA06D007D006C3EF47
:1023AB009BFFEE9AFEED9400FDEC9400FCE47B6445
:1023BB00FAF9F8122923E47B1CFAF9F81235F89094
:1023CB0001E5122A85E47B64FAF9F89001E5E0FC5B
:1023DB00A3E0FDA3E0FEA3E0FF1235F89001E912A4
:1023EB002A859001E5E0FCA3E0FDA3E0FEA3E0FF5E
:1023FB00EC339001E55009A3A3A3E0122A40800B14
:10240B00E0FCA3E0FDA3E0FEA3E0FFE47B64FAF9AC
:10241B00F81235F8AF039001EDEAF0A3EFF07BFF74
:10242B007A00798E9001E9E0FCA3E0FDA3E0FEA326
:10243B00E0FF900200122A859001EDE0FFA3E090EF
:10244B000204CFF0A3EFF01224C5C20F02226AE5FB
:10245B00082400F582E43402F583E005082290019C
:10246B00FD300903900200E475F001122AC2022824
:10247B00B52002E97F2ED2028018EF540F2490D49E
:10248B003440D4FF30060BEF24BFB41A00500324A2
:10249B0061FFE50960021509050CE50C7002050BDF
:1024AB0030090E9001FDE475F001122AC2EF0228EB
:1024BB00FB0237847403D2098003E4C209F5089048
:1024CB0001FD122AD9E4F509F50BF50CE5096007B6
:1024DB007F2012249D80F5750AFFC203C202C2043D
:1024EB00C205C207C208C20A122469FF700D300967
:1024FB00057F001224AEAF0CAE0B22B4255FC2D504
:10250B00C206122469FF24D0B40A00501A75F00ACF
:10251B00780930D50508B6FF0106C6A426F620D5E6
:10252B00047002D20580D924CFB41A00EF5004C234
:10253B00E5D2060226AFD20380C6D20280C0D204F7
:10254B0080BCD2D580BAD20780B47F2012249D20C4
:10255B0004077401B5090040F112245AFF12249D9F
:10256B000224D7D20AD208809512245AFB12245A7D
:10257B00FA12245AF94A4B700679807A277BFF208E
:10258B00042EE509602A7E008E827583001228CE08
:10259B0060060EEE650A70F0C2D5EBC0E0EAC0E053
:1025AB00E9C0E0EE1226F6D0E0F9D0E0FAD0E0FB7D
:1025BB001228B5FF60AAEBC0E0EAC0E0E9C0E01268
:1025CB00249DD0E02401F9D0E03400FAD0E0FBE503
:1025DB000A0460DCD50AD980877BFF7A2679F2D290
:1025EB0004809C791080027908C208C20A8008D244
:1025FB00D5790A8004790AC2D5E50A047002F50A76
:10260B00E4FAFDFEFF12245AFC7B0820031312246C
:10261B005AFD7B1030020A12245AFE12245AFF7BF9
:10262B0020EC3382D592D55013C3E43002069FFFC2
:10263B00E49EFEE42003039DFDE49CFCE4CBF8C286
:10264B0003EC700CCFCECDCCE824F8F870F38017E8
:10265B00C3EF33FFEE33FEED33FDEC33FCEB33FB1B
:10266B00994002FB0FD8E9EB300305F8D0E0C448E2
:10267B00B203C0E00AEC4D4E4F78207B0070C2EAEB
:10268B00B50A0040BCC0E01226F8D0F0D0E0200321
:10269B0004C4C0E0C4B203C0F0122486D0F0D5F05D
:1026AB00EB0224D7122AE225745325EE5825454C0C
:1026BB0025414225F24F25FA4425FA49255A43264E
:1026CB00005525E44625E44525E44727A050254938
:1026DB002D254D2E25702B255123256E2027892A3C
:1026EB00250948000025683F3F3F00790AA2D52005
:1026FB000514300709B910020404B9080104A2D566
:10270B002008025001042004689204B509005034DB
:10271B00C0E07F203005197F30A204720872075089
:10272B000F12274FC204C208C207C20A7F30800FA4
:10273B00300703E9C0E012249D300703D0E0F9D045
:10274B00E0B509CC3007177F30B9100C12249D7FF0
:10275B00583006077F788003B9080312249D300494
:10276B00057F2D02249D7F20200AF87F2B2008F364
:10277B0022920480CF286E756C6C2900D203122430
:10278B005A3003F8C203780930D50108F60225093F
:10279B002D5043495812245A2403B405004001E438
:1027AB0090279B9312248E743A12248ED2057509AE
:1027BB00040225EEE709F608DFFA8046E709F2087E
:1027CB00DFFA803E88828C83E709F0A3DFFA803240
:1027DB00E309F608DFFA8078E309F208DFFA807084
:1027EB0088828C83E309F0A3DFFA806489828A8371
:1027FB00E0A3F608DFFA805889828A83E0A3F20807
:10280B00DFFA804C80D280FA80C680D4806980F257
:10281B008033801080A680EA809A80A880DA80E2DC
:10282B0080CA803389828A83ECFAE493A3C8C58279
:10283B00C8CCC583CCF0A3C8C582C8CCC583CCDFBC
:10284B00E9DEE7800D89828A83E493A3F608DFF93A
:10285B00ECFAA9F0EDFB2289828A83ECFAE0A3C89B
:10286B00C582C8CCC583CCF0A3C8C582C8CCC583F0
:10287B00CCDFEADEE880DB89828A83E493A3F2086B
:10288B00DFF980CC88F0EF60010E4E60C388F0ED6D
:10289B002402B4040050B9F582EB2402B4040050B6
:1028AB00AF232345822390280F73BB010689828AAD
:1028BB0083E0225002E722BBFE02E32289828A8355
:1028CB00E49322BB010CE58229F582E5833AF5837B
:1028DB00E0225006E92582F8E622BBFE06E92582B6
:1028EB00F8E222E58229F582E5833AF583E4932227
:1028FB00BB010689828A83F0225002F722BBFE01BC
:10290B00F322A3F8E0C5F025F0F0E5821582700202
:10291B001583E0C838F0E822E88FF0A4CC8BF0A444
:10292B002CFCE98EF0A42CFC8AF0EDA42CFCEA8E96
:10293B00F0A4CDA8F08BF0A42DCC3825F0FDE98FB9
:10294B00F0A42CCD35F0FCEB8EF0A4FEA9F0EB8FB0
:10295B00F0A4CFC5F02ECD39FEE43CFCEAA42DCE7D
:10296B0035F0FDE43CFC2275F008758200EF2FFF7B
:10297B00EE33FECD33CDCC33CCC58233C5829BED4C
:10298B009AEC99E58298400CF582EE9BFEED9AFD50
:10299B00EC99FC0FD5F0D6E4CEFBE4CDFAE4CCF900
:1029AB00A88222B800C1B90059BA002DEC8BF08473
:1029BB00CFCECDFCE5F0CBF97818EF2FFFEE33FE41
:1029CB00ED33FDEC33FCEB33FB10D703994004EBF9
:1029DB0099FB0FD8E5E4F9FA227818EF2FFFEE33C5
:1029EB00FEED33FDEC33FCC933C910D7059BE99AD7
:1029FB004007EC9BFCE99AF90FD8E0E4C9FAE4CC68
:102A0B00FB2275F010EF2FFFEE33FEED33FDCC33D1
:102A1B00CCC833C810D7079BEC9AE899400AED9BBA
:102A2B00FDEC9AFCE899F80FD5F0DAE4CDFBE4CC99
:102A3B00FAE4C8F922C3E49FFFE49EFEE49DFDE4A3
:102A4B009CFC22EB9FF5F0EA9E42F0E99D42F0E8F8
:102A5B009C45F022E8600FECC313FCED13FDEE1365
:102A6B00FEEF13FFD8F122E8600FEFC333FFEE3315
:102A7B00FEED33FDEC33FCD8F122ECF0A3EDF0A32B
:102A8B00EEF0A3EFF022A8828583F0D083D08212E0
:102A9B002AA8122AA8122AA8122AA8E473E493A33C
:102AAB00C583C5F0C583C8C582C8F0A3C583C5F06F
:102ABB00C583C8C582C822F8E0FBA3A3E0F925F0C3
:102ACB00F0E582158270021583E0FA38F022EBF004
:102ADB00A3EAF0A3E9F022D083D082F8E49370123A
:102AEB00740193700DA3A393F8740193F5828883FB
:102AFB00E4737402936860EFA3A3A380DFC10CC1DE
:102B0B008D41018E0041019600C10F440108000068
:102B1B0000006080010C804E0800814E0800824E40
:102B2B000800834E0800844E0800854E0800864E30
:102B3B000800874E080080A7140081A7140082A705
:102B4B00140083A7140084A7120085A7120086A780
:102B5B00120087A7120080A83C0081A83C0082A825
:102B6B003C0083A83C0084A83F0085A83F0086A8B2
:102B7B003F0087A83F0080A63C0081A63C0082A6B0
:102B8B003C0083A63C0084A63C0085A63C0086A6A0
:102B9B003C0087A63C0041010600C110410107160D
:102BAB006100000611050600000000000000000097
:102BBB00000000000000000000000000000000000A
:102BCB0000000000000000000000000000000000FA
:102BDB0000000000000000000000000000000000EA
:102BEB0000000000000000000000000000000000DA
:102BFB0000000000000000000000000000000000CA
:102C0B0000000000000000000000000000000000B9
:102C1B000000380000000000000000000000000071
:102C2B000000000011002380007000000000000075
:102C3B00000000000000010846495420000000007D
:102C4B0000000000000000001F00093A3130303254
:102C5B00393731313031202020202020312042687B
:102C6B0007D000630200000035323836323037357A
:102C7B0030202020202020203135313031332020CE
:102C8B000000002900000000000000000000000010
:102C9B000000000000000000000000000000000029
:102CAB000000000042000000004100020041000350
:102CBB00004802250104080C1018203048022D038F
:102CCB000104000506070200C0E0C0F0C083C0820B
:102CDB00C0D075D000C000C001C002C004C005C088
:102CEB0006C007A2AF9200C2AFA9A775A720E5B98E
:102CFB00540F146067147003022DA124FE7003029D
:102D0B002DAC24FA604924FE7003022DA614700327
:102D1B00022DA624046003022DAF53B9F6900000D8
:102D2B00E475F00112290DFE740625F0F58274008E
:102D3B003EF583E0FD7002AC058DBBC3900000E057
:102D4B0094014004E4F0A3F0900003E4F0805553A9
:102D5B00B9F59000027401F0A3F08048E5B930E4B6
:102D6B000553B9EF802B900000E475F00112290D8B
:102D7B00FE740625F0F58274003EF583E0FDB41178
:102D8B0001FC8DBBC3900000E094014004E4F0A370
:102D9B00F053B9FE800E53B9FD800953B9FB022ED7
:102DAB004553B9FBE5AB30E203022E3A900107E540
:102DBB00BCF0900003E0B401EB900107E0645060BD
:102DCB00E3900002E0147035900107E0C39480405B
:102DDB001D900085E075F080A4FF900107E07A005C
:102DEB002FFEEA35F0900000F0A3CEF08039900171
:102DFB0007E0FF900000E4F0A3EFF0802A900107BA
:102E0B00E0FF900000E475F00112290DFA7406251D
:102E1B00F0F58274003AF583EFF0C3900000E09474
:102E2B00014004E4F0A3F0900002E4F0022DAF5354
:102E3B00B9DFAF018FA7A20092AFD007D006D005A4
:102E4B00D004D002D001D000D0D0D082D083D0F02B
:102E5B00D0E032C0E0C083C082C0D075D000C006C5
:102E6B00C007C20130C203022F22E5C054F02480F8
:102E7B00606D24C0602624E06003022F1E90019534
:102E8B00E025E0F5C253C2FEA20EE43342C2C2C536
:102E9B009000057401F0900004F0807D30C1232078
:102EAB000E7790018CE0FF900004E0FED39F50154D
:102EBB0074902EF582E43401F583E0F5C2900004A2
:102ECB008039301006D2C4C20B804ED2C4D2C5900A
:102EDB000190E004F0704290018FE004F0803A9092
:102EEB000005E0FFC39402749650152FF582E4346D
:102EFB0001F583E5C2F0D2C1900005E004F0801922
:102F0B002FF582E43401F583E5C2F0C20BC2C1D2C6
:102F1B00C48006D2018002D20130011E53C17F430F
:102F2B00C180C2C5C2C4C2C1C20BC201900190E034
:102F3B0004F0700690018FE004F0C2C0D007D006F9
:102F4B00D0D0D082D083D0E0329001A5122A8590C8
:102F5B0001AFE5A7F075A7209001A5E0C313FEA371
:102F6B00E013FFE4FCFD9001A9E0F8A3E0F9A3E076
:102F7B00FAA3E02FFFEA3EFEED39FDEC38FC9001A1
:102F8B00A9A3A3A3E0FB1229AE9001AEEFF0E4904E
:102F9B0001ADF09001ADE0FFC39408400302303C5B
:102FAB0074252FF582E43402F583E0FF9001AEE047
:102FBB00FEEFC39E4072E47F02FEFDFC9001A9E090
:102FCB00F8A3E0F9A3E0FAA3E0FB122923A804A9D4
:102FDB0005AA06AB079001ADE02425F582E4340287
:102FEB00F583E0FFE4FCFDFE122923A804A905AA42
:102FFB0006AB079001A5E0FCA3E0FDA3E0FEA3E078
:10300B00FF1229AEC3E49FFFE49EF596EFF5959072
:10301B0001ADE0242DF582E43402F583E044404217
:10302B00949001AFE0F5A7229001ADE004F0022FE0
:10303B009E80FE9001F9EEF0A3EFF090018C7402EC
:10304B00F09001957410F09001F9E0FCA3E0FDEC19
:10305B00900191F0EDA3F01234609001957410F093
:10306B001234C0400B7BFF7A0079CF1224C580CB82
:10307B00900197E0FEA3E0FDEDFF9001FBEEF0A3C6
:10308B00EFF07BFF7A0079F01224C57BFF7A007991
:10309B00A39001F9E0FFA3E0900200CFF0A3EFF0C3
:1030AB001224C57BFF7A0079F41224C57BFF7A00CA
:1030BB0079A39001FBE0FFA3E0900200CFF0A3EF18
:1030CB00F01224C57BFF7A0079AA1224C59001FB6C
:1030DB00E0FEA3E0FF2212003975FF800000000024
:1030EB00000075EF0275D94000787FE4F6D8FD75C6
:1030FB00812202313B0233FCE493A3F8E493A34017
:10310B0003F68001F208DFF48029E493A3F8540757
:10311B00240CC8C333C4540F4420C8834004F45652
:10312B00800146F6DFE4800B01020408102040808A
:10313B00902B08E47E019360BCA3FF543F30E5095C
:10314B00541FFEE493A360010ECF54C025E060A88A
:10315B0040B8E493A3FAE493A3F8E493A3C8C5821D
:10316B00C8CAC583CAF0A3C8C582C8CAC583CADF8B
:10317B00E9DEE780BEE4FDFC7F0D7E989001F9EE61
:10318B00F0A3EFF0A3ECF0A3EDF090018C7404F03E
:10319B009001957410F09001F9E0FCA3E0FDEC9028
:1031AB000191F0EDA3F09001FBE0FCA3E0FDEC90AE
:1031BB000193F0EDA3F07BFF7A00799F1224C57B7E
:1031CB00FF7A0079A39001F9E0FFA3E0900200CF12
:1031DB00F0A3EFF01224C57BFF7A0079A81224C567
:1031EB007BFF7A0079A39001FBE0FFA3E090020044
:1031FB00CFF0A3EFF01224C57BFF7A0079AA800BE6
:10320B00123460400B7BFF7A0079AD1224C580F03D
:10321B00D322F9E43AFA9001F1EBF0A3EAF0A3E937
:10322B00F0A3122A9100000000E49001F8F0900145
:10323B00F4E0FCA3E0FDA3E0FEA3E0FF7808122A74
:10324B00729001F4122A859001F4E0F8A3E0F9A33F
:10325B00E0FAA3E0FBC000C001C002C0039001F183
:10326B00E0FBA3E0FAA3E0F99001F8E0F5827583A7
:10327B00001228CEFFD003D002D001D000EB4FFFBD
:10328B00EAFEE9FDE8FC9001F4122A859001F8E0D2
:10329B0004F0E0B404989001F4E0FCA3E0FDA3E09B
:1032AB00FEA3E0FF229001F9EEF0A3EFF0A3ECF008
:1032BB00A3EDF0A3EAF0A3EBF0A3A3E0FF74017E70
:1032CB0000A807088005C333CE33CED8F924FFFFFF
:1032DB00EE34FFAD07FC9001FDA3E0F9EDAE04A8C1
:1032EB0001088005C333CE33CED8F9F4FFEEF4FEDC
:1032FB009001F9E05EF0A3E05FF0A3E05CFEA3E0D9
:10330B005DA801088005C333CE33CED8F9FF9001F9
:10331B00F9E04EFEA3E04FFF9001F9EEF0A3EFF0C2
:10332B00229001F1EBF0A3EAF0A3E9F0A3ECF0A3F8
:10333B00EDF0E49001F8F0A3F09001F6E0FEA3E0CD
:10334B00FFA3E0FCA3E0FDC39FEC9E50339001F57F
:10335B00E02DFF9001F4E03CFE12370E9001F1E0FE
:10336B00FBA3E475F00112290DA9F0FAEF1228FB6B
:10337B009001F9E004F070C19001F8E004F080B91D
:10338B009001F1E0FBA3E0FAA3E0F9229001F3EB4B
:10339B00F0A3EAF0A3E9F09001F1EEF0A3EFF090C7
:1033AB0001F8EEF0A3EFF09001F6E0FEA3E0FF9042
:1033BB0001F2E02FFD9001F1E03EFC9001F8E0FE00
:1033CB00A3E0FFC39DEE9C50279001F3E0FBA3E429
:1033DB0075F00112290DA9F0FA1228B5FD120003A0
:1033EB009001F9E004F070BF9001F8E004F080B7B1
:1033FB002212003E9001A0122A910001C2007F0010
:10340B007EA27D4A7C0412363C20862A75E340C29C
:10341B0087E4FFFE0FBF00010EEFF44E70F6D2876C
:10342B003087FDE4FEFF0FBF00010EEF640A4E7004
:10343B00F5E4F5E380D312367CE490018FF0A3F032
:10344B00C2AF75A72053BAFE43BA44D2AF121D4187
:10345B007FF40236EA9001FD122A91000000002051
:10346B000BFDD20BC20ED2C5300B489001FDE0FC18
:10347B00A3E0FDA3E0FEA3E02401FFE43EFEE43D58
:10348B00FDE43CFC9001FD122A85E47FFFFEFDFC70
:10349B009001FDE0F8A3E0F9A3E0FAA3E0FBD3125F
:1034AB002A4E40C49001FD122A91000000001235F3
:1034BB006AC322D3229001FD122A91000000002042
:1034CB000BFDD20BD20ED2C5300B489001FDE0FCA8
:1034DB00A3E0FDA3E0FEA3E02401FFE43EFEE43DF8
:1034EB00FDE43CFC9001FD122A85E47FFFFEFDFC10
:1034FB009001FDE0F8A3E0F9A3E0FAA3E0FBD312FF
:10350B002A4E40C49001FD122A9100000000123592
:10351B006AC322D3229001F3ECF0A3EDF0A3EAF0FF
:10352B00A3EBF09001F1EEF0A3EFF012303EC007E9
:10353B009001F3E0FCA3E0FDA3E0FAA3E0FBA3E022
:10354B00FFA3E09001FFCFF0A3EFF0D0071232B052
:10355B00AC06AD079001F1E0FEA3E0FF0231877FDF
:10356B000943D50C75F2FF75A55FE59030E210AEFF
:10357B00071FEE600A5390F7004390080080EB752D
:10358B00A55F5390F75390FB0043900800439004C2
:10359B000053D5F375A55053C17F43C180C2C5C23B
:1035AB00C4C2C1C20B22C0E0C0F0C083C082C0D075
:1035BB0075D000C000C004C005C006C007C2EDE551
:1035CB00BDAEBE7802CEC313CE13D8F9FFE4FCFD1B
:1035DB00900108122A85D20FD007D006D005D0044F
:1035EB00D000D0D0D082D083D0F0D0E032C2D5E89A
:1035FB0030E70FB2D5E4C39BFBE49AFAE499F9E404
:10360B0098F8EC30E717B2D512362E1229AEE4C378
:10361B009BFBE49AFAE499F9E498F880031229AE3B
:10362B0030D50DE4C39FFFE49EFEE49DFDE49CFCBE
:10363B00229001A4E5A7F075A72043C812E4F5DAA0
:10364B0043930CC004C005C006C0079001A0E0FC6A
:10365B00A3E0FDA3E0FEA3E0FF9001A9122A85D011
:10366B0007D006D005D004122F549001A4E0F5A783
:10367B002290019CE5A7F01237EC1237F6120035B9
:10368B001237FD12373E1238041237D5120056127C
:10369B0000761237541237A11237AE12380B12378D
:1036AB00641237BB1237C890019CE0F5A722A2AF7A
:1036BB009202ADA7E4F5A7C2AF75FF8075EF028F3D
:1036CB00828E8375B7A575B7F1438F0375FF807530
:1036DB00EF02F0538FFCAF058FA7A20292AF2253DC
:1036EB0088CF5389F0438901438E04EF6012C28C5B
:1036FB00758CE6758AC0C28DD28C308DFD1F80EB28
:10370B00C28C22A2AF9202ADA7E4F5A7C2AF8F8203
:10371B008E8393FFAE058EA7A20292AF229001F784
:10372B00E4F0A304F07B0E7A00FD7C007F617E84C5
:10373B0002352075B30775B29C75BB1475DF6C75BC
:10374B00BC2875B98643E8C12275A710E5985404C7
:10375B005398FB43980442982275A72075944375A0
:10376B0096FE7595C843C8102275A72053BAFD4322
:10377B00BA0275A71053987F32AEA775A72030C930
:10378B00FD8F92C2C98EA72253C17F43C180539133
:10379B007FC2C5C20B32E5C0540453C0FB43C00407
:1037AB0042C022E4F5A7758E01758920438840221B
:1037BB0075BD5053BAFB43BA1843BA0222E4F5A7BE
:1037CB0075E68975F30675A88022E4F5A775A9033C
:1037DB00E5A930E7FB22E4F5A7F5A9E5A930E7FB5E
:1037EB0022E4F5A77597DE7597AD2275A40275D403
:1037FB003F2275E34175E1042275A71075C12022A4
:07380B0053C1FC43C1DD22A3
:00000001FF
