:020000040000FA
:10000000022F53A2AF9200A9A7E4F5A7C2AF75FFD4
:100010008075EF028F828E8375B7A575B7F1438F18
:100020000175FF8075EF02EDF0538FFEAF018FA7D2
:0A003000A20092AF2275A5652222FE
:10003B00022D73900314E5A7F0123611900314E010
:03004B00F5A722F4
:1000530002333FAF885388AF758C38758A13758D1B
:0F006300F0758B34EF5440FEEF54104E4288225C
:100073000235D0E59154045391FB439104429122FC
:03008300022B58F5
:10008B000235B12054203D20256C642E2564284375
:10009B0029200A000D0A20416464726573732030B5
:1000AB0027732076616C7565206572726F723A20CA
:1000BB00203078253034780D0A000D0A2041646415
:1000CB00726573732030783938313120277320767D
:1000DB00616C7565206572726F723A2030782530CD
:1000EB0034780D0A0030A6CC3F3FA1A43FA6CC3FED
:1000FB0061A1EA6F307825303478003078393831A7
:10010B0031A6CC3F3FA1A43FA6CC3F61A1EA6F3003
:10011B00782530347800307839663066A6CC3F3F8E
:10012B00A1A43FA6CC3F61A1EA6F3078253034788B
:10013B00004D4355205354415254204F4B2E2E2EDD
:10014B002E2E2E00C2ED0100C7F8000001000100A9
:10015B0000001A580100000000000FD000000FD063
:10016B0000000FD000000FD000000FD000000FD008
:10017B0000000FD000000FD000000FD000000FD0F8
:10018B0000000FD000000FD000000FD000000FD0E8
:10019B000000000000000000000000000000000054
:1001AB00010005040000000000000000000000003A
:1001BB000000000000000000000000000000000034
:1001CB000100059C010006440100066C0400004080
:1001DB0001F4010000200004000201F402000002FF
:1001EB000001FFFC00010006000A000600050005E7
:1001FB00003B001E0001000A000000000000000090
:10020B0001000003004B00320190050600000000C6
:10021B0000000000000000981000A989100DCBAB66
:10022B001000DCBC10065DCD0000065D0000007602
:10023B00000000000000021000032F01000000006E
:10024B00000103E8020001800020060600140000F4
:10025B0000000000000000001820010000000173E6
:10026B00A8211D589C21FFE0B8640082D401100422
:10027B00A8409805AC84FFFFD401B014E2C3100072
:10028B009C400001A4840003E0421802D401A0109A
:10029B00E2842000B8420008D4017008E2942000E8
:1002AB009DC00000D401900CD401C018D401481C8F
:1002BB00D40108009E940004E04410009F00000A43
:1002CB00AA4E000007C004E0A8760000E16BA0482E
:1002DB00186000008CB7003EA8632DF0A56B0007DB
:1002EB00E16B18008C8B0000E56428001000000700
:1002FB00A8770000E0A52002E5722800100000039B
:10030B0015000000AA4500008C63003FE5A418000F
:10031B0010000006E0841802E56E200010000003B8
:10032B0015000000A9C400009F18FFFFBC38000097
:10033B0013FFFFE5150000009E52FFFFBC32FFFFCD
:10034B000C000006A860980407C004D3A882000024
:10035B0003FFFFFB9E52FFFF9C4200049DCEFFFF5D
:10036B00BC2EFFFF0C000006A860980407C004CA4F
:10037B00A882000003FFFFFB9DCEFFFF8521001C21
:10038B00842100008441000485C100088641000CD3
:10039B008681001086C100148701001844004800B4
:1003AB009C2100209C21FFE8D4017008D401481443
:1003BB00D4010800D4011004D401900CD401A01076
:1003CB00A9C30000946E0000BC2300000C000016B3
:1003DB00A4430F00BC2208001000000E968E0002F2
:1003EB009E400000A443F0FFA880FFFFE062900056
:1003FB00A8B4000007C0049F9E520100BC32080045
:10040B0013FFFFFBA880FFFF03FFFFEF9DCE000450
:10041B00A880FFFF07C00497A8B4000003FFFFEA02
:10042B009DCE00048521001484210000844100042A
:10043B0085C100088641000C8681001044004800ED
:10044B009C2100189CA000019C21FFF4E085200852
:10045B00D4011004A8430000A8609811A8A40000C0
:10046B00D401480807C00483D4010800B4605001CC
:10047B00D40218089C600000DC02181A85210008C1
:10048B008421000084410004440048009C21000C9E
:10049B00A4A400079C21FFF0B8A5000BD401100405
:1004AB009CC03800A84400009C80004ED40170080A
:1004BB00D401480CA9C3000007C00783D40108006E
:1004CB00A4A20008A86E0000BC05000010000003E9
:1004DB009C8000DF9CA0002207C0077B9CC000E231
:1004EB008521000C842100008441000485C1000893
:1004FB00440048009C2100109C21FFECD401100407
:10050B00D4017008D4014810D4010800D401900C18
:10051B00A84300008E4300148CA3000CA6520007C6
:10052B00E572280010000004A9C4000000000005BB
:10053B009CA5FFFFE5B22800100000039CA500015D
:10054B00D802280C8CA2000CA4A50007A86E0000F2
:10055B00B8A5000B9C80004E07C0075B9CC0380001
:10056B008C62000CE4239000100000158521001014
:10057B008C82001407FFFFC7A86E0000A86E000056
:10058B009CA002009CC03F8007C0074F9C800001CD
:10059B00A862000007FFFFACA88E0000B4605001FA
:1005AB00D40218089C60001EA88E0000D802180EFA
:1005BB0007FFFF2DA8620000852100108421000099
:1005CB008441000485C100088641000C44004800AA
:1005DB009C2100149C21FFF0D401480CD40108008D
:1005EB00D4011004D401700899C3001ABC0E00008A
:1005FB000C0000168521000CB440500184A30008A8
:10060B00E042280298B7001CB8420059E482280047
:10061B001000000E8521000CA8430000186001009B
:10062B0007C00806A8631A489C600001DC02181A70
:10063B008C62000FBC030000100000048521000C2D
:10064B00D802700E8521000C842100008441000427
:10065B0085C10008440048009C210010B863008449
:10066B009C21FFF4D4011004A443000FD4014808CB
:10067B00BC02000210000013D4010800BC020003EE
:10068B0010000009BC0200000C00000A18600100F9
:10069B0007FFFF45A86318649C6000050000000F6E
:1006AB00A88200001860010000000008A86318FC75
:1006BB0007C002F19C6000020000000B85210008BE
:1006CB0018600100A86319A407FFFF37150000008D
:1006DB009C6000059C80000007C002EA150000002A
:1006EB008521000884210000844100044400480057
:1006FB009C21000C9C21FFF8A48300FFD40148042B
:10070B00BC04000010000006D401080007C002DA88
:10071B009C6000020000001F8521000407C002D965
:10072B009C60000DA860981007C006C89C80001A3A
:10073B0007C003C5A8609818B88B008CA56B000F79
:10074B00BC0B00001000000CAC64000DE0A0180204
:10075B00E0651804BD83000010000008BC04000015
:10076B009C60000D07C002C79C80000100000009BF
:10077B0085210004BC04000013FFFFEB15000000F3
:10078B0007C002BD9C60000D03FFFFE8A860981036
:10079B0084210000440048009C2100089C21FFF8A4
:1007AB00A89700009CA00042D401480407C0067C17
:1007BB00D401080085210004842100004400480076
:1007CB009C2100089C21FFF4D4011004A443000FCA
:1007DB00D4014808BC2200011000000CD401080011
:1007EB0018800100A8609819A88400F807C0038A34
:1007FB00948400009C60000F07C002A2A882000036
:10080B0000000006852100081860008907C0064C0F
:10081B00A8636AAF8521000884210000844100048D
:10082B00440048009C21000C9C21FFD4186001005F
:10083B0018800100D401100418400100A8631A5855
:10084B00A8841F98A84200F8D4014828D4010800B6
:10085B00D4017008D401900CD401A010D401B014B1
:10086B00D401C018D401D01CD401E02007C003C0B0
:10087B00D401F02407C00366150000009462000049
:10088B00BC23000010000007186001001880010055
:10089B00A8630000040003BCA8841A58DC025800AB
:1008AB001AE00100AAF70074A860981407C0036649
:1008BB00A840FFF0E42B1000100000061840CFFFFB
:1008CB0007C0035A9C60000007BFFE85150000009F
:1008DB00A842FFFFC14010009C800000C1402001D6
:1008EB00186001009DC0FFFF07C00754A863172CB9
:1008FB009DCE0001A5CE0007B86E0003B84E0006D2
:10090B00E043100018600100A8631D58E042180076
:10091B0007C0079FA86E0000B96B0088BDAB001F16
:10092B00100001CBBD4B0017A64B001FBD52000999
:10093B0010000009BD92000BBD720008100000D81A
:10094B00BC1200021000000C9C80FFFE0000038A0A
:10095B001500000010000388BDB2000C100001044C
:10096B00BC1200181000016DA880820000000382E9
:10097B00150000008C6200429EC00001E063200362
:10098B00E2D67008D802184207C0032FA860980F50
:10099B00A8609816E16B704807C0032BA64B0001AB
:1009AB00A8609811D8029010A89600009CA0000097
:1009BB0007C00330AA8B00009062000EBC230064BA
:1009CB001000000CA474FFFFE0637088A4630001A7
:1009DB00BC03000010000360A8960000A8609816E6
:1009EB0007C003249CA000009C600000D802180ED6
:1009FB0007C007AAA86E0000A56B00FFBC12000081
:100A0B001000002CD802580F94B700249CC0003F54
:100A1B00A4A5003FA86E000007C0062B9C800078A1
:100A2B0018600100A88E000007C00704A8631820F7
:100A3B0018600100A88E000007C00700A86317EC20
:100A4B009C800008A86E0000D802200E07C0061A72
:100A5B009C80004EB96B00128CA2000FB96B005D2D
:100A6B00BC050000A86E00001000000CD802580C4A
:100A7B009CA000009C80000107C006139CC0400096
:100A8B0094570018BC220000100000039CA0000229
:100A9B00A8A20000A86E00009C8000DF9CC0000292
:100AAB0007C00609150000000000006D94970000B8
:100ABB00BC0B0000100000319CC0003F94B7002419
:100ACB00A4A5003FA86E00009C80007807C005FE1F
:100ADB00BA94001018600100A88E000007C006D75A
:100AEB00A863182018600100A88E000007C006D369
:100AFB00A86317EC9C6000059C800008D802180DB9
:100B0B00BD74000010000006D802200E9C60000788
:100B1B009C800001D802180DD80220108CA2000D69
:100B2B00A4A50007A86E0000B8A5000B9C80004E82
:100B3B0007C005E59CC038008C62000DD802180C6C
:100B4B0094570018BC220000100000039CA0000268
:100B5B00A8A20000A86E00009C8000DF07C005DA89
:100B6B009CC00002A86E00009C8000019CA00000AD
:100B7B0003FFFFCC9CC040008C62000E9C63FFF611
:100B8B00BC43000D1000003B18600100B460500125
:100B9B0084A20004E063280294B70010B8630050ED
:100BAB00E485180010000032E0B770008CC200130F
:100BBB009C660012B8630002E077180084630000A3
:100BCB00B883005CD40218209C84001AB8840002FD
:100BDB00E097200084840000D8029012D4022024D5
:100BEB00A48300FFB8630004A4E4000FA4840007EF
:100BFB00B8630048D802200CD8023814D40218204D
:100C0B0018600100DC029018DC029016D805302C1D
:100C1B00A88E000007C00689A86317EC8CA2000CF5
:100C2B0098970022E58520001000000915000000B0
:100C3B0094B70080A4A5007FA86E0000B8A500079C
:100C4B009C80000107C005A09CC03F808C820014D3
:100C5B0007FFFE10A86E00009497000007C005A3C5
:100C6B00A86E0000000002C415000000186001000F
:100C7B00A88E000007C00671A86317889C80001F10
:100C8B009C600000D802201CD802201D9C8000080C
:100C9B00D8021812000002B8D802200E8E82001261
:100CAB00BC340000100000079C600010B4605001C1
:100CBB00D40218049C600009D802180E9C60001026
:100CCB00E283A088BC340000100000031500000074
:100CDB009E800001A86E000007C005779C80007401
:100CEB00A56BFFFFBC4B0001100000039C600001D3
:100CFB009C600000A46300FFBC23000010000005F3
:100D0B008C62001CBC3200091000000815000000AA
:100D1B00D802181EBC43003E0C000005E283A00065
:100D2B00000000058CA2001CE283A002D802A01CCC
:100D3B008CA2001CA86E00009CC0007F9C80004A07
:100D4B0007C00561A4A5007FA86E00009C80004928
:100D5B0007C0056A9CA00000A8808B8C07C0055FAC
:100D6B00A86E000000000284150000008E820012A5
:100D7B009C600010E283A088BC34000010000003CC
:100D8B00150000009E800001A86E000007C0054AF8
:100D9B009C800074A56BFFFFBC4B0001100000048E
:100DAB008C62001D00000006E283A002BC43003EE3
:100DBB0010000004D802181FE283A000D802A01D67
:100DCB008CA2001DA86E00009C80004CA4A5007F87
:100DDB0007C0053D9CC0007F8C620012BC4300061F
:100DEB00100000109C800078A8A0FFFFA86E0000E8
:100DFB0007C005429C800049A880888907C0053739
:100E0B00A86E00008C6200129C630001BC32000CC7
:100E1B0010000259D80218120000003B18600100A4
:100E2B0094B70024A86E0000A4A5003F9CC0003F0F
:100E3B0007C005259E40000018600100A88E000029
:100E4B0007C005FEA86318208C62001FE403900006
:100E5B001000000F9C80000007C001B18C62001EC7
:100E6B008C62001F07C001AEAA4B0000A8720000E5
:100E7B0007C00182A88B00009C80000707C00256A8
:100E8B00A86B00009E4BFF809C800000A86098160A
:100E9B0007C001EDD4022020A56B8000BC2B000005
:100EAB00100000139C600006BDB2004B1000000E3A
:100EBB00BDB200721000000C9D600001BDB2008736
:100ECB00100000099D600002BDB200CB10000006AF
:100EDB009D600003BD5200FE100000039D600005E5
:100EEB009D6000049C600005E0635802D802181353
:100EFB00E0777000D80390409C60000AD802180E6F
:100F0B0018600100A88E000007C005CCA863184824
:100F1B00000002121860010007C004F0A86E000068
:100F2B008C620042A8630001D802184207C0056515
:100F3B00A86E0000A86E000007C0052FAA4B00008A
:100F4B009477001AE48B1800100000059E520010D5
:100F5B00BCB200201000000915000000A86E0000B4
:100F6B009C8000509CA0080007C004D79CC00FFFBA
:100F7B0000000201150000008C620010BC03000091
:100F8B001000002E150000009497000207C004D734
:100F9B00A86E0000A8A0E000A8C0F000A86E00009A
:100FAB0007C004C99C80003B8C620010BC0300008E
:100FBB001000000D150000008C62000FBC23000018
:100FCB00100000189C60001A8C82000C9877001E91
:100FDB00E564180010000004A86E000007C005F5BA
:100FEB009C8000078C62000FBC2300001000000DDA
:100FFB009C60001A8C82000C98770020E564180026
:10100B00100000069CA00022A86E00009C8000DF50
:10101B0007C004AD9CC000E2000000099C80001DCD
:10102B00A88E0000D802180E07FFFC8FA8620000E4
:10103B0000000004150000009C800010D802200E58
:10104B00B4605001000001CCD40218000C0001C3A5
:10105B00186001009E4E00809EC00003BA5200082B
:10106B009F9200139E52002A07C00177A87C0000B4
:10107B00A872000007C00174ABCB00009C80000D70
:10108B00A86E000007C0048CAB0B0000A86E00001C
:10109B0007C00501AA8B0000A87C0000AB4B000029
:1010AB0007C00169A7DE000FA56B000FE55E5800B6
:1010BB00100000039C8000019C800000A48400FFB2
:1010CB00BC24000010000014BC0B000F1000001318
:1010DB009ED6FFFFB6C050018C62000E9C63FFF0E2
:1010EB0086420000A46300FFE2569002BC4300213D
:1010FB0010000199BA52005018800100B863000229
:10110B00A88416A4E0632000846300004400180048
:10111B00150000009ED6FFFFBC36000013FFFFD367
:10112B001500000003FFFFEC15000000947700266C
:10113B00E4921800100001891860010094970002D6
:10114B0007C0046AA86E0000A86E00009C8000080F
:10115B009CA0008007C0045C9CC000F08C62000F58
:10116B00BC0300000C00017AD402B0000000012D7A
:10117B009C80001294970028E492200010000177C5
:10118B00186001009497003C94C20018E09820006E
:10119B00E58430001000000815000000947700264D
:1011AB00E49218000C000005186001000000016BB0
:1011BB00150000009F00000084620024D402B000E0
:1011CB00A483000FB8630044BC24000F0C00001470
:1011DB00D40218249C640014A4B8FFFFE063180029
:1011EB00E0E22000E0621800DC0328008C620014AF
:1011FB00D807D030D80718348CE20012E5A4380099
:10120B0010000003E5B83000D802201210000004D3
:10121B0015000000DC022818DC021816848200205E
:10122B00BC04000010000013BC38000010000009C3
:10123B00150000008CA2001494620016A4A50007F0
:10124B00A4630007E54518001000000A1500000014
:10125B00A484000FA86E000007FFFC8ED802201498
:10126B0084620020B86300440000013BD4021820C4
:10127B0095A2002890E200308C8200129D02002A79
:10128B009CA20031A8CD00009DE000009C600001F5
:10129B00E5A320000C000013A9970000958800001F
:1012AB00E5AC30001000000B15000000916500004C
:1012BB00BD8B000010000004E54B3800100000054A
:1012CB0015000000A8EB0000A9E30000A8CC00006B
:1012DB009C6300019D08000203FFFFEE9CA500012B
:1012EB009CA200289D0200309C600000E423780043
:1012FB000C000013BC24000396250000956C0038ED
:10130B00E1715800E58B300010000008150000005B
:10131B0091680000BD8B000010000008E5AB3800A1
:10132B0010000007BC2400039C6300019CA5000275
:10133B0003FFFFEF9D080001BC2400031000001AFF
:10134B001500000015000000BC2300001000001663
:10135B00150000009482002EE0846802B8A4009F60
:10136B00E0852005E084280294AC003AE56428006F
:10137B001000000D1500000090820031BD840000AC
:10138B00100000081500000090820032BD640000C0
:10139B001000000515000000000000039C60000217
:1013AB009C600001E06218008C8200148C63003496
:1013BB00A4840007D80218149C600019D802200CD2
:1013CB0000000007D802180E9477002AE492180048
:1013DB00100000E115000000D402B000A86200006C
:1013EB0007FFFC46A88E0000000000DC186001001F
:1013FB00A862000007FFFC78A88E00008C62000F2B
:10140B00BC230000100000D5186001009E400100B5
:10141B00A860980F07C0008CE2527008E24B900353
:10142B00BC320000100000CC9C800001A86E0000B4
:10143B00A8B2000007C003A49CC040009C60000140
:10144B00DC029016D8021815DC029018949700361F
:10145B00E06320089C80001FD402B000D802181152
:10146B00000000BDD802200EA862000007FFFC5A46
:10147B00A88E000007C00074A860980F9C60010044
:10148B00E0637008E16B1803BC2B0000100000B385
:10149B0018600100A86E000007C003879C8000093C
:1014AB00A56B8000BC2B0000100000AC1860010085
:1014BB0094770034E4921800100000A81860010023
:1014CB008E420011946200169E52FFFFE318180023
:1014DB00A65200FFD402B000DC02C016BC320000E2
:1014EB001000009DD8029011A86E000007C0037277
:1014FB009C800080A86E00009C80000107C0036EDA
:10150B00AACB00009462001694820018E4641800C1
:10151B00100000041500000000000007DC02181882
:10152B008C6200159C63FFFFDC029018B863005FB0
:10153B00D802181590820015BC0400001000000999
:10154B00A474007FB8B60010B8A50059E583280035
:10155B000C00000A15000000000000099CA300010C
:10156B00B8AB0012B8A50059E54328000C000004E5
:10157B00A4A5FFFF9CA3FFFFA4A5FFFFA86E00007F
:10158B009C80005F07C003509CC0007F9CA0100094
:10159B00A86E00009C80000A07C0034BA8C5000082
:1015AB00949700369C600001E0632008D802181164
:1015BB009C60000000000068DC021816947700069F
:1015CB00E4B218001000006415000000A8620000CF
:1015DB0007FFFB25A88E00009C80001CD402B000E6
:1015EB00D802200EA862000007FFFB97A88E000010
:1015FB000000005A1860010094770004E4B2180050
:10160B001000005515000000000000529C60001BEC
:10161B009477000EE4B218001000004F9C80001B62
:10162B000000004DD802200EA862000007FFFB86C9
:10163B00A88E0000000000479C60001B94770008F8
:10164B00E4921800100000449C8000319C60000064
:10165B00D802200EDC02181A9C6000019497000A35
:10166B00E0632008D80218119477000CE49218005C
:10167B001000003A186001009462001AE35A180037
:10168B008C820011BB5A00109C84FFFFD402B00067
:10169B00BB5A0090A48400FFDC02D01ABC240000CB
:1016AB001000002DD802201194F7000A987700142F
:1016BB00E0633808E5BA18001000000B8C62000CD0
:1016CB00BC030000100000169E4000018CA2000D10
:1016DB00E4851800100000129C63FFFF0000000F50
:1016EB00D802180C98B70016E0A53808E57A280040
:1016FB001000000B9E400001BC43000510000008C9
:10170B00150000008CA2000DE44518001000000429
:10171B00E0639000D802180CAA4400008C82000CE5
:10172B0007C00312A86E0000BC12000010000008D6
:10173B009C80001AA8620000D802200E07FFFACA8C
:10174B00A88E000000000005186001009C600030AE
:10175B00D802180E1860010007C0025AA86300389F
:10176B00A860981007C002B99C80001A03FFFC62A6
:10177B009DCE000107C004DCA86E000003FFFFF73D
:10178B0018600100A96BFFFF19000100A90816845E
:10179B00E4032000100000109CA0000494C3000080
:1017AB00E16B3005B8CB004CB96B0004E0C63000E0
:1017BB009CA5FFFFE0C64000BC25000094C60000BE
:1017CB00E166580513FFFFF8A56BFFFF03FFFFF161
:1017DB009C630002440048001500000000008005D7
:1017EB00800F000A801B001E00148011803300360E
:1017FB00003C80390028802D8027002201000FD467
:10180B00010015FC0100101C010015FC010015FC6A
:10181B00010015FC010015FC010015FC010015FC75
:10182B0001001270010014D001001298010014A0E5
:10183B0001001464010014B801001310010015FC21
:10184B00010015FC010015FC010015FC010015FC45
:10185B00010015FC010015FC010015FC010015FC35
:10186B00010015FC010015FC010015FC010015FC25
:10187B00010015FC010015FC010015FC010014E42E
:10188B00010015109810FFFF0000800B9F9F820036
:10189B00810B9F9F8200820B9F9F8200830B9F9FD8
:1018AB0082009814FFFF5B5B980C20002000980FC0
:1018BB00FFFF00F09900FFFFFDE09901FFFF2104FE
:1018CB009902FFFF93109903FFFF4A66981EFFFFD3
:1018DB0085389826FFFF95799827FFFF00000000B9
:1018EB0000F203F002E000DF00E2000000F9007EEE
:1018FB00004C00F803800000003BF0000000007873
:10190B00003F0024000B9F9F8889006500E00000CA
:10191B000048FFFFFFFF0049FFFFFFFF004A0FFFDB
:10192B00071F004BFFFFFFFF004C1FFF0E9F004DDB
:10193B0080008000004E38003800004FF000F000AF
:10194B000000000000500FFF0040003BF0000000C3
:10195B00004D80008000000800F000800001400076
:10196B004000000A10000000006500E00000000BC2
:10197B009F9F8298000000000048FFFF00800049F5
:10198B00FFFF0002004C1FFF1115004BFFFF0080F3
:10199B00004A0FFF08BD000B9F9F82000000000054
:1019AB00008108000800000C80000000000C800083
:1019BB0080000081080000000000000088834E05B5
:1019CB008882D8008875C6FF6002800088FC52367A
:1019DB00780000008850504088A30020854E0000FE
:1019EB00887641828877516688781CBB8476008420
:1019FB0085760084867600848776008484771882C7
:101A0B0085771882867718828777188284788C3846
:101A1B0085788C3886788C3887788C38844E0000A3
:101A2B00874E0000864E00006032800060128000FE
:101A3B00886300808864808088085ABB88032933B8
:101A4B0088024006602280008806A1008805AE82CD
:101A5B000000000088DF0066888130008887CD7A1F
:101A6B008886CD7A88854D7A88848D7A88FC5366F2
:101A7B0088884D7A88FE80AE88FDB64488FFFDC00D
:101A8B0078080C00731AFF00711AFF00721AFF001E
:101A9B00701AFF0078093A908879886C824E38006A
:101AAB00814E3800834E3800804E3800884D8000C0
:101ABB007806125488EFB6A088FB773678190005A4
:101ACB00781681C088F98B5A88F8B7780007002000
:101ADB0088F1B00088F067B488F561E088F7A2461A
:101AEB00990293109900FDE09901210488010201EC
:101AFB0088004D0588074D7A0000000088DF0066DE
:101B0B00888130008887CD7A8886CD7A88854D7A12
:101B1B0088848D7A7806125488FB773688FEA5A8C0
:101B2B0088FD364488FFFDC078080C00731AFF004F
:101B3B00711AFF00701AFF00721AFF0078093A90B1
:101B4B008879886C814E3800834E3800824E38007D
:101B5B00804E3800884D800088EFB6A088884D7A7B
:101B6B0078190005781681C088F98BDA88F8B77870
:101B7B000007002A88F1B00088F067B488F561E0AF
:101B8B0088F7A246990293109900FDE09901210470
:101B9B008801020188004D0588074D7A000000007E
:101BAB00008BFC00FC00008BFC0000000000000020
:101BBB000000000080A7140081A7140082A7140066
:101BCB0083A7140084A7120085A7120086A7120012
:101BDB0087A7120080A83C0081A83C0082A83C008B
:101BEB0083A83C0084A83F0085A83F0086A83F003F
:101BFB0087A83F0084A63C0085A63C0086A63C0037
:101C0B0087A63C0080A0008081A0008082A000807D
:101C1B0083A0000084A0000085A0008086A0008027
:101C2B0087A00080844E2000854E2000864E200029
:101C3B00874E200080613C208161342082613420FA
:101C4B0083613C2084617C20856134208661342053
:101C5B00876134209F00980D981474FF900314F043
:101C6B00A3F0E490031AF0A3F0A3122AE100000002
:101C7B000090032B122AE10000000090032F122A80
:101C8B00E10000000078417C037D017BFF7A1C7929
:101C9B005F7E007F061228F2900347122AE10000B4
:101CAB00000090034DE4F0A304F0E4900351F0A383
:101CBB00F0C296C295C292C2817F961234F0D29630
:101CCB007F961234F0D2927F961234F0D2957FFA2F
:101CDB001234F0D2817FFA1234F090032474FFF0A7
:101CEB00A37401F0A3744FF0E4FFFE1234BF900312
:101CFB0051EEF0A3EFF0644C7003EE642060187BA0
:101D0B00FF7A00799F900351E0FFA3E0900366CF29
:101D1B00F0A3EFF01221D97DCD7CAB7F117E981211
:101D2B0035147F117E981234BF900351EEF0A3EF60
:101D3B00F064CD7003EE64AB60187BFF7A0079C55D
:101D4B00900351E0FFA3E0900366CFF0A3EFF012F6
:101D5B0021D9900324E0FBA3E0FAA3E0240C122F7B
:101D6B00F2900320122AD5900324E0FBA3E0FAA300
:101D7B00E02408122FF2900327122AD5900324E0B7
:101D8B00FBA3E0FAA3E02410122FF2900333E4F04C
:101D9B00A3740AF0A3122AD5900339122AE100008A
:101DAB000000E47B18FAF9F8900320E0FCA3E0FDB7
:101DBB00A3E0FEA3E0FF122A11EF2401FFE43E9003
:101DCB000353F0A3EFF090033FE4F0A37480F09083
:101DDB00032BE0F8A3E0F9A3E0FAA3E0FB90033FA9
:101DEB00E0FEA3E02404F58274003EF583E0FFE4FB
:101DFB00FCFDFEEB2FFFEE3AFEED39FDEC38FC90CF
:101E0B00032B122AD5900340E004F0700690033F99
:101E1B00E004F090033FE07004A3E064BF70B09067
:101E2B00033FE4F0A374C0F090032FE0F8A3E0F9B4
:101E3B00A3E0FAA3E0FB90033FE0FEA3E02404F54C
:101E4B008274003EF583E0FFE4FCFDFEEB2FFFEE1A
:101E5B003AFEED39FDEC38FC90032F122AD5900396
:101E6B0040E004F0700690033FE004F090033FE085
:101E7B007004A3E064DF70B090032BA3A3A3E0FF77
:101E8B009000C3EFF090032FA3A3A3E0FFE4900017
:101E9B00E3EFF0D2107D887C087F0D7E981235140D
:101EAB00E4FDFC7F0D7E98123514C2107FF41234C2
:101EBB00F0E4FFFE1234BF900351EEF0A3EFF06499
:101ECB004C7003EE642060187BFF7A00799F9003BF
:101EDB0051E0FFA3E0900366CFF0A3EFF01221D9FE
:101EEB007DCD7CAB7F117E981235147F117E9812BD
:101EFB0034BF900351EEF0A3EFF064CD7003EE64AA
:101F0B00AB60187BFF7A0079C5900351E0FFA3E02B
:101F1B00900366CFF0A3EFF01221D9E4900351F0B8
:101F2B00A3F0900355F0A37428F0E490033FF0A3C3
:101F3B00F0900355E0FEA3E0FF90033FE0FCA3E02D
:101F4B00FDC39FEE6480F8EC6480985075EDAE0491
:101F5B007802C333CE33CED8F9FDAC0624BFF5825D
:101F6B00741B3CF583E493FE74C02DF582741B3C0B
:101F7B00F583E493FDEDFFC006C00790033FE0FE41
:101F8B00A3E07802C333CE33CED8F9FDAC0624C11F
:101F9B00F582741B3CF583E493FE74C22DF58274B9
:101FAB001B3CF583E493FDEEFCEDD007D006123518
:101FBB0014900340E004F0700690033FE004F0023D
:101FCB001F3C7FF41234F07D777C077F0D7E9812D7
:101FDB003514E4FDFC7F0D7E981235147FF412341A
:101FEB00F01235657BFF7A01793C1221D97B017A9E
:101FFB007E79009003687402F0A3E4F0FD7C7E12FE
:10200B003101D2AF90FFD5E493FE90FFD4E493FD62
:10201B00EDFF900361EEF0A3EFF0900052E014603F
:10202B002E24FE6042146056240260030220C390EB
:10203B00004EE0FEA3E0FDEDFFC006C007A3E0FEEF
:10204B00A3E0FDEEFCEDD007D006123514806490B2
:10205B00004EE0FEA3E0FDEDFF1234BFAC06EC90AA
:10206B000050F0EFA3801190004FE02400F582E4C4
:10207B00347EF583E0900051F0E4A3F0803A9000B9
:10208B0051E0FF90004FE0FE2400F582E4347EF532
:10209B0083EFF0EEB4FF1C7F007E7E12348E7B014B
:1020AB007A7E79009003687401F0A3E4F0FF7E7EE2
:1020BB0012316CE4900052F0200F030220259000A7
:1020CB0000E0FCA3E0FDA3E0FEA3E0FFC006C00719
:1020DB00900361E0FEA3E0FBAA06D007D006C3EF96
:1020EB009BFFEE9AFEED9400FDEC9400FCE47B6408
:1020FB00FAF9F8122986E47B1CFAF9F81233CD9021
:10210B000357122AD5E47B64FAF9F8900357E0FCE5
:10211B00A3E0FDA3E0FEA3E0FF1233CD90035B121F
:10212B002AD5900357E0FCA3E0FDA3E0FEA3E0FF5C
:10213B00EC339003575009A3A3A3E0122AA3800BFF
:10214B00E0FCA3E0FDA3E0FEA3E0FFE47B64FAF96F
:10215B00F81233CDAF0390035FEAF0A3EFF0C20F99
:10216B00022025E5082466F582E43403F583E005B7
:10217B000822900363300703900366E475F00112A5
:10218B002B120229182000E97F2ED2008018EF5461
:10219B000F2490D43440D4FF30040BEF24BFB41A77
:1021AB000050032461FFE50960021509050CE50CDD
:1021BB007002050B30070E900363E475F001122BD0
:1021CB0012EF02295E0235C17403D2078003E4C209
:1021DB0007F508900363122B29E4F509F50BF50CB1
:1021EB00E50960077F201221B180F5750AFFC20156
:1021FB00C200C202C203C205C206C20812217DFF81
:10220B00700D3007057F001221C2AF0CAE0B22B44C
:10221B00255FC2D5C20412217DFF24D0B40A005021
:10222B001A75F00A780930D50508B6FF0106C6A461
:10223B0026F620D5047002D20380D924CFB41A001D
:10224B00EF5004C2E5D2040223C3D20180C6D200F0
:10225B0080C0D20280BCD2D580BAD20580B47F2098
:10226B001221B12002077401B5090040F112216E51
:10227B00FF1221B10221EBD208D206809512216EFA
:10228B00FB12216EFA12216EF94A4B700679947A81
:10229B00247BFF20022EE509602A7E008E82758347
:1022AB000012293160060EEE650A70F0C2D5EBC044
:1022BB00E0EAC0E0E9C0E0EE12240AD0E0F9D0E099
:1022CB00FAD0E0FB122918FF60AAEBC0E0EAC0E0ED
:1022DB00E9C0E01221B1D0E02401F9D0E03400FADA
:1022EB00D0E0FBE50A0460DCD50AD980877BFF7A56
:1022FB00247906D202809C791080027908C206C22A
:10230B00088008D2D5790A8004790AC2D5E50A0477
:10231B007002F50AE4FAFDFEFF12216EFC7B082029
:10232B00011312216EFD7B1030000A12216EFE127A
:10233B00216EFF7B20EC3382D592D55013C3E43052
:10234B0000069FFFE49EFEE42001039DFDE49CFC40
:10235B00E4CBF8C201EC700CCFCECDCCE824F8F86E
:10236B0070F38017C3EF33FFEE33FEED33FDEC3329
:10237B00FCEB33FB994002FB0FD8E9EB300105F87E
:10238B00D0E0C448B201C0E00AEC4D4E4F78207B40
:10239B000070C2EAB50A0040BCC0E012240CD0F0B9
:1023AB00D0E0200104C4C0E0C4B201C0F012219AF5
:1023BB00D0F0D5F0EB0221EB122B32228853230203
:1023CB005822594C22554223064F230E44230E49C3
:1023DB00226E4323145522F84622F84522F847244F
:1023EB00B450225D2D22612E22842B226523228262
:1023FB0020249D2A221D480000227C3F3F3F00796C
:10240B000AA2D5200314300509B910020404B90837
:10241B000104A2D52006025001042002689202B5E5
:10242B0009005034C0E07F203003197F30A20272C4
:10243B00067205500F122463C202C206C205C208FF
:10244B007F30800F300503E9C0E01221B130050366
:10245B00D0E0F9D0E0B509CC3005177F30B9100CBE
:10246B001221B17F583004077F788003B90803121B
:10247B0021B13002057F2D0221B17F202008F87F8A
:10248B002B2006F322920280CF286E756C6C2900EC
:10249B00D20112216E3001F8C201780930D5010842
:1024AB00F602221D2D5043495812216E2403B40508
:1024BB00004001E49024AF931221A2743A1221A29E
:1024CB00D20375090402230241030D10C10CC18D07
:1024DB004103060041030E00C10F44000000000041
:1024EB0000628000041107000000000100000000E2
:1024FB00000000000000000000000010E30000845A
:10250B009D00000000000000000000000000000023
:10251B0000000000000000000000000000000000B0
:10252B0000000000000000000000000000000000A0
:10253B000000000000000000000000000000000090
:10254B0000000000000000FF000000000000000081
:10255B000000020800000000000000000000000066
:10256B00000000000011CC218000000000000000E2
:10257B0005FF000000000003F04F454D20434F5274
:10258B005020202020202020201F009065000000DC
:10259B0000000000000000000000000000313600C9
:1025AB0000000000361907FFDC437265646F2020C2
:1025BB0020202020202020202031383031303420A2
:1025CB0020080067242020202020202020202020ED
:1025DB002020202020000000000000000000000050
:1025EB0000000000000000000000000000000000E0
:1025FB0000000000000000000000000000000000D0
:10260B0000000000000000000000000000000000BF
:10261B0000000000000000000000000000000000AF
:10262B00000000000000000000000000000000009F
:10263B00000000000000000000000000000000008F
:10264B00000000000000000000000000000000007F
:10265B00000000000000000000000000000000006F
:10266B00000000000000000000000000000000005F
:10267B00000000000000000000000000000000004F
:10268B00000000000000000000000000000000003F
:10269B00000000000000000000000000000000002F
:1026AB00000000000000000000000000000000001F
:1026BB00000000000000000000000000000000000F
:1026CB0000000000000000000000000000000000FF
:1026DB0000000000000000000000000000000000EF
:1026EB0000000000004B00FB004600000000000053
:1026FB0000000000008DCC7404875A79180000008C
:10270B0000000000000000000000000000000000BE
:10271B0000000000005576018E43E2031A17700586
:10272B00DC157C07D000000000000000000000005A
:10273B00000000000000000000000000000000008E
:10274B000000000000970F00000000000000006672
:10275B0066777733330F00000000000000000000A5
:10276B00000000000060800284804E0800814E084B
:10277B0000824E0800834E0800844E0800854E08E8
:10278B0000864E0800874E080080A7140081A7140E
:10279B000082A7140083A7140084A7120085A71238
:1027AB000086A7120087A7120080A83C0081A83CD6
:1027BB000082A83C0083A83C0084A83F0085A83F6A
:1027CB000086A83F0087A83F0080A63C0081A63C5E
:1027DB000082A63C0083A63C0084A63C0085A63C58
:1027EB000086A63C0087A63C004803960104080C13
:1027FB001018203048039E03010400050607024110
:10280B0003AC00C1104103AD164203A60000410307
:10281B00A8004103A90000E709F608DFFA8046E7A4
:10282B0009F208DFFA803E88828C83E709F0A3DF88
:10283B00FA8032E309F608DFFA8078E309F208DF61
:10284B00FA807088828C83E309F0A3DFFA806489B5
:10285B00828A83E0A3F608DFFA805889828A83E0B4
:10286B00A3F208DFFA804C80D280FA80C680D48035
:10287B006980F28033801080A680EA809A80A880DD
:10288B00DA80E280CA803389828A83ECFAE493A3EC
:10289B00C8C582C8CCC583CCF0A3C8C582C8CCC57B
:1028AB0083CCDFE9DEE7800D89828A83E493A3F68C
:1028BB0008DFF9ECFAA9F0EDFB2289828A83ECFAA6
:1028CB00E0A3C8C582C8CCC583CCF0A3C8C582C859
:1028DB00CCC583CCDFEADEE880DB89828A83E49394
:1028EB00A3F208DFF980CC88F0EF60010E4E60C3D5
:1028FB0088F0ED2402B4040050B9F582EB2402B445
:10290B00040050AF232345822390287273BB01062A
:10291B0089828A83E0225002E722BBFE02E32289EE
:10292B00828A83E49322BB010CE58229F582E5833D
:10293B003AF583E0225006E92582F8E622BBFE0633
:10294B00E92582F8E222E58229F582E5833AF583CF
:10295B00E49322BB010689828A83F0225002F7227C
:10296B00BBFE01F322A3F8E0C5F025F0F0E58215DC
:10297B008270021583E0C838F0E822E88FF0A4CC0F
:10298B008BF0A42CFCE98EF0A42CFC8AF0EDA42C8B
:10299B00FCEA8EF0A4CDA8F08BF0A42DCC3825F05A
:1029AB00FDE98FF0A42CCD35F0FCEB8EF0A4FEA945
:1029BB00F0EB8FF0A4CFC5F02ECD39FEE43CFCEA52
:1029CB00A42DCE35F0FDE43CFC2275F00875820099
:1029DB00EF2FFFEE33FECD33CDCC33CCC58233C5D9
:1029EB00829BED9AEC99E58298400CF582EE9BFE6A
:1029FB00ED9AFDEC99FC0FD5F0D6E4CEFBE4CDFAC5
:102A0B00E4CCF9A88222B800C1B90059BA002DEC68
:102A1B008BF084CFCECDFCE5F0CBF97818EF2FFF00
:102A2B00EE33FEED33FDEC33FCEB33FB10D70399A8
:102A3B004004EB99FB0FD8E5E4F9FA227818EF2F55
:102A4B00FFEE33FEED33FDEC33FCC933C910D70574
:102A5B009BE99A4007EC9BFCE99AF90FD8E0E4C993
:102A6B00FAE4CCFB2275F010EF2FFFEE33FEED33C3
:102A7B00FDCC33CCC833C810D7079BEC9AE89940F0
:102A8B000AED9BFDEC9AFCE899F80FD5F0DAE4CD52
:102A9B00FBE4CCFAE4C8F922C3E49FFFE49EFEE416
:102AAB009DFDE49CFC22EB9FF5F0EA9E42F0E99D34
:102ABB0042F0E89C45F022E8600FEFC333FFEE33A2
:102ACB00FEED33FDEC33FCD8F122ECF0A3EDF0A3DB
:102ADB00EEF0A3EFF022A8828583F0D083D0821290
:102AEB002AF8122AF8122AF8122AF8E473E493A3AC
:102AFB00C583C5F0C583C8C582C8F0A3C583C5F01F
:102B0B00C583C8C582C822F8E0FBA3A3E0F925F072
:102B1B00F0E582158270021583E0FA38F022EBF0B3
:102B2B00A3EAF0A3E9F022D083D082F8E4937012E9
:102B3B00740193700DA3A393F8740193F5828883AA
:102B4B00E4737402936860EFA3A3A380DFC0E0C0BB
:102B5B00F0C083C082C0D075D000C000C001C002DD
:102B6B00C003C004C005C006C007A2AF9209900302
:102B7B008DE5A7F075A720E5B9540F146073147099
:102B8B0003022C4224FE7003022C4D24FA605524C0
:102B9B00FE7003022C47147003022C4724046003BD
:102BAB00022C5053B9F69003A6E475F0011229706C
:102BBB00FE740425F0F58274003EF583E090038BE0
:102BCB00F0E0FF7003A3EFF08FBBC39003A7E0947B
:102BDB00809003A6E094024004E4F0A3F09003A9D4
:102BEB00E4F0806153B9F59003A87401F0A3F08071
:102BFB0054E5B930E40553B9EF80379003A6E4757B
:102C0B00F001122970FE740425F0F58274003EF574
:102C1B0083E090038BF0E0FFB41102A3F08FBBC3F2
:102C2B009003A7E094809003A6E094024004E4F0A4
:102C3B00A3F053B9FE800E53B9FD800953B9FB02C3
:102C4B002D5853B9FBE5AB30E203022D4F9003AD8A
:102C5B00E5BCF09003A9E0B401EB9003ADE0645048
:102C6B0060E39003A8E01470379003ADE0C3948049
:102C7B00401E900083E075F080A4FF9003ADE07CD4
:102C8B00002FFEEC35F09003A6F0A3CEF0022D47FB
:102C9B009003ADE0FF9003A6E4F0A3EFF0022D4705
:102CAB009003ADE0FF9003A6E475F001122970FCD0
:102CBB00740425F0F58274003CF583EFF0C39003A8
:102CCB00A7E094809003A6E094024004E4F0A3F004
:102CDB009003A7E024FFFF9003A6E034FFFEEF6410
:102CEB004E4E70589003ADE0C39403504FE0640216
:102CFB0090004E7022E0FEA3E0FDEDFFC006C00782
:102D0B00A3E0FEA3E0FDEEFCEDD007D006123514D8
:102D1B00900052E4F08025E0FEA3E0FDEDFF1234BD
:102D2B00BF90038EEEF0A3EFF090038EE0FCA3E0D8
:102D3B00FDEC900050F0EDA3F0A3E4F09003A8E4B9
:102D4B00F0022C5053B9DF90038DE0F5A7D007D0DC
:102D5B0006D005D004D003D002D001D000D0D0D003
:102D6B0082D083D0F0D0E032C0E0C083C082C0D02C
:102D7B0075D000C006C007C20A30C203022E37E569
:102D8B00C054F02480606D24C0602624E0600302F0
:102D9B002E3390030DE025E0F5C253C2FEA20EE4E4
:102DAB003342C2C2C59003AB7401F09003AAF0800A
:102DBB007D30C123200E77900304E0FF9003AAE03F
:102DCB00FED39F501574082EF582E43403F583E08F
:102DDB00F5C29003AA8039301006D2C4C20B804EC4
:102DEB00D2C4D2C5900308E004F07042900307E010
:102DFB0004F0803A9003ABE0FFC39402740E5015BD
:102E0B002FF582E43403F583E5C2F0D2C19003AB16
:102E1B00E004F080192FF582E43403F583E5C2F06A
:102E2B00C20BC2C1D2C48006D20A8002D20A300AB7
:102E3B001E53C17F43C180C2C5C2C4C2C1C20BC233
:102E4B000A900308E004F07006900307E004F0C258
:102E5B00C0D007D006D0D0D082D083D0E032900340
:102E6B001D122AD5900327E5A7F075A72090031D07
:102E7B00E0C313FEA3E013FFE4FCFD900321E0F895
:102E8B00A3E0F9A3E0FAA3E02FFFEA3EFEED39FD44
:102E9B00EC38FC900321A3A3A3E0FB122A119003AF
:102EAB0026EFF0E4900325F0900325E0FFC3940890
:102EBB004003022F5174962FF582E43403F583E01F
:102ECB00FF900326E0FEEFC39E4072E47F02FEFDFF
:102EDB00FC900321E0F8A3E0F9A3E0FAA3E0FB12D6
:102EEB002986A804A905AA06AB07900325E024961A
:102EFB00F582E43403F583E0FFE4FCFDFE12298642
:102F0B00A804A905AA06AB0790031DE0FCA3E0FDEE
:102F1B00A3E0FEA3E0FF122A11C3E49FFFE49EF59A
:102F2B0096EFF595900325E0249EF582E43403F5A6
:102F3B0083E044404294900327E0F5A722900325B9
:102F4B00E004F0022EB380FE12003975FF80000002
:102F5B000000000075EF0275D94000787FE4F6D8C9
:102F6B00FD758122022FAD0231D1E493A3F8E493D6
:102F7B00A34003F68001F208DFF48029E493A3F861
:102F8B005407240CC8C333C4540F4420C8834004D3
:102F9B00F456800146F6DFE4800B01020408102092
:102FAB0040809024D3E47E019360BCA3FF543F3058
:102FBB00E509541FFEE493A360010ECF54C025E036
:102FCB0060A840B8E493A3FAE493A3F8E493A3C8EE
:102FDB00C582C8CAC583CAF0A3C8C582C8CAC5837F
:102FEB00CADFE9DEE780BEF9E43AFA900363EBF05F
:102FFB00A3EAF0A3E9F0A3122AE100000000E49099
:10300B00036AF0900366E0FCA3E0FDA3E0FEA3E0FF
:10301B00FF7808122AC2900366122AD5900366E045
:10302B00F8A3E0F9A3E0FAA3E0FBC000C001C002E3
:10303B00C003900363E0FBA3E0FAA3E0F990036AFB
:10304B00E0F582758300122931FFD003D002D00145
:10305B00D000EB4FFFEAFEE9FDE8FC900366122A75
:10306B00D590036AE004F0E0B40498900366E0FCAA
:10307B00A3E0FDA3E0FEA3E0FF2290036BEEF0A321
:10308B00EFF0A3ECF0A3EDF0A3EAF0A3EBF0A3A316
:10309B00E0FF74017E00A807088005C333CE33CE52
:1030AB00D8F924FFFFEE34FFAD07FC90036FA3E0CC
:1030BB00F9EDAE04A801088005C333CE33CED8F9A1
:1030CB00F4FFEEF4FE90036BE05EF0A3E05FF0A381
:1030DB00E05CFEA3E05DA801088005C333CE33CED0
:1030EB00D8F9FF90036BE04EFEA3E04FFF90036B0C
:1030FB00EEF0A3EFF022900363EBF0A3EAF0A3E969
:10310B00F0A3ECF0A3EDF0E490036AF0A3F09003CE
:10311B0068E0FEA3E0FFA3E0FCA3E0FDC39FEC9EF1
:10312B005033900367E02DFF900366E03CFE1235B1
:10313B0033900363E0FBA3E475F001122970A9F04F
:10314B00FAEF12295E90036BE004F070C190036AF2
:10315B00E004F080B9900363E0FBA3E0FAA3E0F98D
:10316B0022900365EBF0A3EAF0A3E9F0900363EE82
:10317B00F0A3EFF090036AEEF0A3EFF0900368E09A
:10318B00FEA3E0FF900364E02FFD900363E03EFCA1
:10319B0090036AE0FEA3E0FFC39DEE9C50279003D3
:1031AB0065E0FBA3E475F001122970A9F0FA12296E
:1031BB0018FD12000390036BE004F070BF90036ADC
:1031CB00E004F080B72212003E900318122AE100AF
:1031DB0001C2007F007EA27D4A7C0412341120863E
:1031EB002A75E340C287E4FFFE0FBF00010EEFF428
:1031FB004E70F6D2873087FDE4FEFF0FBF00010E45
:10320B00EF640A4E70F5E4F5E380D3123451E49089
:10321B000307F0A3F0C2AF75A72053BAFE43BA441D
:10322B00D2AF121C657FF40234F0900392122AE1A4
:10323B0000000000200BFDD20BC20ED2C5300B4894
:10324B00900392E0FCA3E0FDA3E0FEA3E02401FFCA
:10325B00E43EFEE43DFDE43CFC900392122AD5E4EF
:10326B007FFFFEFDFC900392E0F8A3E0F9A3E0FAE8
:10327B00A3E0FBD3122AB140C4900392122AE100BF
:10328B00000000123386C322D322900392122AE14C
:10329B0000000000200BFDD20BD20ED2C5300B4824
:1032AB00900392E0FCA3E0FDA3E0FEA3E02401FF6A
:1032BB00E43EFEE43DFDE43CFC900392122AD5E48F
:1032CB007FFFFEFDFC900392E0F8A3E0F9A3E0FA88
:1032DB00A3E0FBD3122AB140C4900392122AE1005F
:1032EB00000000123386C322D322900365ECF0A3B7
:1032FB00EDF0A3EAF0A3EBF0900363EEF0A3EFF095
:10330B001234BFC007900365E0FCA3E0FDA3E0FA15
:10331B00A3E0FBA3E0FFA3E0900371CFF0A3EFF0DA
:10332B00D007123085AC06AD07900363E0FEA3E037
:10333B00FF023514C0E0C0F0C083C082C0D075D08E
:10334B0000C000C004C005C006C007C2EDE5BDAE9D
:10335B00BE7802CEC313CE13D8F9FFE4FCFD900068
:10336B0000122AD5D20FD007D006D005D004D0003A
:10337B00D0D0D082D083D0F0D0E0327F0943D50CAF
:10338B0075F2FF75A55FE59030E210AE071FEE609A
:10339B000A5390F7004390080080EB75A55F53909C
:1033AB00F75390FB00439008004390040053D5F370
:1033BB0075A55053C17F43C180C2C5C2C4C2C1C22F
:1033CB000B22C2D5E830E70FB2D5E4C39BFBE49ADE
:1033DB00FAE499F9E498F8EC30E717B2D512340314
:1033EB00122A11E4C39BFBE49AFAE499F9E498F8E6
:1033FB008003122A1130D50DE4C39FFFE49EFEE437
:10340B009DFDE49CFC2290031CE5A7F075A72043CF
:10341B00C812E4F5DA43930CC004C005C006C0071C
:10342B00900318E0FCA3E0FDA3E0FEA3E0FF9003F4
:10343B0021122AD5D007D006D005D004122E6990C0
:10344B00031CE0F5A722900314E5A7F012361C121B
:10345B00362612003512362D12357B1236341236C3
:10346B00051200561200761235911235DE1235EB2D
:10347B0012363B1235A11235F812354D900314E07C
:10348B00F5A722A2AF9200ADA7E4F5A7C2AF75FFD7
:10349B008075EF028F828E8375B7A575B7F1438F59
:1034AB000375FF8075EF02F0538FFCAF058FA7A25A
:1034BB000092AF22900390EEF0A3EFF09003047410
:1034CB0002F0900390E0FCA3E0FDEC900309F0ED1B
:1034DB00A3F012323512329550E290030FE0FEA3A7
:1034EB00E0FDEDFF225388CF5389F0438901438ED2
:1034FB0004EF6012C28C758CE6758AC0C28DD28CBB
:10350B00308DFD1F80EBC28C22AB07AA0690030403
:10351B007404F0EA900309F0EFA3F0ECA3F0EDA331
:10352B00F012323550FBD322A2AF9200ADA7E4F5D7
:10353B00A7C2AF8F828E8393FFAE058EA7A2009298
:10354B00AF22E4F5A775E68975F30675A71075EE3E
:10355B000175ED02F5A775A88022900369E4F0A32D
:10356B0004F07B0E7A00FD7C007F617E840232F5D5
:10357B0075B30775B29C75BB1475DF6C75BC28757C
:10358B00B98643E8C12275A710E59854045398FBFC
:10359B0043980442982275A7207594437596FE753F
:1035AB0095C843C8102275A72053BAFD43BA0275BC
:1035BB00A71053987F32AEA775A72030C9FD8F9205
:1035CB00C2C98EA72253C17F43C18053917FC2C50D
:1035DB00C20B32E5C0540453C0FB43C00442C022AB
:1035EB00E4F5A7758E017589204388402275BD507F
:1035FB0053BAFB43BA1843BA0222E4F5A775A903E1
:10360B00E5A930E7FB22E4F5A7F5A9E5A930E7FB2F
:10361B0022E4F5A77597DE7597AD2275A40275D4D4
:10362B003F2275E34175E1042275A71075C1202275
:07363B0053C1FC43C1DD2275
:00000001FF
